:100000000C94B6010C94DE010C94DE010C94DE011C
:100010000C94DE010C94DE010C94DE010C94D109E9
:100020000C94DE010C9464090C94510E0C94C30ED4
:100030000C94DE010C94DE010C94DE010C94DE01C4
:100040000C94DE010C94DE010C94DE010C94DE01B4
:100050000C94DE010C94DE010C94DE010C94D106AC
:100060000C94DE010C94DE010C94DE010C94DE0194
:100070000C94DE010C94DE010C94DE010C94DE0184
:100080000C948C080C94DE010C94DE010C94DE01BF
:100090000C941B070C94DE010C94DE010C94DE0121
:1000A0000C94DE010C94DE010C94DE013302360266
:1000B000250229022F025702570257023A023E0236
:1000C000420248024C02570252024A044F045404AE
:1000D0005E046804B204B204B20472047C048604B0
:1000E00090049D04B204A504A8099C09BB099C09BD
:1000F000BB09BB09A809A809BB09BB099C09BB0925
:100100009C09A809180A0C0A2B0A0C0A2B0A2B0AAC
:10011000180A180A2B0A2B0A0C0A2B0A0C0A180AAE
:1001200005A84CCDB2D44EB93836A9020C50B991BD
:100130008688083CA6AAAA2ABE000000803F0800C4
:100140000000BE922449123EABAAAA2ABECDCCCC56
:100150004C3E00000080BEABAAAAAA3E00000000F0
:10016000BF000000803F0000000000084178D3BBC2
:100170004387D1133D190E3CC3BD4282AD2B3E686F
:10018000EC8276BED98FE1A93E4C80EFFFBE01C460
:10019000FF7F3F000000000007634236B79BD8A7EF
:1001A0001A39685618AEBAAB558C1D3CB7CC57639C
:1001B000BD6DEDFD753EF6177231BF000000803F4A
:1001C00020546F74616C3A200020496E7465677228
:1001D000616C20636F6D706F6E656E743A200020E5
:1001E000446966666572656E7469616C20636F6DE3
:1001F000706F6E656E743A20002050726F706F726F
:1002000074696F6E616C20636F6D706F6E656E7474
:100210003A2000204572726F7220496E74656772D1
:10022000616C3A00204572726F722044656C746193
:100230003A004572726F723A200007060504010009
:10024000080A0B0C0D0900000000240027002A00FA
:100250002D00300000000000250028002B002E009B
:100260003100000000002300260029002C002F0090
:10027000040404040403040502020202040302024B
:10028000020206060606060604040202020404042C
:100290000802011040804010204080408008020485
:1002A00001804020100201108010204040200000FA
:1002B000000200090F0000030401000C0000000010
:1002C0000000000000000000000000000020483A8C
:1002D000200020593A2000583A2000080B00020262
:1002E00002010009040000010202000005240010C0
:1002F000010524010101042402060524060001076A
:1003000005810310004009040100020A00000007F3
:1003100005020240000007058302400000040309B3
:100320000412010002EF0201404123368000010166
:1003300002030141726475696E6F204C4C430041A9
:10034000726475696E6F204C656F6E6172646F00C8
:100350004572726F723A496E76616C696420636FA0
:100360002D6F7264696E617465001F1811241FBEC1
:10037000CFEFDAE0DEBFCDBF11E0A0E0B1E0ECEC02
:10038000FFE302C005900D92A03AB107D9F724E02F
:10039000A0EAB1E001C01D92A531B207E1F711E07A
:1003A000C6EBD1E004C02197FE010E94C51FC53BEA
:1003B000D107C9F70E946E120C94E41F0C94000040
:1003C000CF93DF931F92CDB7DEB76983DC01ED9148
:1003D000FC910280F381E02D41E050E0BE016F5FAF
:1003E0007F4F09950F90DF91CF91089583E080931F
:1003F000E9008091F200882319F08AE38093E800F5
:100400000895FC018485958597FD0BC09FB7F894EE
:1004100082E08093E9008091F2009FBF90E0019616
:1004200008959FB7F89482E08093E9008091F200EC
:100430009FBF90E0089590E0FC013197EF30F10507
:10044000B0F5EA5AFF4F0C94C51F809180008F775A
:1004500003C0809180008F7D8093800008958091FB
:100460008000877FF9CF84B58F7702C084B58F7DF8
:1004700084BD0895809190008F7707C0809190008F
:100480008F7D03C080919000877F809390000895B6
:100490008091C0008F7703C08091C0008F7D8093D2
:1004A000C00008958091C200877F8093C2000895A4
:1004B000CF93DF93282F30E0F901E255FD4F84916F
:1004C000F901E157FD4FD491F901E059FD4FC49175
:1004D000CC2391F081110E941B02EC2FF0E0EE0F73
:1004E000FF1FEE59FD4FA591B491EC91ED2381E0F2
:1004F00090E021F480E002C080E090E0DF91CF91B5
:1005000008953FB7F8948091100290911102A09144
:100510001202B091130226B5A89B05C02F3F19F017
:100520000196A11DB11D3FBFBA2FA92F982F882773
:10053000820F911DA11DB11DBC01CD0142E0660FCE
:10054000771F881F991F4A95D1F7089585ED8093ED
:10055000BC008091BC0084FDFCCF1092E5010895A1
:100560004091C101262F30E0240F311D2132310589
:10057000DCF42091E5012430C9F4FC0180E090E036
:10058000861758F43091C1012191DC01AF55BE4F5F
:10059000A30FB11D2C930196F3CF8091C101680F79
:1005A0006093C10180E0089581E0089582E008959C
:1005B00008958FEF9FEF08958FEF9FEF089580913B
:1005C000A00190E09195819591090895CF93DF93D3
:1005D000CB01EA01642F0E94B002CE01DF91CF91DE
:1005E0000895CF93DF931F92CDB7DEB7698361E0A3
:1005F000CE0101960E94B00281E090E00F90DF9161
:10060000CF910895089580E090E008950E94400EF3
:1006100090E008950F931F93CF93DF931F92CDB770
:10062000DEB78C01FC018485958597FF0EC0CE0155
:1006300001960E94120E019719F4898190E002C080
:100640008FEF9FEFF80195878487F8018485958562
:100650000F90DF91CF911F910F910895CF93DF936A
:100660001F92CDB7DEB7FC018485958597FD05C047
:100670002FEF3FEF358724870BC0CE0101960E94F4
:10068000120E019719F4898190E002C08FEF9FEF5D
:100690000F90DF91CF9108950E94DF1F1F93CF939A
:1006A000DF93282F30E0F901E255FD4F8491F901E5
:1006B000E157FD4FD491F901E059FD4FC491CC238E
:1006C000C1F0162F81110E941B02EC2FF0E0EE0FFB
:1006D000FF1FEC5AFD4FA591B4919FB7F8941111EB
:1006E00004C08C91D095D82302C0EC91DE2BDC9312
:1006F0009FBFDF91CF911F910895CF93DF9390E03B
:10070000FC01E157FD4F2491FC01E059FD4F84911C
:10071000882361F190E0880F991FFC01EA5BFD4F8F
:10072000C591D491FC01EC5AFD4FA591B491611192
:1007300009C09FB7F8948881209582238883EC9123
:100740002E230BC0623061F49FB7F8948881322F5A
:10075000309583238883EC912E2B2C939FBF06C06A
:100760008FB7F894E8812E2B28838FBFDF91CF912C
:100770000895CF93DF93EC01888581110FC081E04C
:1007800088878A85882311F062E001C060E089854E
:100790000E947D038FE090E00197F1F789850E9428
:1007A00058022B8530E041E02817390709F440E072
:1007B000842FDF91CF910895AF92BF92CF92DF92B5
:1007C000EF92FF920F931F93CF93DF938C016A01F7
:1007D0007B0120E030E0A901C701B6010E94A91BFE
:1007E000682F661F6627661FF80181810E944E03ED
:1007F00020E030E0A901C701B6010E944C1D181687
:1008000024F0F7FAF094F7F8F09420E030E0A90132
:10081000C701B6010E94A91B87FD12C0F801A28082
:10082000B380D481C58195014D2F5C2FC701B601DE
:100830000E944C1D181644F05601DE2DCF2D04C029
:10084000A12CB12CD0E0C0E0B5018D2F9C2F0E94CF
:10085000251C6B017C01EB01F801108161E0812F07
:100860000E947D03209709F480C0CF3FD10509F491
:100870007EC0E12FF0E0E255FD4FE4918E2F90E035
:10088000FC013197EF30F10508F06CC0EB59FF4FD8
:100890000C94C51F84B5806884BDC7BC76C084B580
:1008A000806284BDC8BC71C08091800080688093E4
:1008B0008000D0928900C092880067C0809180003B
:1008C000806280938000D0928B00C0928A005DC0CD
:1008D00080918000886080938000D0928D00C092CB
:1008E0008C0053C080919000806880939000D092DB
:1008F0009900C092980049C08091900080628093D6
:100900009000D0929B00C0929A003FC080919000CE
:10091000886080939000D0929D00C0929C0035C06A
:100920008091C00080688093C0008091C0008F7B60
:100930008093C000C092CF0028C08091C000806228
:100940008093C000C092D00020C08091C200886017
:100950008093C2008091C2008B7F8093C200C092BE
:10096000D20013C0C038D10514F460E001C061E0CA
:10097000812FDF91CF911F910F91FF90EF90DF902A
:10098000CF90BF90AF900C944E03DF91CF911F9109
:100990000F91FF90EF90DF90CF90BF90AF900895B0
:1009A000823108F08251E82FF0E0E65CFD4FE491DF
:1009B00080917B00E3FB222720F930E095E0220FB5
:1009C000331F9A95E1F78F7D282B20937B00E770EA
:1009D000E064E0937C0080917A00806480937A00E8
:1009E00080917A0086FDFCCF80917800209179007B
:1009F00090E0922B08958F929F92AF92BF92CF92E8
:100A0000DF92EF92FF926B017C010E9481024B0109
:100A10005C01C114D104E104F104F1F00E948102EF
:100A2000DC01CB0188199909AA09BB09883E9340CA
:100A3000A105B10570F321E0C21AD108E108F1085F
:100A400088EE880E83E0981EA11CB11CC114D1044D
:100A5000E104F10419F7DDCFFF90EF90DF90CF9024
:100A6000BF90AF909F908F9008952FB7F8946091AA
:100A70000C0270910D0280910E0290910F022FBF17
:100A800008952F923F924F925F926F927F928F9232
:100A90009F92AF92BF92CF92DF92EF92FF920F930D
:100AA0001F93CF93DF93CDB7DEB72A970FB6F89495
:100AB000DEBF0FBECDBF9A87898749835A836B8378
:100AC0007C83480159010E9435056B017C01E98551
:100AD000FA8580A991A9A2A9B3A9A7019601281B0B
:100AE000390B4A0B5B0BCA01B9010E945D1C2B013B
:100AF0003C01A985BA85D096CD92DD92ED92FC920B
:100B0000D397A501940169817A818B819C810E9490
:100B10003C1B6B017C019B01AC01E985FA8560A55A
:100B200071A582A593A50E943C1BA30192010E947E
:100B3000B31B6D837E838F83988729813A814B8194
:100B40005C81A985BA8590962D933D934D935C93D6
:100B50009397FD0184A295A2A6A2B7A29896CD92E2
:100B6000DD92ED92FC929B97A7019601C301B20121
:100B70000E94A11DE985FA8524A535A546A557A59E
:100B80000E943D1B2B013C01A985BA859C966D9363
:100B90007D938D939C939F972D913D914D915C9169
:100BA000C701B6010E94A11D4B015C01E985FA85D0
:100BB000608B718B828B938B208531854285538529
:100BC0006D817E818F8198850E94A11D69837A83C2
:100BD0008B839C83A985BA8558966D937D938D935D
:100BE0009C935B9714962D913D914D915C91179735
:100BF000C301B2010E94A11D2B013C01E985FA85C8
:100C0000648B758B868B978B29813A814B815C81B4
:100C1000C501B4010E943D1BA30192010E943D1B2E
:100C2000162F072F382E292EA985BA851C968D9050
:100C30009D90AD90BC901F972401350177FA709478
:100C400077F87094A30192010E94A91B87FD11C03F
:100C5000A5019401612F702F832D922D0E944C1DB0
:100C600018164CF0812F902FA32DB22D4C015D0151
:100C700002C053014201E985FA85848E958EA68EC5
:100C8000B78E84A9882309F45AC082E392E00E94B7
:100C9000131142E0C701B6010E94790C84E292E090
:100CA0000E94131142E06D817E818F8198850E94A0
:100CB000790C83E192E00E941311A985BA859C9674
:100CC0006D917D918D919C919F9742E00E94790C4E
:100CD00089EF91E00E941311E985FA856089718995
:100CE0008289938942E00E94790C8FED91E00E9405
:100CF0001311A985BA8558966D917D918D919C911E
:100D00005B9742E00E94790C89EC91E00E941311FC
:100D1000E985FA85648975898689978942E00E9408
:100D2000790C80EC91E00E941311A985BA855C963C
:100D30006D917D918D919C915F970E949A0DE985AF
:100D4000FA8585A9882361F020A131A142A153A190
:100D500064A175A186A197A10E94B31B0E949A0D60
:100D6000A985BA855C966D917D918D919C915F97D7
:100D70002A960FB6F894DEBF0FBECDBFDF91CF919C
:100D80001F910F91FF90EF90DF90CF90BF90AF90A9
:100D90009F908F907F906F905F904F903F902F909B
:100DA00008951F920F920FB60F9211242F933F9325
:100DB0008F939F93AF93BF9380910C0290910D02FC
:100DC000A0910E02B0910F0230910B0223E0230F8D
:100DD0002D3720F40196A11DB11D05C026E8230F73
:100DE0000296A11DB11D20930B0280930C029093DB
:100DF0000D02A0930E02B0930F0280911002909109
:100E00001102A0911202B09113020196A11DB11D11
:100E10008093100290931102A0931202B0931302D8
:100E2000BF91AF919F918F913F912F910F900FBEE6
:100E30000F901F9018951F920F920FB60F921124CA
:100E40002F933F934F935F936F937F938F939F93D2
:100E5000AF93BF93EF93FF938091B900887F803663
:100E600009F49CC068F5883209F45BC090F48031C5
:100E700009F454C038F4882309F4F2C0883009F426
:100E80004DC0F2C0883109F44CC0803209F45DC015
:100E9000EBC0803409F468C048F4803309F455C0CD
:100EA000883309F0E1C08093E401D4C0803509F4AF
:100EB0004FC0883509F45DC0883409F0D5C0D2C070
:100EC000883909F4C3C0A8F4883709F467C038F436
:100ED000883609F463C0803709F460C0C5C088381B
:100EE00009F4B4C0803909F45FC0803809F0BCC08F
:100EF0005BC0803B09F484C038F4803A09F466C0D2
:100F0000883A09F47DC0B0C0803C09F4A3C0883C95
:100F100009F4A0C0883B09F486C0A6C080910A02EB
:100F200010C09091090280910802981770F5E09125
:100F3000090281E08E0F80930902F0E0E851FE4F34
:100F400080818093BB0085EC82C08093E4018AC0DD
:100F5000E091090281E08E0F809309028091BB002D
:100F6000F0E0E851FE4F80839091090280910802E1
:100F70006AC0E091090281E08E0F8093090280919E
:100F8000BB00F0E0E851FE4F80838091E7018111C2
:100F900069C081E08093E60184EA5DC083E08093CC
:100FA000E5011092E301CFCF8091E301803208F098
:100FB0004DC0E091E30181E08E0F8093E3018091C9
:100FC000BB00F0E0ED53FE4F8083BDCF85EC8093F6
:100FD000BC001092E5018091E301803230F4E09191
:100FE000E301F0E0ED53FE4F10826091E30170E009
:100FF00083EC91E0E0E0F0E009951092E30134C069
:1010000084E08093E5011092C2011092C101E0E0FA
:10101000F0E009958091C101811105C081E08093C4
:10102000C1011092A101E091C20181E08E0F809375
:10103000C201F0E0EF55FE4F80818093BB0090919C
:10104000C2018091C101981708F47DCF85E8809393
:10105000BC000AC085EC8093BC001092E50104C07E
:101060001092E4010E94A602FF91EF91BF91AF910F
:101070009F918F917F916F915F914F913F912F91B0
:101080000F900FBE0F901F9018950F931F93CF9343
:10109000DF93EC0161E086E00E947D0361E086E081
:1010A0000E944E0304E110E08C810E94D004BC0138
:1010B000990F880B990B0E945D1C9B01AC01688104
:1010C00079818A819B810E943D1B688379838A8311
:1010D0009B836AE070E080E090E00E94FB04015096
:1010E000110911F720E030E040EA51E4688179818C
:1010F0008A819B810E94B31B688379838A839B8347
:1011000061E086E00E947D0360E086E0DF91CF91A0
:101110001F910F910C944E031F920F920FB60F92D6
:1011200011244F925F926F927F928F929F92AF9213
:10113000BF92CF92DF92EF92FF920F931F932F9364
:101140003F934F935F936F937F938F939F93AF934F
:10115000BF93EF93FF9380912C0290912D02A09169
:101160002E02B0912F0200911A0210911B022091C1
:101170001C0230911D02C0902802D0902902E090FC
:101180002A02F0902B028090240290902502A090D9
:101190002602B090270240902C0250902D026090C1
:1011A0002E0270902F0240921A0250921B026092FF
:1011B0001C0270921D0240902802509029026090FB
:1011C0002A0270902B0240922402509225026092D3
:1011D000260270922702BC01601B710B072E000CC7
:1011E000880B990B0E945D1C609316027093170286
:1011F0008093180290931902B60168197909072E95
:10120000000C880B990B0E945D1C60932002709368
:1012100021028093220290932302009116021091E2
:101220001702209118023091190240913402509116
:101230003502609136027091370280EF92E00E9491
:1012400041054B015C010091200210912102209187
:10125000220230912302409130025091310260917C
:101260003202709133028AEB92E00E9441056B01D9
:101270007C01B501A4018CE293E00E94DC03B7017C
:10128000A60186E293E00E94DC03FF91EF91BF91FB
:10129000AF919F918F917F916F915F914F913F910E
:1012A0002F911F910F91FF90EF90DF90CF90BF9003
:1012B000AF909F908F907F906F905F904F900F9026
:1012C0000FBE0F901F9018951F920F920FB60F929E
:1012D00011242F933F934F935F936F937F938F933B
:1012E0009F93AF93BF93CF93EF93FF93CCB1C2FB88
:1012F000CC27C0F98AE10E94580221E0892B09F429
:1013000020E02C2780911502880F9C2F990F990FB0
:10131000892BE22FEE0FEE0FEE0F8E2BE0911402D1
:10132000E82B8E2F90E0FC013197EE30F10518F597
:10133000EC58FF4F0C94C51F80912C0290912D0208
:10134000A0912E02B0912F020196A11DB11D0BC0DC
:1013500080912C0290912D02A0912E02B0912F022B
:101360000197A109B10980932C0290932D02A093BB
:101370002E02B0932F0220931502C0931402FF9106
:10138000EF91CF91BF91AF919F918F917F916F918D
:101390005F914F913F912F910F900FBE0F901F9033
:1013A00018951F920F920FB60F9211242F933F930F
:1013B0004F935F936F937F938F939F93AF93BF935D
:1013C000CF93EF93FF9387E10E945802C1E0892BEE
:1013D00009F4C0E087E00E94580221E0892B09F45B
:1013E00020E02C2780911F02880F9C2F990F990FC6
:1013F000892BE22FEE0FEE0FEE0F8E2BE0911E02E7
:10140000E82B8E2F90E0FC013197EE30F10518F5B6
:10141000EE57FF4F0C94C51F80912802909129022E
:10142000A0912A02B0912B020196A11DB11D0BC003
:101430008091280290912902A0912A02B0912B025A
:101440000197A109B1098093280290932902A093E2
:101450002A02B0932B0220931F02C0931E02FF9119
:10146000EF91CF91BF91AF919F918F917F916F91AC
:101470005F914F913F912F910F900FBE0F901F9052
:101480001895CF92DF92EF92FF920F931F93CF9315
:10149000DF936C017A018B01C0E0D0E0CE15DF054F
:1014A00081F0D8016D918D01D601ED91FC910190F3
:1014B000F081E02DC6010995892B11F02196EECF20
:1014C0007E01C701DF91CF911F910F91FF90EF90A7
:1014D000DF90CF9008958F929F92AF92BF92CF925C
:1014E000DF92EF92FF920F931F93CF93DF936C01E4
:1014F0007B018A0180912C01882309F45CC08091D2
:101500004C02882309F457C08091490280FF05C02E
:101510008091E00082608093E000E801B12C8AEFC6
:10152000A82E93E0892E2AE3922E209711F4BB2057
:10153000D9F10E94400E81110AC0AA94AA20D9F1C3
:1015400061E070E080E090E00E94FB04EECF282F85
:1015500030E0C217D3070CF48C2F9FB7F894809219
:10156000E9002091E80025FF1DC0282F30E0C21BB4
:10157000D30BF701815020F041914093F100FACF55
:10158000E20EF31EBB2019F09092E8000AC0809191
:10159000E80085FD07C09092E800BB24B394209733
:1015A00009F0B12C9FBFC1CF5D9884E680934A02B9
:1015B0001016110644F081E090E0F60193838283D7
:1015C00080E090E001C0C801DF91CF911F910F91A1
:1015D000FF90EF90DF90CF90BF90AF909F908F9053
:1015E0000895409146025091470220914402309163
:1015F000450242175307B4F49091E8009570E1F367
:101600009091E80092FD19C08093F100809146020C
:101610009091470201968F739927892B19F48EEFC9
:101620008093E80080914602909147020196909342
:1016300047028093460281E0089580E0089561505A
:1016400030F02091F100FC0120830196F8CF28981A
:1016500084E680934B0208958091560281110DC05B
:1016600082E08093520284E08093530210925502EC
:101670001092540281E08093560282E592E0089530
:10168000DF92EF92FF920F931F93CF93DF93D82EA9
:10169000F92EE42E062F10E0C8010196880F0E9453
:1016A000F10A83E00E94F10ACD2DDF2D0C0F1D1FE2
:1016B000C017D10789F0E7FE03C0FE01849101C085
:1016C00088810E94F10AF82E80E00E94F10A8F21A1
:1016D00021968111EDCF01C081E0DF91CF911F9163
:1016E0000F91FF90EF90DF900895DF92EF92FF92BD
:1016F0000F931F93CF93DF93D82E8A017B01E40EC3
:10170000F51EEB01CE15DF0571F0D7FE03C0FE011B
:10171000849101C088810E94F10A21968111F2CF43
:101720008FEF9FEF01C0C801DF91CF911F910F9103
:10173000FF90EF90DF9008950F931F93CF93DF9367
:101740001F92CDB7DEB782E0898342E450E06BEDB3
:1017500072E080E80E94750B0E942C0BDC0112964F
:101760000D911C9113970115110589F0D801ED9188
:10177000FC910280F381E02DBE016F5F7F4FC801B5
:10178000099597FD04C0F80100851185ECCF89818A
:101790000F90DF91CF911F910F910895CF93DF9319
:1017A000D82FC62F0E943C11682F6C2B8D2FDF91F4
:1017B000CF910C94B211AF92BF92CF92DF92EF9281
:1017C000FF920F931F93CF93DF935C01C62E8A0184
:1017D000E90167EF82E00E94B21184E00E943C11AF
:1017E000682F6F7784E00E94B21160E88AE00E945F
:1017F000CE0B60E081E00E94B2117501D12CC701CF
:101800008A199B098C159D0538F4F70161917F01B8
:1018100089E00E94B211F3CF6CE081E00E94B21126
:1018200060E88DE00E94CE0B60EDC62E67E0D62EFC
:1018300084E00E943C11E82EF1E0CF1AD10811F0AB
:101840008173B1F38DE00E943C11682F6F778DE0BA
:101850000E94B211CD2809F43EC086E00E943C11DE
:101860008B71C9F58E2D8170E82E8AE00E943C11A3
:10187000F82E8CE00E943C1187702F2D30E051F043
:101880002150310953E0220F331F5A95E1F7280FF9
:10189000311D05C043E0220F331F4A95E1F739831C
:1018A0002883FF2031F0E0E1EF1528F490E1F92ED4
:1018B00002C0FF24F3946801CF2DD0E0C601801B45
:1018C000910B8C179D0748F489E00E943C11F601AA
:1018D00081936F01F3CF82E0E82E8E2DDF91CF91BF
:1018E0001F910F91FF90EF90DF90CF90BF90AF903E
:1018F00008952F923F924F925F926F927F928F92B4
:101900009F92AF92BF92CF92DF92EF92FF920F938E
:101910001F93CF93DF93CDB7DEB7A4970FB6F8949C
:10192000DEBF0FBECDBF4B015C01F42E9B01AC01AD
:101930000E94AC1E882319F081E991E027C02401A0
:101940003501E89477F82FEF3FEF4FE75FE7C301EA
:10195000B2010E94AC1E81110DC02FEF3FEF4FE787
:101960005FE7C301B2010E94A91B18161CF485E9A8
:1019700091E00CC02FEF3FEF4FE75FE4C501B401EA
:101980000E944C1D18162CF489E991E00E94011167
:10199000B8C02FEF3FEF4FE75FECC501B4010E94E5
:1019A000A91B87FDF1CF20E030E0A901C501B401FA
:1019B0000E94A91B87FF0BC06DE28EE592E00E949A
:1019C000E0013C01B7FAB094B7F8B09402C0612CC2
:1019D000712C10E060E070E080E09FE3F11641F0D0
:1019E00020E030E040E251E40E94B31B1F5FF6CFDD
:1019F000A50194010E943D1B4B015C010E942C1C1F
:101A00006AA3C72ED82EE92E19A2262F372F482FCA
:101A1000592F8E010F5D1F4F0BA31CA39AE0292E97
:101A2000312C412C512CCA01B901A20191010E9413
:101A30000B1B605DF80162938F0121153105410593
:101A4000510589F7CF010E9401118301080F191F69
:101A5000FF2009F455C06AA17C2D8D2D9E2D0E947A
:101A60005B1C9B01AC01C501B4010E943C1B4B01F6
:101A70005C016EE28EE592E00E94E001080F191F02
:101A80008AE0282E312C412C512C20E030E040E21D
:101A900051E4C501B4010E94A11D4B015C010E94EB
:101AA0002C1C9B0140E050E019A2CBA0DCA0762EBC
:101AB0003AA3642EE52ECA01B901A20191010E9448
:101AC0000B1B605DF60162936F0121153105410525
:101AD000510589F7CF010E940111080F191F672DC9
:101AE0007AA1862D9E2D0E945B1C9B01AC01C50135
:101AF000B4010E943C1B4B015C01FA94F110C5CF6C
:101B0000C801A4960FB6F894DEBF0FBECDBFDF911B
:101B1000CF911F910F91FF90EF90DF90CF90BF90EA
:101B2000AF909F908F907F906F905F904F903F907D
:101B30002F900895CF93DF9342E00E94790CEC013F
:101B40008DE991E00E9401118C0F9D1FDF91CF91D3
:101B50000895CF93DF930E940111EC018DE991E08C
:101B60000E9401118C0F9D1FDF91CF9108951F934B
:101B7000CF93DF93182F493087E0580720F469305E
:101B800087E0780738F080E593E0DF91CF911F91EF
:101B90000C942E11CA019B01E8E4F0E0BF010E9401
:101BA000B11F89E1869FE001879FD00D1124C901F3
:101BB000BF010E94B11FC60FD71FCE010E94C31ADA
:101BC000181739F0612FCE01DF91CF911F910C943E
:101BD000CB1ADF91CF911F9108958EEA92E00E9477
:101BE000B9038823D1F36AE070E080E090E00E94BE
:101BF000FB048EEA92E00E94B903882371F38EEA17
:101C000092E00E94B9038111FACF6AE070E080E0AF
:101C100090E00E94FB048EEA92E00E94B9038111D9
:101C2000EECF089520914C02211103C08FEF9FEF5A
:101C300008955FB7F89422E02093E9002091F20024
:101C400030E01216130614F421E030E0422FFC01BC
:101C500084E6415038F0289880934B029091F1002F
:101C60009193F7CF2115310521F08091F20088235F
:101C700019F05FBFC90108958BE68093E800F9CFA2
:101C80002FB7F89483E08093E9009091E800892FC2
:101C9000807295FF04C09091F20080E4891B2FBFF1
:101CA00008951F920F920FB60F9211248F939F9356
:101CB0008091E1009091E100937F9093E10083FF98
:101CC0000FC01092E90091E09093EB001092EC00AD
:101CD00092E39093ED0010924C0298E09093F00004
:101CE00082FF20C093E09093E9009091F200992345
:101CF00019F09AE39093E80090914A02992339F001
:101D000090914A02915090934A02992389F19091BF
:101D10004B02992339F090914B02915090934B02D2
:101D2000992341F184FF10C08091E2008E7E816092
:101D30008093E2008091E1008F7E8093E1008091AA
:101D400049028E7E806111C080FF16C08091E20042
:101D50008E7E80618093E2008091E1008E7E809390
:101D6000E100809149028E7E81608093490204C027
:101D70005D9ACDCF289AD6CF9F918F910F900FBEAD
:101D80000F901F9018951F920F920FB60F9211246B
:101D9000CF92DF92EF92FF920F931F932F933F9377
:101DA0004F935F936F937F938F939F93AF93BF9363
:101DB000EF93FF93CF93DF93CDB7DEB76C97DEBF82
:101DC000CDBF1092E9008091E80083FFFBC168E07D
:101DD000CE0145960E941F0B82EF8093E8008D890B
:101DE00087FF05C09091E80090FFFCCF03C09EEFF5
:101DF0009093E800982F907609F0C6C09E894F898D
:101E0000588D2F89F88C91110CC0803829F480915D
:101E100048028093F10002C01092F1001092F1008C
:101E200045C1913051F4811141C14130510509F052
:101E30003DC1809148028D7F0BC0933061F48111C8
:101E400035C14130510509F031C1809148028260AD
:101E5000809348022BC1953049F48091E80080FFBF
:101E6000FCCF822F80688093E30020C1963009F078
:101E70005EC00B8D1C8D22E01092E900109247028B
:101E800010924602F21232C01092450210924402A1
:101E90000E949C0B99E0BE016F5F7F4FDB01E92F31
:101EA0001D92EA95E9F79983FA8291E09E8390EA80
:101EB00098879AEF99872091460230914702275FD1
:101EC0003F4F3C832B838D831092E9001092470291
:101ED00010924602109345020093440249E050E0FC
:101EE00080E00E94750B0E949C0BE0C0109345029D
:101EF000009344020E942C0BDC0112960D911C9160
:101F000013970115110509F4BBC0D801ED91FC919F
:101F10000480F581E02DBE016B5E7F4FC8010995FD
:101F2000009709F0C7C0F80100851185EACF973006
:101F300009F445C1983021F481E08093F100B6C0E6
:101F4000993009F0B3C0837009F039C1E2E3F1E0E0
:101F500081E031E096E32081211109C08EE7809372
:101F6000EA001092EA008F8980934C029FC0809310
:101F7000E9003093EB0021912093EC009093ED0069
:101F80008F5F873041F7EACF8B8D9C8D1092E900EF
:101F900010924702109246029093450280934402A9
:101FA000898D811153C08E899D89913A49F481327E
:101FB00009F005C147E050E065E271E080E0BBC098
:101FC000913209F0FCC0833269F48F89988DA0E0CA
:101FD000B0E08093210190932201A0932301B0935C
:101FE000240164C0803269F48091E80082FFFCCF54
:101FF00067E085E291E00E941F0B8BEF8093E80081
:1020000055C0823209F052C08F8980932C01EEEFC7
:10201000FFE7859194918B3F9C4D19F0E0E0F8E04B
:1020200002C0EEEFFAE08091250190912601A09187
:102030002701B0912801803B9440A105B10509F02A
:102040009EC080912C0180FF79C099C00E942C0B0A
:10205000FC01028113810115110509F4B0C0D801FA
:10206000ED91FC910190F081E02DBE016B5E7F4F00
:10207000C801099581111AC0F80100851185EBCFBF
:10208000F1E0FF1609F44EC0F3E0FF1298C08F890B
:10209000882309F44AC0823089F440E860E18FE384
:1020A00093E00E94400B882309F489C08EEF80934F
:1020B000E80088C018161906CCF381C0813029F4D5
:1020C00040E86BE083E393E0ECCF833009F077C026
:1020D0000E942C0BDC011296ED90FC9013978E0160
:1020E0000F5F1F4F6801E114F10479F0D701ED9102
:1020F000FC910680F781E02DB801C7010995080F12
:10210000111DF701E084F184EECFD8011C92F60195
:1021100001900020E9F73197BF016C197D0940E07B
:10212000C601BFCF61E273E002C06DE173E0FB0165
:10213000449150E080E80E94750BB8CFEE3F2AE052
:10214000F20751F0808191818737A7E79A0721F044
:102150009093FF0A8093FE0A87E797E79183808335
:1021600080916000809351029BE088E10FB6F89463
:10217000A895809360000FBE9093600097CF8081F8
:1021800091818737974709F091CFA895809160009A
:102190008861809360008091510280936000EE3FDF
:1021A000BAE0FB0739F08091FE0A9091FF0A918313
:1021B00080837CCF1092FF0A1092FE0A77CF81E2D3
:1021C0008093EB006C960FB6F894DEBF0FBECDBFC8
:1021D000DF91CF91FF91EF91BF91AF919F918F913F
:1021E0007F916F915F914F913F912F911F910F912F
:1021F000FF90EF90DF90CF900F900FBE0F901F9049
:102200001895009769F0FC0101900020E9F73197DB
:10221000AF01481B590BBC018EE592E00C946B0A90
:1022200080E090E008950F931F93CF93DF938C018C
:10223000C0E0D0E0F801EC0FFD1F6491662341F08F
:102240008EE592E00E94E001892B11F02196F2CFF9
:10225000CE01DF91CF911F910F910895CF93DF931E
:102260000E941311EC018DE991E00E9401118C0F85
:102270009D1FDF91CF910895CF93C82F60E080918B
:102280004F030E944E038C2F880F8E7780682B9A05
:102290002F9A29B12F9886FF02C02B9A01C02B9844
:1022A0002F9A29B12F9885FF02C02B9A01C02B9835
:1022B0002F9A29B12F9884FF02C02B9A01C02B9826
:1022C0002F9A29B12F9883FF02C02B9A01C02B9817
:1022D0002F9A29B12F9882FF02C02B9A01C02B9808
:1022E0002F9A99B12F9881FF02C02B9A01C02B9889
:1022F0002F9A89B12F982B982F9A89B12F982B98C4
:102300002F9A4E9B02C0C0E801C0C0E02F982B98C6
:102310002F9A4E99C0642F982B982F9A4E99C0628D
:102320002F982B982F9A4E99C0612F982B982F9AFF
:102330004E99C8602F982B982F9A4E99C4602F9869
:102340002B982F9A4E99C2602F982B982F9A4E99BE
:10235000C1602F9861E080914F030E944E038C2F43
:10236000CF910895CF93DF93C82FD62F60E080914F
:102370004F030E944E03CC0FCE778C2F90E02B980A
:102380002F9A29B12F989C0146E0359527954A95BB
:10239000E1F7232B11F02B9A01C02B982F9A29B12A
:1023A0002F9885FF02C02B9A01C02B982F9A29B134
:1023B0002F9884FF02C02B9A01C02B982F9A29B125
:1023C0002F9883FF02C02B9A01C02B982F9A29B116
:1023D0002F9882FF02C02B9A01C02B982F9A99B197
:1023E0002F9881FF02C02B9A01C02B982F9A89B198
:1023F0002F982B982F9A89B12F988D2F90E09C01C0
:10240000220F232F221F330B232B11F02B9A01C0F5
:102410002B982F9A29B12F9886FF02C02B9A01C0C2
:102420002B982F9A29B12F9885FF02C02B9A01C0B3
:102430002B982F9A29B12F9884FF02C02B9A01C0A4
:102440002B982F9A29B12F9883FF02C02B9A01C095
:102450002B982F9A29B12F9882FF02C02B9A01C086
:102460002B982F9A99B12F9881FF02C02B9A01C007
:102470002B982F9A89B12F98D0FF02C02B9A01C0B8
:102480002B982F9A89B12F9861E080914F03DF91AB
:10249000CF910C944E030F931F93CF93DF93EC01D6
:1024A000862F00E010E02FE733E40A831B832C83A0
:1024B0003D836883498361E00E947D0361E08981F7
:1024C0000E947D0360E088810E944E0360E0898164
:1024D000DF91CF911F910F910C944E03CF93DF9317
:1024E000CDB7DEB766970FB6F894DEBF0FBECDBF8F
:1024F000789484B5826084BD84B5816084BD85B5DF
:10250000826085BD85B5816085BD80916E008160EA
:1025100080936E0010928100809181008260809390
:102520008100809181008160809381008091800092
:1025300081608093800080919100826080939100FF
:1025400080919100816080939100809190008160E2
:10255000809390008091C10084608093C10080913D
:10256000C10082608093C1008091C100816080932E
:10257000C1008091C30081608093C3008091C0003E
:1025800082608093C0008091C20081608093C2000D
:1025900080917A00846080937A0080917A008260D2
:1025A00080937A0080917A00816080937A00809194
:1025B0007A00806880937A0010924C021092480250
:1025C000109249028091D70081608093D70080EA01
:1025D0008093D80089B5806189BD89B5826089BD45
:1025E00009B400FEFDCF61E070E080E090E00E9461
:1025F000FB048091D8008F7C80618093D80080910B
:10260000E000807F8093E0008091E1008E7E8093E7
:10261000E1008DE08093E200559A209A10922C02FE
:1026200010922D0210922E0210922F0210921A0276
:1026300010921B0210921C0210921D0210921602A0
:10264000109217021092180210921902109215029D
:10265000109214026E98729A60E08AE10E947D03E3
:1026600061E08AE10E944E03809168008E7F809332
:10267000680080916B00806180936B00D89A809194
:1026800068008160809368001092280210922902ED
:1026900010922A0210922B0210922402109225020C
:1026A000109226021092270210922002109221020C
:1026B000109222021092230210921F0210921E0208
:1026C00060E087E00E947D0360E087E10E947D0377
:1026D000EE9880916A00806180936A00E69AEE9A93
:1026E0001092900010929100109295001092940018
:1026F00080E792E0909399008093980080919100F8
:102700008860809391008091910084608093910013
:102710008091710082608093710080E090E0A8EC6D
:10272000B2E48093FC029093FD02A093FE02B0936A
:10273000FF028093C6029093C702A093C802B09391
:10274000C90289E393E00E9445088FE393E00E9469
:10275000450883E393E00E94450861E080915103BE
:102760000E944E036FE081E00E94B2116DE88AE2A0
:102770000E94B2116EE38BE20E94B2116EE18DE213
:102780000E94B21160E08CE20E94B21160E485E127
:102790000E94B2116DE381E10E94B21184E10E94B6
:1027A0003C11837021F463E084E10E94CE0B82E14E
:1027B0000E94D004BC01990F880B990B611571051B
:1027C0008105910511F00E94BA1A8FEF9FEF909347
:1027D0006B0280936A0268EE73E080E090E00E94F2
:1027E000FB0482E691E00E94A90D0E94ED0D8EE6A9
:1027F00091E00E94A90D00E010E0E12CF12CC7014E
:10280000800F911F0E94C31A682F8EE592E00E94EC
:10281000E00182E791E00E9401112FEFE21AF20A33
:1028200089E1E816F10459F78FE991E00E94A90DBA
:10283000075E1F4F013722E01207F9F60E94ED0DE7
:1028400084E791E00E94A90D00E010E0E12CF12C5A
:102850006701C00ED11EC6010E94C31A833221F047
:1028600063E2C6010E94CB1A8FEFE81AF80A29E149
:10287000E216F10469F7075E1F4F013782E018077F
:1028800029F7109218031092190310921A0310924C
:102890001B0310921C0310921D0310921E03109232
:1028A0001F030E94350560932003709321038093DA
:1028B0002203909323031092E2021092E3021092FB
:1028C000E4021092E5021092E6021092E7021092E2
:1028D000E8021092E9020E9435056093EA027093C3
:1028E000EB028093EC029093ED0280E090E0A0EA8E
:1028F000B0E48093340290933502A0933602B093F3
:1029000037028093300290933102A0933202B09349
:10291000330290E0292E90E0392E11E000E2809100
:102920002C0290912D02A0912E02B0912F02C09006
:102930001401D0901501E0901601F0901701BC0130
:10294000CD016C197D098E099F090E945D1C2BEA3F
:1029500031E64CE15EE30E94A11D4B015C018091D8
:10296000280290912902A0912A02B0912B02C090D6
:102970001801D0901901E0901A01F0901B01BC01E0
:10298000CD016C197D098E099F090E945D1C2BEAFF
:1029900031E64CE15EE30E94A11D6B8B7C8B8D8B3D
:1029A0009E8B9B01AC01C501B4010E943D1B20E040
:1029B00030E040E05FE30E94A11D2B013C018091CB
:1029C0002C0290912D02A0912E02B0912F028093A3
:1029D000140190931501A0931601B09317018091F3
:1029E000280290912902A0912A02B0912B02809393
:1029F000180190931901A0931A01B0931B01C09084
:102A00000801D0900901E0900A01F0900B01C70184
:102A1000B6010E94AE1B9B01AC01C301B2010E9432
:102A2000A11D9B01AC016091000170910101809199
:102A30000201909103010E943D1B6093000170937D
:102A400001018093020190930301C701B6010E9426
:102A50005E1E9B01AC01C301B2010E94A11D9B013E
:102A6000AC01609104017091050180910601909183
:102A700007010E943D1B6093040170930501809340
:102A80000601909307012B893C894D895E89C50118
:102A9000B4010E943C1B20E030E04CE053E40E9473
:102AA000B31B4B015C019B01AC01C701B6010E9445
:102AB0003C1B609308017093090180930A01909375
:102AC0000B010E943505C0901D01D0901E01E090C1
:102AD0001F01F09020016C197D098E099F090E9449
:102AE0005B1C6B017C010E94350560931D01709396
:102AF0001E0180931F0190932001C501B4019058DD
:102B0000A70196010E94B31B6093100170931101FD
:102B10008093120190931301C0900801D090090195
:102B2000E0900A01F0900B012BED3FE049E450E406
:102B3000C701B6010E944C1D18164CF42BED3FE066
:102B400049EC50E4C701B6010E943C1B12C02BEDBA
:102B50003FE049E450ECC701B6010E94A91B87FF82
:102B600010C02BED3FE049EC50E4C701B6010E94D4
:102B70003D1B609308017093090180930A019093B3
:102B80000B018091080190910901A0910A01B09177
:102B90000B0180930C0190930D01A0930E01B09353
:102BA0000F0180911C01882391F187ED92E00E9432
:102BB00013116091000170910101809102019091C7
:102BC000030142E00E94790C82ED92E00E94131111
:102BD00060910401709105018091060190910701B7
:102BE00042E00E94790C8DEC92E00E94131120EEDD
:102BF0003EE245E652E4609108017091090180913E
:102C00000A0190910B010E94A11D0E949A0D8091D2
:102C10003C0281110CC00E9435056093380270930C
:102C2000390280933A0290933B0210933C028091C8
:102C300032030E94D004833C91403CF4412C512C3F
:102C400080EA682E80E4782E03C0412C512C32019A
:102C50000E943505C0903802D0903902E0903A02C7
:102C6000F0903B02DC01CB018C199D09AE09BF0934
:102C7000853F9140A105B10508F497C00E94350534
:102C8000609338027093390280933A0290933B022A
:102C90000E946C1A20ED37E040E050E00E94D91A03
:102CA000685E7340810991090E945D1C2FE632E144
:102CB00043E85AE30E94A11D6B017C010E946C1A3B
:102CC00020ED37E040E050E00E94D91A685E734082
:102CD000810991090E945D1C2FE632E143E85AE325
:102CE0000E94A11D4B015C01A7019601C701B6011D
:102CF0000E94A11D6B8B7C8B8D8B9E8BA5019401FB
:102D0000C501B4010E94A11D9B01AC016B897C89A6
:102D10008D899E890E943D1B4B015C0120E030E0C3
:102D200040E85FE30E944C1D87FFB2CFC501B401AC
:102D30000E94591D20E030E040E050EC0E94A11DAF
:102D4000A50194010E94B31B0E946C1E9B01AC0163
:102D5000C701B6010E94A11D20E030E040ED50E423
:102D60000E94A11D20E030E0A9010E943D1B6B01E3
:102D70007C019B01AC01C301B2010E943D1B609329
:102D80003402709335028093360290933702A70184
:102D90009601C301B2010E943C1B60933002709304
:102DA00031028093320290933302809132030E9469
:102DB000D004BC01990F880B990B0E945D1C22E581
:102DC00039E44DE95BE30E94A11D2EEA37E448E9AE
:102DD00052E40E94B31B2EE63BED46EB5FEB0E94F4
:102DE0000E1E6B017C0120E030E048EC53E40E94B1
:102DF000A91B87FF53C020E030E040EF52E4C70139
:102E0000B6010E944C1D18160CF048C020E030E0BE
:102E100040EA52E4C701B6010E943D1B6B017C01F0
:102E20008090080190900901A0900A01B0900B01D8
:102E3000C501B4010E94AE1B2B013C01C501B401C8
:102E40000E945E1E4B015C01A3019201C701B60105
:102E50000E94A11D209100013091010140910201C9
:102E6000509103010E943D1B0E94251C2B013C0137
:102E7000A5019401C701B6010E94A11D2091040182
:102E80003091050140910601509107010E943D1BC0
:102E90000E94251CA2018FE40E94B70D67E08DE01F
:102EA0000E94B21186E289839E012F5E3F4FAE01E0
:102EB0004F5F5F4F61E0CA010E94DB0B81112DC0A3
:102EC00089899A89409749F560E08DE00E94B211A6
:102ED00023E929830A839E012F5E3F4FAE014F5F96
:102EE0005F4F62E0CA010E94DB0B81110AC02A8198
:102EF000998192272B8192272C8192272D819213E1
:102F000082E095E0FE013196A5E4B3E001900D92D8
:102F10009A95E1F7882309F477C080913D030E94D8
:102F2000D004BC01990F880B990B0E945D1C209165
:102F3000390330913A0340913B0350913C030E9486
:102F40003C1B6B017C01809143030E94D004BC01B7
:102F5000990F880B990B0E945D1C20913F033091C3
:102F6000400340914103509142030E943C1BA70142
:102F700096010E943D1B6B017C01809137030E94EA
:102F8000D004BC01990F880B990B0E945D1C209105
:102F900033033091340340913503509136030E943E
:102FA0003C1BA70196010E943D1B20E030E046E952
:102FB00053E40E944C1D1816D4F4609100017091E6
:102FC000010180910201909103010E94251C6B0177
:102FD0007C0160910401709105018091060190913E
:102FE00007010E94251CA6018CE40E94B70D62E037
:102FF00070E080E090E00E94FB042114310409F4A9
:103000008ECC0E9400008ACC609100017091010179
:1030100080910201909103010E94251C6B017C01AB
:103020006091040170910501809106019091070162
:103030000E94251CA60182E50E94B70D6ECF4F921B
:103040005F926F927F928F929F92AF92BF92CF9238
:10305000DF92EF92FF92CF93DF93EEE5F2E01382DF
:10306000128288EE93E0A0E0B0E084839583A6838B
:10307000B7832CE331E0318320832FEF3FEF358797
:103080002487E3E5F3E01382128284839583A68389
:10309000B7838EE491E09183808356985E985E9822
:1030A000239A2B9A279A2F98C5E4D3E084E090E0E6
:1030B0009B878A8761E00E947D0360E08A850E9489
:1030C0004E0361E085E00E947D0361E085E00E949F
:1030D0004E0385E090E09D878C87EFE3F3E010825C
:1030E00011821282138286E190E09583848360E0EE
:1030F0000E947D03E9E3F3E01082118212821382C1
:1031000085E190E09583848360E00E947D03E3E3A2
:10311000F3E0108211821282138284E190E09583A1
:10312000848360E00E947D0382E180933203E6EDB8
:10313000F3E081E090E096878587118A108A128AF1
:10314000138A148A158A168A178A108E118E128E87
:10315000138E148E158E168E178E10A211A212A227
:1031600013A214A215A216A217A210A611A612A6A7
:1031700043E25BED69E77DE343A754A765A776A724
:1031800040E050E06CE071E447A750AB61AB72AB3C
:1031900013AA14AA15AA16AA17AA10AE11AE12AE37
:1031A00013AE14AE15AE16AEE5E9F3E09087878353
:1031B000138612861486158616861786108A118A3B
:1031C000128A138A148A158A168A178A108E8AE739
:1031D00091E4A9E1B9E3818F928FA38FB48F8FEF30
:1031E0009FE7968F858F90A3878F92A381A380E01E
:1031F00090E894A383A396A385A390A787A311A681
:1032000012A613A614A615A616A617A610AA11AAEA
:1032100012AA13AA14AA15AA16AA17AA10AE11AEBA
:1032200012AE13AE14AE1092D2031092D3031092CA
:10323000D4031092D50340E16AE08CE293E00E944F
:103240004B124FE069E086E293E00E944B12C0EF20
:10325000D2E0C12CD12C8FE7E82E83E4F82ECC8667
:10326000DD86EE86FF86188A198A1A8A1B8A1C8ACE
:103270001D8A1E8A1F8A188E198E1A8E1B8E1C8E0E
:103280001D8E1E8E1F8E18A219A21AA21BA21CA28E
:103290001DA21EA21FA218A619A61AA61BA61CA62E
:1032A0001DA61EA61FA618AA19AA1AAA1BAA1CAAFE
:1032B0001DAA412C512C90E6692E90E4792E48826B
:1032C00059826A827B8223E3822E982C27EAA22EDF
:1032D00021E4B22E88869986AA86BB868AE097ED7D
:1032E000A3E2BDE38C839D83AE83BF830E9435053B
:1032F00068AB79AB8AAB9BABCAEBD2E0CC86DD8600
:10330000EE86FF86188A198A1A8A1B8A1C8A1D8AE9
:103310001E8A1F8A188E198E1A8E1B8E1C8E1D8E69
:103320001E8E1F8E18A219A21AA21BA21CA21DA2D9
:103330001EA21FA218A619A61AA61BA61CA61DA689
:103340001EA61FA618AA19AA1AAA1BAA1CAA1DAA59
:10335000488259826A827B8288869986AA86BB8641
:103360008AE097EDA3E2BDE38C839D83AE83BF83A8
:103370000E94350568AB79AB8AAB9BABCFE5D3E058
:10338000CC86DD86EE86FF86188A198A1A8A1B8A01
:103390001C8A1D8A1E8A1F8A188E198E1A8E1B8EF1
:1033A0001C8E1D8E1E8E1F8E18A219A21AA21BA281
:1033B0001CA21DA21EA21FA218A619A61AA61BA611
:1033C0001CA61DA61EA61FA618AA19AA1AAA1BAAE1
:1033D0001CAA1DAA80E090E0A0ECBFE3888399833B
:1033E000AA83BB83188619861A861B868FE692E10C
:1033F000A3E8BAE38C839D83AE83BF830E94350527
:1034000068AB79AB8AAB9BABEEEAF2E01282158235
:1034100080E691E09183808310868EE1818781E050
:1034200082878387DF91CF91FF90EF90DF90CF90DD
:10343000BF90AF909F908F907F906F905F904F90D4
:1034400008958F929F92AF92BF92CF92DF92EF92A8
:10345000FF92CF93DF93EC01688179818A819B8110
:10346000611571058105910521F464E279ED8BE523
:1034700097E02DE133EF41E050E00E94D91A490175
:103480005A019B01AC01A7EAB1E40E94F81A6B0152
:103490007C01ACEEB4EFA50194010E94061BDC0197
:1034A000CB018C0D9D1DAE1DBF1DB7FF03C0019745
:1034B000A109B04888839983AA83BB83BC01CD014D
:1034C0009F77DF91CF91FF90EF90DF90CF90BF90EB
:1034D000AF909F908F9008958F929F92AF92BF92DE
:1034E000CF92DF92EF92FF9260912D0170912E01A9
:1034F00080912F0190913001611571058105910531
:1035000021F464E279ED8BE597E02DE133EF41E0C2
:1035100050E00E94D91A49015A019B01AC01A7EA67
:10352000B1E40E94F81A6B017C01ACEEB4EFA50186
:1035300094010E94061BDC01CB018C0D9D1DAE1D6C
:10354000BF1DB7FF03C00197A109B04880932D01AB
:1035500090932E01A0932F01B0933001BC01CD01B7
:103560009F77FF90EF90DF90CF90BF90AF909F90AC
:103570008F90089560932D0170932E0180932F01F9
:10358000909330010895F999FECF92BD81BDF89ACC
:10359000992780B50895262FF999FECF1FBA92BDBD
:1035A00081BD20BD0FB6F894FA9AF99A0FBE019624
:1035B0000895052E97FB1EF400940E94F01A57FD03
:1035C00007D00E940B1B07FC03D04EF40C94F01A9A
:1035D00050954095309521953F4F4F4F5F4F08953F
:1035E00090958095709561957F4F8F4F9F4F08956F
:1035F0000E942D1BA59F900DB49F900DA49F800D40
:10360000911D11240895B7FF0C94F81A0E94F81A1E
:10361000821B930B0895A1E21A2EAA1BBB1BFD016E
:103620000DC0AA1FBB1FEE1FFF1FA217B307E407A1
:10363000F50720F0A21BB30BE40BF50B661F771FF9
:10364000881F991F1A9469F76095709580959095D9
:103650009B01AC01BD01CF010895A29FB001B39FB2
:10366000C001A39F700D811D1124911DB29F700D8B
:10367000811D1124911D08955058BB27AA270E942F
:10368000541B0C94FE1C0E94C51C38F00E94CC1CDC
:1036900020F039F49F3F19F426F40C94C21C0EF468
:1036A000E095E7FB0C94BC1CE92F0E94231D58F306
:1036B000BA17620773078407950720F079F4A6F517
:1036C0000C94451D0EF4E0950B2EBA2FA02D0B0186
:1036D000B90190010C01CA01A0011124FF27591B57
:1036E00099F0593F50F4503E68F11A16F040A22F5D
:1036F000232F342F4427585FF3CF469537952795CE
:10370000A795F0405395C9F77EF41F16BA0B620BCC
:10371000730B840BBAF09150A1F0FF0FBB1F661F13
:10372000771F881FC2F70EC0BA0F621F731F841F56
:1037300048F4879577956795B795F7959E3F08F07C
:10374000B0CF9395880F08F09927EE0F979587953E
:1037500008950E94981C08F481E008950E94D51CE9
:10376000E3950C940F1D0E94C71B0C94FE1C0E9435
:10377000CC1C58F00E94C51C40F029F45F3F29F092
:103780000C94BC1C51110C94461D0C94C21C0E943C
:10379000231D68F39923B1F3552391F3951B550B22
:1037A000BB27AA2762177307840738F09F5F5F4F14
:1037B000220F331F441FAA1FA9F335D00E2E3AF053
:1037C000E0E832D091505040E695001CCAF72BD06B
:1037D000FE2F29D0660F771F881FBB1F26173707BC
:1037E0004807AB07B0E809F0BB0B802DBF01FF27EE
:1037F00093585F4F3AF09E3F510578F00C94BC1CF3
:103800000C94461D5F3FE4F3983ED4F3869577957C
:103810006795B795F7959F5FC9F7880F911D9695A6
:10382000879597F90895E1E0660F771F881FBB1F02
:10383000621773078407BA0720F0621B730B840BAF
:10384000BA0BEE1F88F7E09508950E942C1C68942F
:10385000B1110C94461D08950E942B1D88F09F57AE
:1038600098F0B92F9927B751B0F0E1F0660F771FA4
:10387000881F991F1AF0BA95C9F714C0B13091F09A
:103880000E94451DB1E008950C94451D672F782FC7
:103890008827B85F39F0B93FCCF38695779567955F
:1038A000B395D9F73EF490958095709561957F4FCB
:1038B0008F4F9F4F0895E89409C097FB3EF4909571
:1038C0008095709561957F4F8F4F9F4F9923A9F0F9
:1038D000F92F96E9BB279395F69587957795679588
:1038E000B795F111F8CFFAF4BB0F11F460FF1BC0CC
:1038F0006F5F7F4F8F4F9F4F16C0882311F096E95F
:1039000011C0772321F09EE8872F762F05C066230C
:1039100071F096E8862F70E060E02AF09A95660FC5
:10392000771F881FDAF7880F9695879597F908957E
:10393000990F0008550FAA0BE0E8FEEF16161706C0
:10394000E807F907C0F012161306E407F50798F028
:10395000621B730B840B950B39F40A2661F0232B41
:10396000242B252B21F408950A2609F4A140A695BD
:103970008FEF811D811D089597F99F6780E870E0A2
:1039800060E008959FEF80EC089500240A941616D5
:10399000170618060906089500240A94121613063D
:1039A0001406050608950C94C21C0E942B1DD8F322
:1039B000E894E0E0BB279F57F0F02AED3FE049ECA8
:1039C00006C0EE0FBB0F661F771F881F28F0B23AA4
:1039D00062077307840728F0B25A620B730B840BDB
:1039E000E3959A9572F7803830F49A95BB0F661F6D
:1039F000771F881FD2F790480C94ED1E092E039470
:103A0000000C11F4882352F0BB0F40F4BF2B11F4CB
:103A100060FF04C06F5F7F4F8F4F9F4F0895EF93FC
:103A2000E0FF07C0A2EA2AED3FE049EC5FEB0E940D
:103A3000541B0E94FE1C0F90039401FC9058E0E27E
:103A4000F1E00C94271F57FD9058440F551F59F073
:103A50005F3F71F04795880F97FB991F61F09F3F7B
:103A600079F087950895121613061406551FF2CFA4
:103A70004695F1DF08C0161617061806991FF1CFF4
:103A800086957105610508940895E894BB2766271B
:103A90007727CB0197F908950E94981C08F48FEFBF
:103AA000089516F00C94EB1E0C94C21C68940C94B0
:103AB000BC1C0E942B1DA8F39923C1F3AEF3DF9326
:103AC000CF931F930F93FF92C92FDD2788232AF0EE
:103AD0002197660F771F881FDAF720E030E040E873
:103AE0005FEB9FE3883920F0803E38F021968F7796
:103AF0000E943D1BEEE3F1E004C00E943D1BEBE69B
:103B0000F1E00E94001F8B01BE01EC01FB2E6F57FC
:103B100071097595771F880B990B0E945D1C28E130
:103B200032E741E35FE30E94B41DAF2D9801AE017F
:103B3000FF900F911F91CF91DF910E94541B0C9425
:103B4000FE1C0E94B41D0C94FE1C0E94C51C38F083
:103B50000E94CC1C20F0952311F00C94BC1C0C94FA
:103B6000C21C11240C94461D0E94231D70F3959FC6
:103B7000C1F3950F50E0551F629FF001729FBB2764
:103B8000F00DB11D639FAA27F00DB11DAA1F649F00
:103B90006627B00DA11D661F829F2227B00DA11DB3
:103BA000621F739FB00DA11D621F839FA00D611D39
:103BB000221F749F3327A00D611D231F849F600D5A
:103BC000211D822F762F6A2F11249F5750409AF083
:103BD000F1F088234AF0EE0FFF1FBB1F661F771F0F
:103BE000881F91505040A9F79E3F510580F00C94DA
:103BF000BC1C0C94461D5F3FE4F3983ED4F38695BD
:103C000077956795B795F795E7959F5FC1F7FE2B79
:103C1000880F911D9695879597F90895FA01EE0FF3
:103C2000FF1F309621053105A1F16115710561F481
:103C30008038BFE39B0749F168949038810561F0B3
:103C40008038BFEF9B0741F099234AF5FF3FE1051C
:103C50003105210519F1E8940894E795D901AA23C3
:103C600029F4AB2FBE2FF85FD0F310C0FF5F70F4C4
:103C7000A695E0F7F73950F019F0FF3A38F49F773E
:103C80009F930DD00F9007FC9058089546F00C9428
:103C9000C21C60E070E080E89FE308954FE79F77E3
:103CA0005F934F933F932F930E94591D2F913F9104
:103CB0004F915F910E94A11D0C94B91E9F930E9489
:103CC000D51C0F9007FCEE5F0C940F1D19F416F431
:103CD0000C94C21C0C94EB1E0E942B1DB8F399236C
:103CE000C9F3B6F39F57550B87FF0E94F91E0024B6
:103CF000A0E640EA900180585695979528F4805C9C
:103D0000660F771F881F20F026173707480730F403
:103D1000621B730B840B202931294A2BA69517941B
:103D20000794202531254A2758F7660F771F881FEB
:103D300020F026173707480730F4620B730B840B0B
:103D4000200D311D411DA09581F7B901842F915897
:103D5000880F9695879508950E94981C880B990B5B
:103D6000089529F416F00C94BC1C0C94451D0C9479
:103D7000C21C0E942B1DA8F39638A0F707F80F92DB
:103D8000E8942BE33AEA48EB5FE70E94B71D0F92F5
:103D90000F920F924DB75EB70F920E947D1FE8E918
:103DA000F1E00E94001F4F915F91EF91FF91E59527
:103DB000EE1FFF1F49F0FE57E0684427EE0F441F37
:103DC000FA95E1F74195550B0E94471F0F9007FEAA
:103DD0000C943B1F08959F3F31F0915020F487953C
:103DE00077956795B795880F911D9695879597F963
:103DF000089591505040660F771F881FD2F708959D
:103E0000DF93CF931F930F93FF92EF92DF927B018B
:103E10008C01689406C0DA2EEF010E94B41DFE01E9
:103E2000E894A5912591359145915591A6F3EF011F
:103E30000E94541BFE019701A801DA9469F7DF90F4
:103E4000EF90FF900F911F91CF91DF9108959F9375
:103E50008F937F936F93FF93EF939B01AC010E942D
:103E6000A11DEF91FF910E94001F2F913F914F9153
:103E70005F910C94A11D9B01AC0160E070E080E8B3
:103E80009FE30C94B31B0C94BC1C0C94EB1E0E947F
:103E90002B1DD8F39923C9F3940F511DA3F391500F
:103EA000504094F059F0882332F0660F771F881F36
:103EB00091505040C1F79E3F51052CF7880F911D3E
:103EC0009695879597F908955F3FACF0983E9CF0E2
:103ED000BB27869577956795B79508F4B16093955C
:103EE000C1F7BB0F58F711F460FFE8CF6F5F7F4F4A
:103EF0008F4F9F4FE3CF0C94461DFA01DC01AA0FB0
:103F0000BB1F9B01AC01BF5728F42227332744274E
:103F1000507820C0B75190F4AB2F002446953795C8
:103F20002795011CA395D2F3002071F0220F331FB7
:103F3000441FB395DAF30ED00C943C1B613071052D
:103F4000A0E88A07B94630F49B01AC0166277727C1
:103F500088279078309621F02083318342835383E1
:103F6000089597FB072E16F4009407D077FD09D02B
:103F70000E94CB1F07FC05D03EF4909581959F4F82
:103F80000895709561957F4F0895EE0FFF1F05907E
:103F9000F491E02D0994AA1BBB1B51E107C0AA1F95
:103FA000BB1FA617B70710F0A61BB70B881F991FDA
:103FB0005A95A9F780959095BC01CD01089581E0AF
:0C3FC00090E0F8940C94E41FF894FFCFFC
:103FCC00000061440000614400000000000000009B
:103FDC0000000000000000000000000000000000D5
:103FEC0000FFFFFFFF00E1000000000000010000E7
:103FFC000000C1808100000000000000E0016B0A9D
:10400C000603F60101022E030A0300000000F10270
:10401C00E6020303D802DF02DC02D9020000000032
:10402C00B903426F617264205265736574004D610F
:10403C00700020004D617020457261736564202D05
:10404C00204D617070696E67205374617274656481
:10405C00006E616E00696E66006F7666000D0A0078
:00000001FF
