:100000000C9468010C9490010C9490010C94900154
:100010000C9490010C9490010C9490010C94990A0A
:100020000C9490010C942C0A0C94CE0C0C94400D62
:100030000C9490010C9490010C9490010C949001FC
:100040000C9490010C9490010C9490010C949001EC
:100050000C9490010C9490010C9490010C947108F4
:100060000C9490010C9490010C9490010C949001CC
:100070000C9490010C9490010C9490010C949001BC
:100080000C94090B0C9490010C9490010C94900129
:100090000C94BB080C9490010C9490010C9490016A
:1000A0000C9490010C9490010C949001E501E801EE
:1000B000D701DB01E101090209020902EC01F001AB
:1000C000F401FA01FE01090204026A076F077407CE
:1000D0007E078807D207D207D20792079C07A60798
:1000E000B007BD07D207C507640A700A830A700A01
:1000F000830A830A640A640A830A830A700A830AE9
:10010000700A640AD40AE00AF30AE00AF30AF30A5E
:10011000D40AD40AF30AF30AE00AF30AE00AD40A7A
:1001200005A84CCDB2D44EB93836A9020C50B991BD
:100130008688083CA6AAAA2ABE000000803F205458
:100140006F74616C3A200020496E74656772616C4F
:1001500020636F6D706F6E656E743A200020446985
:1001600066666572656E7469616C20636F6D706F31
:100170006E656E743A20002050726F706F727469F1
:100180006F6E616C20636F6D706F6E656E743A2078
:1001900000204572726F7220496E74656772616CDF
:1001A0003A00204572726F722044656C74613A00A7
:1001B0004572726F723A2000070605040100080AB2
:1001C0000B0C0D0900000000240027002A002D0060
:1001D000300000000000250028002B002E00310018
:1001E000000000002300260029002C002F0004043A
:1001F00004040403040502020202040302020202D0
:1002000006060606060604040202020404040802A6
:10021000011040804010204080408008020401808E
:1002200040201002011080102040402000000002F9
:1002300000090F0000030401000C00000000000092
:100240000000000000000000000000080B00020297
:100250000201000904000001020200000524001050
:1002600001052401010104240206052406000107FA
:1002700005810310004009040100020A0000000784
:100280000502024000000705830240000004030944
:100290000412010002EF02014041233680000101F7
:1002A00002030141726475696E6F204C4C4300413A
:1002B000726475696E6F204C656F6E6172646F0059
:1002C00020483A200020593A2000583A200059147A
:1002D00011241FBECFEFDAE0DEBFCDBF11E0A0E0FA
:1002E000B1E0E0EDF5E302C005900D92AE3AB10742
:1002F000D9F724E0AEEAB1E001C01D92A338B207FD
:10030000E1F711E0C8E6D1E004C02197FE010E94A8
:10031000DB1AC736D107C9F70E94A2120C94E61A5D
:100320000C940000CF93DF931F92CDB7DEB76983A3
:10033000DC01ED91FC910280F381E02D41E050E081
:10034000BE016F5F7F4F09950F90DF91CF910895A8
:1003500083E08093E9008091F200882319F08AE31A
:100360008093E8000895FC018485958597FD0BC076
:100370009FB7F89482E08093E9008091F2009FBFDC
:1003800090E0019608959FB7F89482E08093E90089
:100390008091F2009FBF90E0089590E0FC013197BA
:1003A000EF30F105B0F5EA5AFF4F0C94DB1A80915B
:1003B00080008F7703C0809180008F7D80938000C4
:1003C000089580918000877FF9CF84B58F7702C030
:1003D00084B58F7D84BD0895809190008F7707C08C
:1003E000809190008F7D03C080919000877F8093E3
:1003F000900008958091C0008F7703C08091C00065
:100400008F7D8093C00008958091C200877F809384
:10041000C2000895CF93DF93282F30E0F901E45D07
:10042000FD4F8491F901E35FFD4FD491F901E25151
:10043000FE4FC491CC2391F081110E94CD01EC2F8D
:10044000F0E0EE0FFF1FE052FE4FA591B491EC914A
:10045000ED2381E090E021F480E002C080E090E0B4
:10046000DF91CF9108953FB7F89480912C0290913D
:100470002D02A0912E02B0912F0226B5A89B05C097
:100480002F3F19F00196A11DB11D3FBFBA2FA92F13
:10049000982F8827820F911DA11DB11DBC01CD0190
:1004A00042E0660F771F881F991F4A95D1F708957C
:1004B00085ED8093BC008091BC0084FDFCCF109240
:1004C000050208954091E101262F30E0240F311DEF
:1004D00021323105DCF4209105022430C9F4FC01FD
:1004E00080E090E0861758F43091E1012191DC0121
:1004F000AF53BE4FA30FB11D2C930196F3CF809144
:10050000E101680F6093E10180E0089581E00895C2
:1005100082E0089508958FEF9FEF08958FEF9FEF8A
:1005200008958091C00190E0919581959109089579
:10053000CF93DF93CB01EA01642F0E946202CE01C8
:10054000DF91CF910895CF93DF931F92CDB7DEB7A0
:10055000698361E0CE0101960E94620281E090E031
:100560000F90DF91CF910895089580E090E0089575
:100570000E94FD1090E008950F931F93CF93DF9397
:100580001F92CDB7DEB78C01FC018485958597FF5E
:100590000EC0CE0101960E94CF10019719F48981F7
:1005A00090E002C08FEF9FEFF80195878487F801F4
:1005B000848595850F90DF91CF911F910F910895BC
:1005C000CF93DF931F92CDB7DEB7FC01848595856D
:1005D00097FD05C02FEF3FEF358724870BC0CE0175
:1005E00001960E94CF10019719F4898190E002C012
:1005F0008FEF9FEF0F90DF91CF9108950E94E11A46
:100600002F923F924F925F926F927F928F929F9222
:10061000AF92BF92CF92DF92EF92FF920F931F9310
:10062000CF93DF93CDB7DEB72A970FB6F894DEBF2E
:100630000FBECDBF9A87898749835A836B837C839A
:10064000480159018FB7F894C090EB02D090EC02AA
:10065000E090ED02F090EE028FBFE985FA8580A967
:1006600091A9A2A9B3A9A7019601281B390B4A0B8E
:100670005B0BCA01B9010E9424192B013C01A98519
:10068000BA85D096CD92DD92ED92FC92D397A501DA
:10069000940169817A818B819C810E9403186B018E
:1006A0007C019B01AC01E985FA8560A571A582A555
:1006B00093A50E940318A30192010E947A186D83EA
:1006C0007E838F83988729813A814B815C81A985BC
:1006D000BA8590962D933D934D935C939397FD012E
:1006E00084A295A2A6A2B7A29896CD92DD92ED9291
:1006F000FC929B97A7019601C301B2010E94181AB0
:10070000E985FA8524A535A546A557A50E940418B4
:100710002B013C01A985BA859C966D937D938D93A1
:100720009C939F972D913D914D915C91C701B6018E
:100730000E94181A4B015C01E985FA85608B718B68
:10074000828B938B20853185428553856D817E8197
:100750008F8198850E94181A69837A838B839C8382
:10076000A985BA8558966D937D938D939C935B97DD
:1007700014962D913D914D915C911797C301B20153
:100780000E94181A2B013C01E985FA85648B758B50
:10079000868B978B29813A814B815C81C501B4019D
:1007A0000E940418A30192010E940418162F072F1B
:1007B000382E292EA985BA851C968D909D90AD90D6
:1007C000BC901F972401350177FA709477F87094E4
:1007D000A30192010E94701887FD11C0A501940128
:1007E000612F702F832D922D0E94131A18164CF032
:1007F000812F902FA32DB22D4C015D0102C053011A
:100800004201E985FA85848E958EA68EB78E84A9DD
:10081000882309F45AC080EB91E00E94641242E000
:10082000C701B6010E94341182EA91E00E9464126D
:1008300042E06D817E818F8198850E94341181E92B
:1008400091E00E946412A985BA859C966D917D9174
:100850008D919C919F9742E00E94341187E791E02F
:100860000E946412E985FA85608971898289938979
:1008700042E00E9434118DE591E00E946412A98546
:10088000BA8558966D917D918D919C915B9742E0D0
:100890000E94341187E491E00E946412E985FA8590
:1008A000648975898689978942E00E9434118EE3B4
:1008B00091E00E946412A985BA855C966D917D9144
:1008C0008D919C915F970E945512E985FA8585A9C3
:1008D000882361F020A131A142A153A164A175A197
:1008E00086A197A10E947A180E945512A985BA85FF
:1008F0005C966D917D918D919C915F972A960FB634
:10090000F894DEBF0FBECDBFDF91CF911F910F9145
:10091000FF90EF90DF90CF90BF90AF909F908F901F
:100920007F906F905F904F903F902F9008950F931E
:100930001F93CF93DF9381E491E00E94AA0FC1E956
:10094000D3E06C897D898E899F890E9424198B014F
:100950009C0140E050E0BA018DE393E00E94000367
:100960006093BC017093BD018093BE019093BF0161
:10097000688D798D8A8D9B8D0E9424198B019C0135
:1009800040E050E0BA0187E093E00E9400036093EA
:10099000B8017093B9018093BA019093BB01DF91C4
:1009A000CF911F910F91089583E591E00E94AA0FC6
:1009B0000C947E0F4F925F926F927F928F929F92D4
:1009C000AF92BF92CF92DF92EF92FF920F931F935D
:1009D000CF93DF9300D000D0CDB7DEB7C090F10247
:1009E000D090F202E090F302F090F4028091B40112
:1009F0009091B501A091B601B091B7014091F1027B
:100A00005091F2026091F3027091F4024093B401AC
:100A10005093B5016093B6017093B701C81AD90A13
:100A2000EA0AFB0A4091F7025091F8026091F9023C
:100A30007091FA028091B0019091B101A091B20140
:100A4000B091B3018090F7029090F802A090F90263
:100A5000B090FA028092B0019092B101A092B201DE
:100A6000B092B3018A019B01081B190B2A0B3B0BA7
:100A700009831A832B833C83B8016C0D7D1D072EDF
:100A8000000C880B990B0E9424192BEA31E64CE1EB
:100A90005EE30E94181A2B013C018090990390900C
:100AA0009A03A0909B03B0909C03C501B4010E94DF
:100AB00075189B01AC01C301B2010E94181A20E015
:100AC00030E040E05FE30E94181A9B01AC016091A6
:100AD00091037091920380919303909194030E94EB
:100AE00004186093910370939203809393039093FF
:100AF0009403C501B4010E94851A9B01AC01C30196
:100B0000B2010E94181A20E030E040E05FE30E944A
:100B1000181A9B01AC016091950370919603809126
:100B20009703909198030E94041860939503709323
:100B30009603809397039093980369817A816C1947
:100B40007D09072E000C880B990B0E9424192BEAB3
:100B500031E64CE15EE30E94181A20E030E04CE000
:100B600053E40E947A18A50194010E9404184B01D5
:100B70005C012BED3FE049E450EC0E94701887FFC8
:100B800009C09BED492E9FE0592E99EC692E90E407
:100B9000792E03C0412C512C32012BED3FE049E46A
:100BA00050E4C501B4010E94131A181644F48BEDE9
:100BB000482E8FE0582E89EC682E80EC782EA30109
:100BC0009201C501B4010E940418609399037093C7
:100BD0009A0380939B0390939C032FB7F894809182
:100BE000EB029091EC02A091ED02B091EE022FBFCA
:100BF0008090AE039090AF03A090B003B090B1038B
:100C0000BC01CD01681979098A099B090E94221942
:100C10004B015C012FB7F8948091EB029091EC02AC
:100C2000A091ED02B091EE022FBF8093AE0390939E
:100C3000AF03A093B003B093B103B601DD0C880BF2
:100C4000990B0E94241925E33AEF4EE85BE30E94DA
:100C5000181AA50194010E947A180E94EC1860935A
:100C6000A5037093A6038093A7039093A8036093B2
:100C7000A9037093AA038093AB039093AC03809174
:100C8000AD038823B1F00F900F900F900F90DF917C
:100C9000CF911F910F91FF90EF90DF90CF90BF9079
:100CA000AF909F908F907F906F905F904F900C943B
:100CB0007E0F0F900F900F900F90DF91CF911F91AB
:100CC0000F91FF90EF90DF90CF90BF90AF909F90EB
:100CD0008F907F906F905F904F9008951F93CF9368
:100CE000DF93282F30E0F901E45DFD4F8491F90195
:100CF000E35FFD4FD491F901E251FE4FC491CC2343
:100D0000C1F0162F81110E94CD01EC2FF0E0EE0F03
:100D1000FF1FEE52FE4FA591B4919FB7F8941111A9
:100D200004C08C91D095D82302C0EC91DE2BDC93CB
:100D30009FBFDF91CF911F910895CF93DF9390E0F4
:100D4000FC01E35FFD4F2491FC01E251FE4F8491D1
:100D5000882361F190E0880F991FFC01EC53FE4F4E
:100D6000C591D491FC01EE52FE4FA591B491611151
:100D700009C09FB7F8948881209582238883EC91DD
:100D80002E230BC0623061F49FB7F8948881322F14
:100D9000309583238883EC912E2B2C939FBF06C024
:100DA0008FB7F894E8812E2B28838FBFDF91CF91E6
:100DB0000895CF93DF93EC01888581110FC081E006
:100DC00088878A85882311F062E001C060E0898508
:100DD0000E949D068FE090E00197F1F789850E94BF
:100DE0000A022B8530E041E02817390709F440E07A
:100DF000842FDF91CF910895AF92BF92CF92DF926F
:100E0000EF92FF920F931F93CF93DF938C016A01B0
:100E10007B0120E030E0A901C701B6010E947018F3
:100E2000682F661F6627661FF80181810E946E0683
:100E300020E030E0A901C701B6010E94131A18167C
:100E400024F0F7FAF094F7F8F09420E030E0A901EC
:100E5000C701B6010E94701887FD12C0F801A28078
:100E6000B380D481C58195014D2F5C2FC701B60198
:100E70000E94131A181644F05601DE2DCF2D04C01F
:100E8000A12CB12CD0E0C0E0B5018D2F9C2F0E9489
:100E9000EC186B017C01EB01F801108161E0812FFE
:100EA0000E949D06209709F480C0CF3FD10509F428
:100EB0007EC0E12FF0E0E45DFD4FE4918E2F90E0E5
:100EC000FC013197EF30F10508F06CC0EB59FF4F92
:100ED0000C94DB1A84B5806884BDC7BC76C084B529
:100EE000806284BDC8BC71C080918000806880939E
:100EF0008000D0928900C092880067C080918000F5
:100F0000806280938000D0928B00C0928A005DC086
:100F100080918000886080938000D0928D00C09284
:100F20008C0053C080919000806880939000D09294
:100F30009900C092980049C080919000806280938F
:100F40009000D0929B00C0929A003FC08091900088
:100F5000886080939000D0929D00C0929C0035C024
:100F60008091C00080688093C0008091C0008F7B1A
:100F70008093C000C092CF0028C08091C0008062E2
:100F80008093C000C092D00020C08091C2008860D1
:100F90008093C2008091C2008B7F8093C200C09278
:100FA000D20013C0C038D10514F460E001C061E084
:100FB000812FDF91CF911F910F91FF90EF90DF90E4
:100FC000CF90BF90AF900C946E06DF91CF911F91A0
:100FD0000F91FF90EF90DF90CF90BF90AF9008956A
:100FE0008EE591E00E94AA0F4091BC015091BD0195
:100FF0006091BE017091BF0189E793E00E94FC06F9
:101000004091B8015091B9016091BA017091BB0152
:1010100083E793E00C94FC06823108F08251E82FBC
:10102000F0E0E854FE4FE49180917B00E3FB22273F
:1010300020F930E095E0220F331F9A95E1F78F7D7C
:10104000282B20937B00E770E064E0937C00809184
:101050007A00806480937A0080917A0086FDFCCFCC
:10106000809178002091790090E0922B08958F92E2
:101070009F92AF92BF92CF92DF92EF92FF926B015D
:101080007C010E9433024B015C01C114D104E104D4
:10109000F104F1F00E943302DC01CB0188199909B7
:1010A000AA09BB09883E9340A105B10570F321E070
:1010B000C21AD108E108F10888EE880E83E0981E74
:1010C000A11CB11CC114D104E104F10419F7DDCF56
:1010D000FF90EF90DF90CF90BF90AF909F908F9058
:1010E00008951F920F920FB60F9211242F933F93E2
:1010F0008F939F93AF93BF938091EB029091EC02FB
:10110000A091ED02B091EE0230912B0223E0230F6B
:101110002D3720F40196A11DB11D05C026E8230F2F
:101120000296A11DB11D20932B028093EB02909398
:10113000EC02A093ED02B093EE0280912C0290910C
:101140002D02A0912E02B0912F020196A11DB11D7A
:1011500080932C0290932D02A0932E02B0932F0225
:10116000BF91AF919F918F913F912F910F900FBEA3
:101170000F901F9018951F920F920FB60F92112487
:101180002F933F934F935F936F937F938F939F938F
:10119000AF93BF93EF93FF938091B900887F803620
:1011A00009F49CC068F5883209F45BC090F4803182
:1011B00009F454C038F4882309F4F2C0883009F4E3
:1011C0004DC0F2C0883109F44CC0803209F45DC0D2
:1011D000EBC0803409F468C048F4803309F455C08A
:1011E000883309F0E1C080930402D4C0803509F44B
:1011F0004FC0883509F45DC0883409F0D5C0D2C02D
:10120000883909F4C3C0A8F4883709F467C038F4F2
:10121000883609F463C0803709F460C0C5C08838D7
:1012200009F4B4C0803909F45FC0803809F0BCC04B
:101230005BC0803B09F484C038F4803A09F466C08E
:10124000883A09F47DC0B0C0803C09F4A3C0883C52
:1012500009F4A0C0883B09F486C0A6C080912A0288
:1012600010C09091290280912802981770F5E091A2
:10127000290281E08E0F80932902F0E0E85FFD4FA4
:1012800080818093BB0085EC82C0809304028AC079
:10129000E091290281E08E0F809329028091BB00AA
:1012A000F0E0E85FFD4F8083909129028091280251
:1012B0006AC0E091290281E08E0F8093290280911B
:1012C000BB00F0E0E85FFD4F808380910702811151
:1012D00069C081E08093060284EA5DC083E0809368
:1012E000050210920302CFCF80910302803208F0F2
:1012F0004DC0E091030281E08E0F80930302809144
:10130000BB00F0E0ED51FE4F8083BDCF85EC8093B4
:10131000BC001092050280910302803230F4E0910B
:101320000302F0E0ED51FE4F10826091030270E085
:1013300083EE91E0E0E0F0E009951092030234C002
:1013400084E0809305021092E2011092E101E0E056
:10135000F0E009958091E101811105C081E0809361
:10136000E1011092C101E091E20181E08E0F8093D2
:10137000E201F0E0EF53FE4F80818093BB0090913B
:10138000E2018091E101981708F47DCF85E8809310
:10139000BC000AC085EC8093BC001092050204C01A
:1013A000109204020E945802FF91EF91BF91AF91F9
:1013B0009F918F917F916F915F914F913F912F916D
:1013C0000F900FBE0F901F9018950F931F93CF9300
:1013D000DF93EC0161E086E00E949D0661E086E01B
:1013E0000E946E0604E110E08C810E940C08BC0192
:1013F000990F880B990B0E9424199B01AC016881FD
:1014000079818A819B810E940418688379838A8309
:101410009B836AE070E080E090E00E943708015012
:10142000110911F720E030E040EA51E46881798148
:101430008A819B810E947A18688379838A839B833F
:1014400061E086E00E949D0660E086E0DF91CF913A
:101450001F910F910C946E061F920F920FB60F9270
:1014600011242F933F934F935F936F937F938F93A9
:101470009F93AF93BF93CF93EF93FF93CCB1C2FBF6
:10148000CC27C0F98AE10E940A0221E0892B09F4E5
:1014900020E02C278091F002880F9C2F990F990F44
:1014A000892BE22FEE0FEE0FEE0F8E2BE091EF0265
:1014B000E82B8E2F90E0FC013197EE30F10518F506
:1014C000EC58FF4F0C94DB1A8091F1029091F202DC
:1014D000A091F302B091F4020197A109B1090BC0E8
:1014E0008091F1029091F202A091F302B091F40286
:1014F0000196A11DB11D8093F1029093F202A09379
:10150000F302B093F4022093F002C093EF02FF9134
:10151000EF91CF91BF91AF919F918F917F916F91FB
:101520005F914F913F912F910F900FBE0F901F90A1
:1015300018951F920F920FB60F9211242F933F937D
:101540004F935F936F937F938F939F93AF93BF93CB
:10155000CF93EF93FF9387E10E940A02C1E0892BAA
:1015600009F4C0E087E00E940A0221E0892B09F417
:1015700020E02C278091F602880F9C2F990F990F5D
:10158000892BE22FEE0FEE0FEE0F8E2BE091F5027E
:10159000E82B8E2F90E0FC013197EE30F10518F525
:1015A000EE57FF4F0C94DB1A8091F7029091F802EE
:1015B000A091F902B091FA020197A109B1090BC0FB
:1015C0008091F7029091F802A091F902B091FA028D
:1015D0000196A11DB11D8093F7029093F802A0938C
:1015E000F902B093FA022093F602C093F502FF913C
:1015F000EF91CF91BF91AF919F918F917F916F911B
:101600005F914F913F912F910F900FBE0F901F90C0
:1016100018951F920F920FB60F9211248F939F93DC
:10162000AF93BF938091300290913102A09132022A
:10163000B09133020196A11DB11D809330029093A9
:101640003102A0933202B09333028091840281115F
:1016500003C081E080938402BF91AF919F918F91ED
:101660000F900FBE0F901F901895E4E3F2E020E07A
:1016700030E0A085B185AB2B81F4AAE0A29FF001F8
:10168000A39FF00D1124EC5CFD4F91878087408370
:10169000518362837383822F08952F5F3F4F3A9661
:1016A0002830310531F78FEF08954091870250912E
:1016B0008802209185023091860242175307B4F4C4
:1016C0009091E8009570E1F39091E80092FD19C0C7
:1016D0008093F100809187029091880201968F7328
:1016E0009927892B19F48EEF8093E8008091870267
:1016F000909188020196909388028093870281E0FE
:10170000089580E00895DF92EF92FF920F931F9368
:10171000CF93DF93D82EF92EE42E062F10E0C801C8
:101720000196880F0E94550B83E00E94550BCD2D2A
:10173000DF2D0C0F1D1FC017D10789F0E7FE03C076
:10174000FE01849101C088810E94550BF82E80E033
:101750000E94550B8F2121968111EDCF01C081E0B0
:10176000DF91CF911F910F91FF90EF90DF9008953F
:10177000DF92EF92FF920F931F93CF93DF93D82EB8
:101780008A017B01E40EF51EEB01CE15DF0571F039
:10179000D7FE03C0FE01849101C088810E94550BD1
:1017A00021968111F2CF8FEF9FEF01C0C801DF9129
:1017B000CF911F910F91FF90EF90DF9008956150AE
:1017C00030F02091F100FC0120830196F8CF289899
:1017D00084E680938D020895CF92DF92EF92FF927C
:1017E0000F931F93CF93DF936C017A018B01C0E0BD
:1017F000D0E0CE15DF0581F0D8016D918D01D601C5
:10180000ED91FC910190F081E02DC6010995892BA5
:1018100011F02196EECF7E01C701DF91CF911F918C
:101820000F91FF90EF90DF90CF9008950F931F934B
:10183000CF93DF931F92CDB7DEB782E0898342E476
:1018400050E06BE472E080E80E94B80B0E940E1139
:10185000DC0112960D911C9113970115110589F069
:10186000D801ED91FC910280F381E02DBE016F5F04
:101870007F4FC801099597FD04C0F80100851185C7
:10188000ECCF89810F90DF91CF911F910F91089537
:101890008F929F92AF92BF92CF92DF92EF92FF9280
:1018A0000F931F93CF93DF936C017B018A0180918B
:1018B0000B01882309F45CC080918E02882309F40F
:1018C00057C080918B0280FF05C08091E00082604C
:1018D0008093E000E801B12C8AEFA82E93E0892ED6
:1018E0002AE3922E209711F4BB20D9F10E94FD101B
:1018F00081110AC0AA94AA20D9F161E070E080E0C9
:1019000090E00E943708EECF282F30E0C217D307AF
:101910000CF48C2F9FB7F8948092E9002091E80096
:1019200025FF1DC0282F30E0C21BD30BF7018150CB
:1019300020F041914093F100FACFE20EF31EBB205C
:1019400019F09092E8000AC08091E80085FD07C078
:101950009092E800BB24B394209709F0B12C9FBF6C
:10196000C1CF5D9884E680938C021016110644F076
:1019700081E090E0F6019383828380E090E001C0F3
:10198000C801DF91CF911F910F91FF90EF90DF90F1
:10199000CF90BF90AF909F908F9008951F920F921D
:1019A0000FB60F9211248F939F938091E100909135
:1019B000E100937F9093E10083FF0FC01092E90054
:1019C00091E09093EB001092EC0092E39093ED0085
:1019D00010928E0298E09093F00082FF20C093E076
:1019E0009093E9009091F200992319F09AE3909373
:1019F000E80090918C02992339F090918C029150DB
:101A000090938C02992389F190918D02992339F05A
:101A100090918D02915090938D02992341F184FF12
:101A200010C08091E2008E7E81608093E200809100
:101A3000E1008F7E8093E10080918B028E7E806139
:101A400011C080FF16C08091E2008E7E806180937D
:101A5000E2008091E1008E7E8093E10080918B0214
:101A60008E7E816080938B0204C05D9ACDCF289AD0
:101A7000D6CF9F918F910F900FBE0F901F9018950A
:101A80001F920F920FB60F921124CF92DF92EF9216
:101A9000FF920F931F932F933F934F935F936F93F7
:101AA0007F938F939F93AF93BF93EF93FF93CF93C6
:101AB000DF93CDB7DEB76C97DEBFCDBF1092E900E4
:101AC0008091E80083FFFBC168E0CE0145960E944B
:101AD000DF0B82EF8093E8008D8987FF05C090912E
:101AE000E80090FFFCCF03C09EEF9093E800982F92
:101AF000907609F0C6C09E894F89588D2F89F88C41
:101B000091110CC0803829F480918A028093F100F1
:101B100002C01092F1001092F10045C1913051F4D1
:101B2000811141C14130510509F03DC180918A02C6
:101B30008D7F0BC0933061F4811135C14130510567
:101B400009F031C180918A02826080938A022BC1A0
:101B5000953049F48091E80080FFFCCF822F8068A7
:101B60008093E30020C1963009F05EC00B8D1C8D80
:101B700022E01092E9001092880210928702F2127D
:101B800032C010928602109285020E94160C99E0D3
:101B9000BE016F5F7F4FDB01E92F1D92EA95E9F7E8
:101BA0009983FA8291E09E8390EA98879AEF9987C9
:101BB0002091870230918802275F3F4F3C832B831F
:101BC0008D831092E9001092880210928702109380
:101BD00086020093850249E050E080E00E94B80B45
:101BE0000E94160CE0C010938602009385020E94AA
:101BF0000E11DC0112960D911C9113970115110520
:101C000009F4BBC0D801ED91FC910480F581E02D71
:101C1000BE016B5E7F4FC8010995009709F0C7C0F0
:101C2000F80100851185EACF973009F445C1983055
:101C300021F481E08093F100B6C0993009F0B3C07F
:101C4000837009F039C1E1E1F1E081E031E096E330
:101C50002081211109C08EE78093EA001092EA00EA
:101C60008F8980938E029FC08093E9003093EB00B0
:101C700021912093EC009093ED008F5F873041F726
:101C8000EACF8B8D9C8D1092E90010928802109201
:101C900087029093860280938502898D811153C0BB
:101CA0008E899D89913A49F4813209F005C147E056
:101CB00050E064E071E080E0BBC0913209F0FCC00C
:101CC000833269F48F89988DA0E0B0E080930001A1
:101CD00090930101A0930201B093030164C080328C
:101CE00069F48091E80082FFFCCF67E084E091E036
:101CF0000E94DF0B8BEF8093E80055C0823209F021
:101D000052C08F8980930B01EEEFFFE7859194918C
:101D10008B3F9C4D19F0E0E0F8E002C0EEEFFAE0F6
:101D20008091040190910501A0910601B0910701F5
:101D3000803B9440A105B10509F09EC080910B0144
:101D400080FF79C099C00E940E11FC0102811381AD
:101D50000115110509F4B0C0D801ED91FC91019075
:101D6000F081E02DBE016B5E7F4FC80109958111A6
:101D70001AC0F80100851185EBCFF1E0FF1609F4D8
:101D80004EC0F3E0FF1298C08F89882309F44AC03F
:101D9000823089F440E860E18FEA92E00E94830B90
:101DA000882309F489C08EEF8093E80088C0181654
:101DB0001906CCF381C0813029F440E86BE083EA56
:101DC00092E0ECCF833009F077C00E940E11DC0165
:101DD0001296ED90FC9013978E010F5F1F4F6801D4
:101DE000E114F10479F0D701ED91FC910680F781BF
:101DF000E02DB801C7010995080F111DF701E08416
:101E0000F184EECFD8011C92F60101900020E9F791
:101E10003197BF016C197D0940E0C601BFCF61E970
:101E200072E002C06DE872E0FB01449150E080E88E
:101E30000E94B80BB8CFEE3F2AE0F20751F0808144
:101E400091818737A7E79A0721F09093FF0A809343
:101E5000FE0A87E797E791838083809160008093F3
:101E600089029BE088E10FB6F894A8958093600002
:101E70000FBE9093600097CF8081918187379747FD
:101E800009F091CFA89580916000886180936000EF
:101E90008091890280936000EE3FBAE0FB0739F041
:101EA0008091FE0A9091FF0A918380837CCF1092EB
:101EB000FF0A1092FE0A77CF81E28093EB006C96C6
:101EC0000FB6F894DEBF0FBECDBFDF91CF91FF916B
:101ED000EF91BF91AF919F918F917F916F915F91A2
:101EE0004F913F912F911F910F91FF90EF90DF90B5
:101EF000CF900F900FBE0F901F901895CF93DF9348
:101F00008AEC92E00E946412C1E9D3E06881798191
:101F10008A819B8142E00E94341185EC92E00E940C
:101F200064126C817D818E819F8142E00E94341118
:101F300080EC92E00E94641220EE3EE245E652E41C
:101F4000688579858A859B850E94181ADF91CF91D3
:101F50000C945512CF93DF930E942211EC018EE96D
:101F600091E00E9422118C0F9D1FDF91CF91089567
:101F7000CF93DF93C82FD62F60E08091BC030E94DF
:101F80006E06CC0FCE778C2F90E02B982F9A29B12C
:101F90002F989C0146E0359527954A95E1F7232B2C
:101FA00011F02B9A01C02B982F9A29B12F9885FFF9
:101FB00002C02B9A01C02B982F9A29B12F9884FF29
:101FC00002C02B9A01C02B982F9A29B12F9883FF1A
:101FD00002C02B9A01C02B982F9A29B12F9882FF0B
:101FE00002C02B9A01C02B982F9A99B12F9881FF8C
:101FF00002C02B9A01C02B982F9A89B12F982B9849
:102000002F9A89B12F988D2F90E09C01220F232FBA
:10201000221F330B232B11F02B9A01C02B982F9AE0
:1020200029B12F9886FF02C02B9A01C02B982F9AB6
:1020300029B12F9885FF02C02B9A01C02B982F9AA7
:1020400029B12F9884FF02C02B9A01C02B982F9A98
:1020500029B12F9883FF02C02B9A01C02B982F9A89
:1020600029B12F9882FF02C02B9A01C02B982F9A7A
:1020700099B12F9881FF02C02B9A01C02B982F9AFB
:1020800089B12F98D0FF02C02B9A01C02B982F9AAC
:1020900089B12F9861E08091BC03DF91CF910C94BE
:1020A0006E06CF9360E08091BC030E946E062B9A6F
:1020B0002F9A89B12F982B982F9A89B12F982B9A04
:1020C0002F9A89B12F982B982F9A89B12F982B9AF4
:1020D0002F9A89B12F982B982F9A89B12F982B98E6
:1020E0002F9A89B12F982B982F9A89B12F982B98D6
:1020F0002F9A4E9B02C0C0E801C0C0E02F982B98D9
:102100002F9A4E99C0642F982B982F9A4E99C0629F
:102110002F982B982F9A4E99C0612F982B982F9A11
:102120004E99C8602F982B982F9A4E99C4602F987B
:102130002B982F9A4E99C2602F982B982F9A4E99D0
:10214000C1602F9861E08091BC030E946E068C2FC5
:10215000CF9108958BEF92E00E94D9068823D1F3A6
:102160006AE070E080E090E00E9437088BEF92E038
:102170000E94D906882371F38BEF92E00E94D90662
:102180008111FACF6AE070E080E090E00E943708A9
:102190008BEF92E00E94D9068111EECF0895209135
:1021A0008E02211103C08FEF9FEF08955FB7F8945F
:1021B00022E02093E9002091F20030E0121613068D
:1021C00014F421E030E0422FFC0184E6415038F065
:1021D000289880938D029091F1009193F7CF21156B
:1021E000310521F08091F200882319F05FBFC90109
:1021F00008958BE68093E800F9CF2FB7F89483E039
:102200008093E9009091E800892F807295FF04C0C7
:102210009091F20080E4891B2FBF08958091930272
:1022200081110DC082E080938F0284E08093900240
:10223000109292021092910281E0809393028FE8B3
:1022400092E00895009769F0FC0101900020E9F701
:102250003197AF01481B590BBC018BE992E00C94FC
:10226000480C80E090E008952F923F924F925F9249
:102270006F927F928F929F92AF92BF92CF92DF9296
:10228000EF92FF920F931F93CF93DF93CDB7DEB7FB
:10229000A4970FB6F894DEBF0FBECDBF4B015C0113
:1022A000F42E9B01AC010E948D1A882319F081EA5B
:1022B00091E027C024013501E89477F82FEF3FEF34
:1022C0004FE75FE7C301B2010E948D1A81110DC073
:1022D0002FEF3FEF4FE75FE7C301B2010E94701895
:1022E00018161CF485EA91E00CC02FEF3FEF4FE782
:1022F0005FE4C501B4010E94131A18162CF489EA90
:1023000091E00E942211B8C02FEF3FEF4FE75FEC42
:10231000C501B4010E94701887FDF1CF20E030E0C4
:10232000A901C501B4010E94701887FF0BC06DE2BE
:102330008BE992E00E9492013C01B7FAB094B7F8A1
:10234000B09402C0612C712C10E060E070E080E07D
:102350009FE3F11641F020E030E040E251E40E94BA
:102360007A181F5FF6CFA50194010E9404184B0153
:102370005C010E94F3186AA3C72ED82EE92E19A279
:10238000262F372F482F592F8E010F5D1F4F0BA37C
:102390001CA39AE0292E312C412C512CCA01B901E1
:1023A000A20191010E94D217605DF80162938F0132
:1023B000211531054105510589F7CF010E942211F0
:1023C0008301080F191FFF2009F455C06AA17C2D55
:1023D0008D2D9E2D0E9422199B01AC01C501B401D7
:1023E0000E9403184B015C016EE28BE992E00E94AF
:1023F0009201080F191F8AE0282E312C412C512CF4
:1024000020E030E040E251E4C501B4010E94181A16
:102410004B015C010E94F3189B0140E050E019A2BF
:10242000CBA0DCA0762E3AA3642EE52ECA01B9011A
:10243000A20191010E94D217605DF60162936F01C3
:10244000211531054105510589F7CF010E9422115F
:10245000080F191F672D7AA1862D9E2D0E94221923
:102460009B01AC01C501B4010E9403184B015C0142
:10247000FA94F110C5CFC801A4960FB6F894DEBF48
:102480000FBECDBFDF91CF911F910F91FF90EF90C5
:10249000DF90CF90BF90AF909F908F907F906F9084
:1024A0005F904F903F902F900895CF93DF9342E03D
:1024B0000E943411EC018EE991E00E9422118C0FF0
:1024C0009D1FDF91CF9108950F931F93CF93DF93BB
:1024D0008C01C0E0D0E0F801EC0FFD1F6491662391
:1024E00041F08BE992E00E949201892B11F0219634
:1024F000F2CFCE01DF91CF911F910F9108950F93ED
:102500001F93CF93DF93EC01862F00E010E02FE7BD
:1025100033E40A831B832C833D836883498361E012
:102520000E949D0661E089810E949D0660E088818D
:102530000E946E0660E08981DF91CF911F910F911B
:102540000C946E06789484B5826084BD84B58160F5
:1025500084BD85B5826085BD85B5816085BD80916E
:102560006E00816080936E001092810080918100E6
:1025700082608093810080918100816080938100DE
:1025800080918000816080938000809191008260C2
:10259000809391008091910081608093910080915F
:1025A00090008160809390008091C100846080934E
:1025B000C1008091C10082608093C1008091C10000
:1025C00081608093C1008091C30081608093C300CB
:1025D0008091C00082608093C0008091C2008160C1
:1025E0008093C20080917A00846080937A00809109
:1025F0007A00826080937A0080917A008160809373
:102600007A0080917A00806880937A0010928E021E
:1026100010928A0210928B028091D7008160809381
:10262000D70080EA8093D80089B5806189BD89B5DB
:10263000826089BD09B400FEFDCF61E070E080E0FA
:1026400090E00E9437088091D8008F7C8061809351
:10265000D8008091E000807F8093E0008091E100CD
:102660008E7E8093E1008DE08093E200559A209A5F
:1026700085E893E00E94E5098BE893E00E94E50974
:102680008FE793E00E94E50961E08091BE030E941C
:102690006E066FE081E00E94B80F6DE88AE20E944A
:1026A000B80F6EE38BE20E94B80F6EE18DE20E94DC
:1026B000B80F60E08CE20E94B80F60E485E10E94F0
:1026C000B80F6DE381E10E94B80F0E945110837032
:1026D00039F40E945110682F636084E10E94B80FA2
:1026E00082E10E940C08BC01990F880B990B6115BF
:1026F00071058105910511F00E9481178FEF9FEF01
:102700009093A8028093A70268EE73E080E090E0C7
:102710000E9437088FE691E00E94AA0F0E94AA103B
:102720008BE791E00E94AA0FC0E0D0E000E010E04B
:10273000C8018C0F9D1F0E948A17682F8BE992E0B9
:102740000E9492018FE791E00E9422110F5F1F4FBC
:102750000931110569F780EA91E00E94AA0F699694
:10276000C13782E0D80711F70E94AA1081E891E0F2
:102770000E94AA0FC0E0D0E000E010E07801EC0E6B
:10278000FD1EC7010E948A17833221F063E2C70150
:102790000E9492170F5F1F4F0931110579F7699653
:1027A000C137A2E0DA0741F780E5E4E3F2E0DF01B8
:1027B0001D928A95E9F7F89410929000109291007A
:1027C0008091910088608093910080919100846055
:1027D000809391008DE390E090939900809398000E
:1027E00080917100826080937100789445E050E0A0
:1027F00060E070E08AED94E00E94350B44EF51E018
:1028000060E070E084ED94E00E94350B4AE050E017
:1028100060E070E087E994E00E94350B4AE050E008
:1028200060E070E080EF97E00E94350B04E812E072
:1028300080E0E82E80E0F82E80918402811106C0AD
:10284000E114F104C9F30E940000F6CF1092840253
:10285000C4E3D2E0409130025091310260913202E3
:10286000709133028C809D80AE80BF808881998179
:10287000AA81BB81880D991DAA1DBB1D84179507D0
:10288000A607B70788F4E885F985309769F00995B8
:102890008091300290913102A0913202B0913302C6
:1028A0008C839D83AE83BF832A960C171D0791F6F8
:1028B000C7CF8F929F92AF92BF92CF92DF92EF924B
:1028C000FF920F931F93CF93DF93EBE9F2E0138214
:1028D000128288EE93E0A0E0B0E084839583A68323
:1028E000B7832BE131E0318320832FEF3FEF358732
:1028F0002487E0ECF3E01382128284839583A6831D
:10290000B7838DE291E09183808356985E985E98BC
:10291000239A2B9A279A2F98C2EBD3E084E090E079
:102920009B878A8761E00E949D0660E08A850E94FD
:102930006E0661E085E00E949D0661E085E00E94F0
:102940006E0685E090E09D878C87E1E9F3E080E00A
:1029500090E0A1E6B4E480839183A283B38384836F
:102960009583A683B78310861186128613861486F4
:10297000158616861786108A118A128A138A148A77
:10298000158A168A178A108E118E128E138E148E47
:10299000158E168E178E10A261E08AE00E949D06A9
:1029A00061E080E10E949D0661E089E00E949D0651
:1029B00061E08FE00E949D0660E080E10E946E066B
:1029C00061E08FE00E946E061092F1021092F20216
:1029D0001092F3021092F4021092F0021092EF02A1
:1029E0006E98729A60E08AE10E949D0661E08AE139
:1029F0000E946E06E8E6F0E080818E7F8083ABE681
:102A0000B0E08C9180618C93D89A808181608083C2
:102A10001092F7021092F8021092F9021092FA0244
:102A20001092F6021092F50260E087E00E949D0687
:102A300060E087E10E949D06EE98EAE6F0E0808182
:102A400080618083E69AEE9AEBE8F3E010821182CF
:102A50001282138286E190E09583848360E00E9475
:102A60009D06E5E8F3E0108211821282138285E16F
:102A700090E09583848360E00E949D06EFE7F3E099
:102A8000108211821282138284E190E09583848304
:102A900060E00E949D0682E180938204E3E4F4E01A
:102AA00081E090E096878587118A108A128A138ABE
:102AB000148A158A168A178A108E118E128E138E1A
:102AC000148E158E168E178E10A211A212A213A2AA
:102AD00014A215A216A217A210A611A612A643E2CE
:102AE0005BED69E77DE343A754A765A776A740E0C0
:102AF00050E06CE071E447A750AB61AB72AB13AA36
:102B000014AA15AA16AA17AA10AE11AE12AE13AEC9
:102B100014AE15AE16AEE2E0F4E09087878313861C
:102B200012861486158616861786108A118A128ACE
:102B3000138A148A158A168A178A108E8AE791E4F6
:102B4000A9E1B9E3818F928FA38FB48F8FEF9FE7B5
:102B5000968F858F90A3878F92A381A380E090E8C2
:102B600094A383A396A385A390A787A311A612A6D7
:102B700013A614A615A616A617A610AA11AA12AA7D
:102B800013AA14AA15AA16AA17AA10AE11AE12AE4D
:102B900013AE14AE10923F04109240041092410400
:102BA0001092420440E16AE089E793E00E947F12BC
:102BB0004FE069E083E793E00E947F12EDE3F3E0EA
:102BC00080E090E0AFE7B3E484879587A687B78776
:102BD000108A118A128A138A148A158A168A178A09
:102BE000108E118E128E138E148E158E168E178ED9
:102BF00010A211A212A213A214A215A216A217A229
:102C000010A611A612A613A614A615A616A617A6F8
:102C100010AA11AA12AA13AA14AA15AAC12CD12C5F
:102C200020E6E22E20E4F22EC082D182E282F382FC
:102C300003E313E327EA31E4008711872287338710
:102C40004AE057ED63E27DE34483558366837783EF
:102C5000CFB7F8948090EB029090EC02A090ED0238
:102C6000B090EE02CFBF80AA91AAA2AAB3AAE7E0D1
:102C7000F3E084879587A687B787108A118A128A1E
:102C8000138A148A158A168A178A108E118E128E4C
:102C9000138E148E158E168E178E10A211A212A2EC
:102CA00013A214A215A216A217A210A611A612A66C
:102CB00013A614A615A616A617A610AA11AA12AA3C
:102CC00013AA14AA15AAC082D182E282F3820087D5
:102CD00011872287338744835583668377832FB791
:102CE000F8944091EB025091EC026091ED027091EA
:102CF000EE022FBF40AB51AB62AB73ABECECF3E039
:102D000084879587A687B787108A118A128A138AC3
:102D1000148A158A168A178A108E118E128E138EB7
:102D2000148E158E168E178E10A211A212A213A247
:102D300014A215A216A217A210A611A612A613A6D7
:102D400014A615A616A617A610AA11AA12AA13AAA7
:102D500014AA15AA80E090E0A0ECBFE380839183E1
:102D6000A283B38310861186128613868FE692E1C2
:102D7000A3E8BAE384839583A683B7832FB7F89437
:102D80008091EB029091EC02A091ED02B091EE02E5
:102D90002FBF80AB91ABA2ABB3ABEBEFF2E01282F3
:102DA00015828FE391E09183808310868EE1818785
:102DB00081E082878387DF91CF911F910F91FF90F0
:102DC000EF90DF90CF90BF90AF909F908F9008953D
:102DD0008F929F92AF92BF92CF92DF92EF92FF922B
:102DE000CF93DF93EC01688179818A819B816115A2
:102DF00071058105910521F464E279ED8BE597E099
:102E00002DE133EF41E050E00E94A01749015A0143
:102E10009B01AC01A7EAB1E40E94BF176B017C01E2
:102E2000ACEEB4EFA50194010E94CD17DC01CB01FB
:102E30008C0D9D1DAE1DBF1DB7FF03C00197A109DD
:102E4000B04888839983AA83BB83BC01CD019F7757
:102E5000DF91CF91FF90EF90DF90CF90BF90AF9038
:102E60009F908F9008958F929F92AF92BF92CF9232
:102E7000DF92EF92FF9260910C0170910D018091B1
:102E80000E0190910F01611571058105910521F4E5
:102E900064E279ED8BE597E02DE133EF41E050E01E
:102EA0000E94A01749015A019B01AC01A7EAB1E4B5
:102EB0000E94BF176B017C01ACEEB4EFA501940139
:102EC0000E94CD17DC01CB018C0D9D1DAE1DBF1DD9
:102ED000B7FF03C00197A109B04880930C019093FC
:102EE0000D01A0930E01B0930F01BC01CD019F779E
:102EF000FF90EF90DF90CF90BF90AF909F908F901A
:102F0000089560930C0170930D0180930E019093CE
:102F10000F010895F999FECF92BD81BDF89A9927C6
:102F200080B50895262FF999FECF1FBA92BD81BDB5
:102F300020BD0FB6F894FA9AF99A0FBE019608953B
:102F4000052E97FB1EF400940E94B71757FD07D07B
:102F50000E94D21707FC03D04EF40C94B71750957B
:102F60004095309521953F4F4F4F5F4F0895909575
:102F70008095709561957F4F8F4F9F4F08950E9468
:102F8000F417A59F900DB49F900DA49F800D911DE7
:102F900011240895B7FF0C94BF170E94BF17821B1E
:102FA000930B0895A1E21A2EAA1BBB1BFD010DC0B5
:102FB000AA1FBB1FEE1FFF1FA217B307E407F507E9
:102FC00020F0A21BB30BE40BF50B661F771F881FC5
:102FD000991F1A9469F760957095809590959B015B
:102FE000AC01BD01CF010895A29FB001B39FC00104
:102FF000A39F700D811D1124911DB29F700D811D25
:103000001124911D08955058BB27AA270E941B1810
:103010000C94C5190E948C1938F00E94931920F065
:1030200039F49F3F19F426F40C9489190EF4E095B5
:10303000E7FB0C948319E92F0E94EA1958F3BA1799
:10304000620773078407950720F079F4A6F50C94BE
:103050000C1A0EF4E0950B2EBA2FA02D0B01B9011E
:1030600090010C01CA01A0011124FF27591B99F0FE
:10307000593F50F4503E68F11A16F040A22F232F0A
:10308000342F4427585FF3CF469537952795A7955A
:10309000F0405395C9F77EF41F16BA0B620B730B01
:1030A000840BBAF09150A1F0FF0FBB1F661F771F72
:1030B000881FC2F70EC0BA0F621F731F841F48F427
:1030C000879577956795B795F7959E3F08F0B0CFB0
:1030D0009395880F08F09927EE0F97958795089597
:1030E0000E945F1908F481E008950E949C19E395FD
:1030F0000C94D6190E948E180C94C5190E9493192D
:1031000058F00E948C1940F029F45F3F29F00C948C
:10311000831951110C940D1A0C9489190E94EA1903
:1031200068F39923B1F3552391F3951B550BBB27F6
:10313000AA2762177307840738F09F5F5F4F220F3B
:10314000331F441FAA1FA9F335D00E2E3AF0E0E832
:1031500032D091505040E695001CCAF72BD0FE2F7C
:1031600029D0660F771F881FBB1F26173707480710
:10317000AB07B0E809F0BB0B802DBF01FF279358C8
:103180005F4F3AF09E3F510578F00C9483190C94F0
:103190000D1A5F3FE4F3983ED4F3869577956795D3
:1031A000B795F7959F5FC9F7880F911D96958795FD
:1031B00097F90895E1E0660F771F881FBB1F62171C
:1031C00073078407BA0720F0621B730B840BBA0BDA
:1031D000EE1F88F7E09508950E94F3186894B111E6
:1031E0000C940D1A08950E94F21988F09F5798F0D8
:1031F000B92F9927B751B0F0E1F0660F771F881FFC
:10320000991F1AF0BA95C9F714C0B13091F00E9415
:103210000C1AB1E008950C940C1A672F782F8827A8
:10322000B85F39F0B93FCCF3869577956795B3953C
:10323000D9F73EF490958095709561957F4F8F4FAB
:103240009F4F0895E89409C097FB3EF490958095B0
:10325000709561957F4F8F4F9F4F9923A9F0F92F5C
:1032600096E9BB279395F695879577956795B795DA
:10327000F111F8CFFAF4BB0F11F460FF1BC06F5FC0
:103280007F4F8F4F9F4F16C0882311F096E911C0D2
:10329000772321F09EE8872F762F05C0662371F0F3
:1032A00096E8862F70E060E02AF09A95660F771F07
:1032B000881FDAF7880F9695879597F90895990FE3
:1032C0000008550FAA0BE0E8FEEF16161706E807F0
:1032D000F907C0F012161306E407F50798F0621B11
:1032E000730B840B950B39F40A2661F0232B242BE6
:1032F000252B21F408950A2609F4A140A6958FEF05
:10330000811D811D089597F99F6780E870E060E056
:1033100008959FEF80EC089500240A94161617066E
:1033200018060906089500240A94121613061406B6
:10333000050608950C9489190E94F219D8F3E894AF
:10334000E0E0BB279F57F0F02AED3FE049EC06C0D4
:10335000EE0FBB0F661F771F881F28F0B23A620777
:103360007307840728F0B25A620B730B840BE39542
:103370009A9572F7803830F49A95BB0F661F771FC5
:10338000881FD2F790480C94941A092E0394000CCD
:1033900011F4882352F0BB0F40F4BF2B11F460FFEF
:1033A00004C06F5F7F4F8F4F9F4F0895EF93E0FFF3
:1033B00007C0A2EA2AED3FE049EC5FEB0E941B1830
:1033C0000E94C5190F90039401FC9058E0E2F1E0CF
:1033D0000C94A01A57FD9058440F551F59F05F3FA9
:1033E00071F04795880F97FB991F61F09F3F79F027
:1033F00087950895121613061406551FF2CF4695A9
:10340000F1DF08C0161617061806991FF1CF86952A
:103410007105610508940895E894BB27662777270E
:10342000CB0197F908950E945F1908F48FEF089572
:103430000E942B1A0C94C5190E948C1938F00E9416
:10344000931920F0952311F00C9483190C94891989
:1034500011240C940D1A0E94EA1970F3959FC1F380
:10346000950F50E0551F629FF001729FBB27F00D32
:10347000B11D639FAA27F00DB11DAA1F649F662787
:10348000B00DA11D661F829F2227B00DA11D621FD6
:10349000739FB00DA11D621F839FA00D611D221F90
:1034A000749F3327A00D611D231F849F600D211D74
:1034B000822F762F6A2F11249F5750409AF0F1F0F7
:1034C00088234AF0EE0FFF1FBB1F661F771F881F60
:1034D00091505040A9F79E3F510580F00C948319FC
:1034E0000C940D1A5F3FE4F3983ED4F386957795DC
:1034F0006795B795F795E7959F5FC1F7FE2B880F06
:10350000911D9695879597F908959F930E949C1910
:103510000F9007FCEE5F0C94D6190E945F19880B80
:10352000990B08959F3F31F0915020F4879577953E
:103530006795B795880F911D9695879597F908958A
:103540009F938F937F936F93FF93EF939B01AC01B6
:103550000E94181AEF91FF910E94B41A2F913F9187
:103560004F915F910C94181ADF93CF931F930F9391
:10357000FF92EF92DF927B018C01689406C0DA2EF5
:10358000EF010E942B1AFE01E894A5912591359137
:1035900045915591A6F3EF010E941B18FE0197017A
:1035A000A801DA9469F7DF90EF90FF900F911F91D7
:1035B000CF91DF910895EE0FFF1F0590F491E02D5C
:1035C000099481E090E0F8940C94E61AF894FFCF07
:1035D000FFFFFFFF00E1000000000000010000000D
:1035E00000C18081000000000000009201480CB87A
:1035F00002A801B301E002BC0200000000A302988F
:1036000002B5028A0291028E028B0200000000D9EC
:1036100006436F6E74726F6C5370656564207461DD
:10362000736B005072696E74207461736B004D6F20
:103630007665204D6F746F7273205461736B004216
:103640006F617264205265736574004D6170002073
:10365000004D617020457261736564202D204D61BD
:103660007070696E672053746172746564000D0A2E
:0E367000006E616E00696E66006F7666000087
:00000001FF
