:100000000C94A0010C94C8010C94C8010C94C80174
:100010000C94C8010C94C8010C94C8010C94B60946
:100020000C94C8010C9449090C94860D0C94F80D9D
:100030000C94C8010C94C8010C94C8010C94C8011C
:100040000C94C8010C94C8010C94C8010C94C8010C
:100050000C94C8010C94C8010C94C8010C94B60609
:100060000C94C8010C94C8010C94C8010C94C801EC
:100070000C94C8010C94C8010C94C8010C94C801DC
:100080000C9471080C94C8010C94C8010C94C8011C
:100090000C9400070C94C8010C94C8010C94C8017E
:1000A0000C94C8010C94C8010C94C8011D022002D4
:1000B0000F021302190241024102410224022802E6
:1000C0002C023202360241023C02CB05D005D50596
:1000D000DF05E905330633063306F305FD0507069C
:1000E00011061E06330626068D098109A00981091D
:1000F000A009A0098D098D09A009A0098109A009FD
:1001000081098D09FD09F109100AF109100A100A87
:10011000FD09FD09100A100AF109100AF109FD098B
:1001200007634236B79BD8A71A39685618AEBAABE0
:10013000558C1D3CB7CC5763BD6DEDFD753EF61774
:100140007231BF000000803F08000000BE922449C9
:10015000123EABAAAA2ABECDCCCC4C3E00000080F9
:10016000BEABAAAAAA3E00000000BF000000803F6C
:100170000000000000084178D3BB4387D1133D192C
:100180000E3CC3BD4282AD2B3E68EC8276BED98F59
:10019000E1A93E4C80EFFFBE01C4FF7F3F0000009D
:1001A000000020546F74616C3A200020496E746521
:1001B0006772616C20636F6D706F6E656E743A204C
:1001C0000020446966666572656E7469616C2063BF
:1001D0006F6D706F6E656E743A20002050726F7094
:1001E0006F7274696F6E616C20636F6D706F6E6596
:1001F0006E743A2000204572726F7220496E7465E9
:100200006772616C3A00204572726F722044656CAF
:1002100074613A004572726F723A20000706050455
:100220000100080A0B0C0D09000000002400270043
:100230002A002D00300000000000250028002B00BF
:100240002E003100000000002300260029002C00B1
:100250002F00040404040403040502020202040340
:100260000202020206060606060604040202020450
:1002700004040802011040804010204080408008A3
:100280000204018040201002011080102040402014
:100290000000000200090F0000030401000C000030
:1002A0000000000000000000000000000000000846
:1002B0000B0002020201000904000001020200001A
:1002C000052400100105240101010424020605246F
:1002D0000600010705810310004009040100020A1D
:1002E00000000007050202400000070583024000ED
:1002F000000403090412010002EF02014041233609
:100300008000010102030141726475696E6F204C27
:100310004C430041726475696E6F204C656F6E616D
:1003200072646F004572726F723A496E76616C69E1
:100330006420636F2D6F7264696E617465009D1532
:1003400011241FBECFEFDAE0DEBFCDBF11E0A0E089
:10035000B1E0EAE8F9E302C005900D92A638B107D2
:10036000D9F723E0A6E8B1E001C01D92AF3EB20785
:10037000E1F711E0C0EAD1E004C02197FE010E943C
:10038000A41CCF39D107C9F70E9453120C94C31C87
:100390000C940000CF93DF931F92CDB7DEB7698333
:1003A000DC01ED91FC910280F381E02D41E050E011
:1003B000BE016F5F7F4F09950F90DF91CF91089538
:1003C00083E08093E9008091F200882319F08AE3AA
:1003D0008093E8000895FC018485958597FD0BC006
:1003E0009FB7F89482E08093E9008091F2009FBF6C
:1003F00090E0019608959FB7F89482E08093E90019
:100400008091F2009FBF90E0089590E0FC01319749
:10041000EF30F105B0F5EA5AFF4F0C94A41C80911F
:1004200080008F7703C0809180008F7D8093800053
:10043000089580918000877FF9CF84B58F7702C0BF
:1004400084B58F7D84BD0895809190008F7707C01B
:10045000809190008F7D03C080919000877F809372
:10046000900008958091C0008F7703C08091C000F4
:100470008F7D8093C00008958091C200877F809314
:10048000C2000895CF93DF93282F30E0F901E057A1
:10049000FD4F8491F901EF58FD4FD491F901EE5AC7
:1004A000FD4FC491CC2391F081110E940502EC2FE5
:1004B000F0E0EE0FFF1FEC5BFD4FA591B491EC91C6
:1004C000ED2381E090E021F480E002C080E090E044
:1004D000DF91CF9108953FB7F8948091F201909108
:1004E000F301A091F401B091F50126B5A89B05C0D8
:1004F0002F3F19F00196A11DB11D3FBFBA2FA92FA3
:10050000982F8827820F911DA11DB11DBC01CD011F
:1005100042E0660F771F881F991F4A95D1F708950B
:1005200085ED8093BC008091BC0084FDFCCF1092CF
:10053000CB0108954091A701262F30E0240F311DF3
:1005400021323105DCF42091CB012430C9F4FC01C7
:1005500080E090E0861758F43091A7012191DC01EA
:10056000A957BE4FA30FB11D2C930196F3CF8091D5
:10057000A701680F6093A70180E0089581E00895C6
:1005800082E0089508958FEF9FEF08958FEF9FEF1A
:1005900008958091860190E0919581959109089543
:1005A000CF93DF93CB01EA01642F0E949A02CE0120
:1005B000DF91CF910895CF93DF931F92CDB7DEB730
:1005C000698361E0CE0101960E949A0281E090E089
:1005D0000F90DF91CF910895089580E090E0089505
:1005E0000E94750D90E008950F931F93CF93DF93B2
:1005F0001F92CDB7DEB78C01FC018485958597FFEE
:100600000EC0CE0101960E94470D019719F4898111
:1006100090E002C08FEF9FEFF80195878487F80183
:10062000848595850F90DF91CF911F910F9108954B
:10063000CF93DF931F92CDB7DEB7FC0184859585FC
:1006400097FD05C02FEF3FEF358724870BC0CE0104
:1006500001960E94470D019719F4898190E002C02C
:100660008FEF9FEF0F90DF91CF9108950E94BE1CF6
:100670002F923F924F925F926F927F928F929F92B2
:10068000AF92BF92CF92DF92EF92FF920F931F93A0
:10069000CF93DF93CDB7DEB72A970FB6F894DEBFBE
:1006A0000FBECDBF9A87898749835A836B837C832A
:1006B000480159018FB7F894C0908402D090850208
:1006C000E0908602F09087028FBFE985FA8580A9C5
:1006D00091A9A2A9B3A9A7019601281B390B4A0B1E
:1006E0005B0BCA01B9010E94E4192B013C01A985E9
:1006F000BA85D096CD92DD92ED92FC92D397A5016A
:10070000940169817A818B819C810E94C8186B0158
:100710007C019B01AC01E985FA8560A571A582A5E4
:1007200093A50E94C818A30192010E943A196D83F3
:100730007E838F83988729813A814B815C81A9854B
:10074000BA8590962D933D934D935C939397FD01BD
:1007500084A295A2A6A2B7A29896CD92DD92ED9220
:10076000FC929B97A7019601C301B2010E94991ABE
:10077000E985FA8524A535A546A557A50E94C9187F
:100780002B013C01A985BA859C966D937D938D9331
:100790009C939F972D913D914D915C91C701B6011E
:1007A0000E94991A4B015C01E985FA85608B718B77
:1007B000828B938B20853185428553856D817E8127
:1007C0008F8198850E94991A69837A838B839C8391
:1007D000A985BA8558966D937D938D939C935B976D
:1007E00014962D913D914D915C911797C301B201E3
:1007F0000E94991A2B013C01E985FA85648B758B5F
:10080000868B978B29813A814B815C81C501B4012C
:100810000E94C918A30192010E94C918162F072F20
:10082000382E292EA985BA851C968D909D90AD9065
:10083000BC901F972401350177FA709477F8709473
:10084000A30192010E94351987FD11C0A5019401F1
:10085000612F702F832D922D0E94941A18164CF040
:10086000812F902FA32DB22D4C015D0102C05301A9
:100870004201E985FA85848E958EA68EB78E84A96D
:10088000882309F45AC084E192E00E94B50C42E04A
:10089000C701B6010E94850B86E092E00E94B50C6C
:1008A00042E06D817E818F8198850E94850B85EF66
:1008B00091E00E94B50CA985BA859C966D917D91B9
:1008C0008D919C919F9742E00E94850B8BED91E06A
:1008D0000E94B50CE985FA856089718982899389BE
:1008E00042E00E94850B81EC91E00E94B50CA98545
:1008F000BA8558966D917D918D919C915B9742E060
:100900000E94850B8BEA91E00E94B50CE985FA857F
:10091000648975898689978942E00E94850B82EAFD
:1009200091E00E94B50CA985BA855C966D917D9188
:100930008D919C915F970E94A60CE985FA8585A907
:10094000882361F020A131A142A153A164A175A126
:1009500086A197A10E943A190E94A60CA985BA8582
:100960005C966D917D918D919C915F972A960FB6C3
:10097000F894DEBF0FBECDBFDF91CF911F910F91D5
:10098000FF90EF90DF90CF90BF90AF909F908F90AF
:100990007F906F905F904F903F902F9008951F939E
:1009A000CF93DF93282F30E0F901E057FD4F84917A
:1009B000F901EF58FD4FD491F901EE5AFD4FC49162
:1009C000CC23C1F0162F81110E940502EC2FF0E01C
:1009D000EE0FFF1FEA5CFD4FA591B4919FB7F8940D
:1009E000111104C08C91D095D82302C0EC91DE2B5C
:1009F000DC939FBFDF91CF911F910895CF93DF9339
:100A000090E0FC01EF58FD4F2491FC01EE5AFD4FA0
:100A10008491882361F190E0880F991FFC01E85DC3
:100A2000FD4FC591D491FC01EA5CFD4FA591B491B5
:100A3000611109C09FB7F89488812095822388832B
:100A4000EC912E230BC0623061F49FB7F89488813B
:100A5000322F309583238883EC912E2B2C939FBFCC
:100A600006C08FB7F894E8812E2B28838FBFDF91C3
:100A7000CF910895CF93DF93EC01888581110FC04A
:100A800081E088878A85882311F062E001C060E0F8
:100A900089850E94FE048FE090E00197F1F7898537
:100AA0000E9442022B8530E041E02817390709F403
:100AB00040E0842FDF91CF910895AF92BF92CF9203
:100AC000DF92EF92FF920F931F93CF93DF938C01EE
:100AD0006A017B0120E030E0A901C701B6010E9454
:100AE0003519682F661F6627661FF80181810E94ED
:100AF000CF0420E030E0A901C701B6010E94941A9A
:100B0000181624F0F7FAF094F7F8F09420E030E0AB
:100B1000A901C701B6010E94351987FD12C0F8016D
:100B2000A280B380D481C58195014D2F5C2FC70170
:100B3000B6010E94941A181644F05601DE2DCF2DEE
:100B400004C0A12CB12CD0E0C0E0B5018D2F9C2FAA
:100B50000E94AC196B017C01EB01F801108161E08E
:100B6000812F0E94FE04209709F480C0CF3FD10559
:100B700009F47EC0E12FF0E0E057FD4FE4918E2FA5
:100B800090E0FC013197EF30F10508F06CC0EB59B3
:100B9000FF4F0C94A41C84B5806884BDC7BC76C08C
:100BA00084B5806284BDC8BC71C0809180008068BB
:100BB00080938000D0928900C092880067C08091A5
:100BC0008000806280938000D0928B00C0928A0067
:100BD0005DC080918000886080938000D0928D00FD
:100BE000C0928C0053C080919000806880939000E8
:100BF000D0929900C092980049C080919000806284
:100C000080939000D0929B00C0929A003FC0809148
:100C10009000886080939000D0929D00C0929C00CC
:100C200035C08091C00080688093C0008091C00072
:100C30008F7B8093C000C092CF0028C08091C000FD
:100C400080628093C000C092D00020C08091C2001A
:100C500088608093C2008091C2008B7F8093C20025
:100C6000C092D20013C0C038D10514F460E001C0B6
:100C700061E0812FDF91CF911F910F91FF90EF9055
:100C8000DF90CF90BF90AF900C94CF04DF91CF91C5
:100C90001F910F91FF90EF90DF90CF90BF90AF909A
:100CA0000895823108F08251E82FF0E0E45EFD4FB4
:100CB000E49180917B00E3FB222720F930E095E06E
:100CC000220F331F9A95E1F78F7D282B20937B000D
:100CD000E770E064E0937C0080917A008064809308
:100CE0007A0080917A0086FDFCCF80917800209177
:100CF000790090E0922B08958F929F92AF92BF92CD
:100D0000CF92DF92EF92FF926B017C010E946B0207
:100D10004B015C01C114D104E104F104F1F00E9423
:100D20006B02DC01CB0188199909AA09BB09883E2D
:100D30009340A105B10570F321E0C21AD108E10882
:100D4000F10888EE880E83E0981EA11CB11CC11426
:100D5000D104E104F10419F7DDCFFF90EF90DF90AB
:100D6000CF90BF90AF909F908F9008951F920F9259
:100D70000FB60F9211242F933F938F939F93AF93AE
:100D8000BF938091840290918502A0918602B091D8
:100D900087023091F10123E0230F2D3720F40196D3
:100DA000A11DB11D05C026E8230F0296A11DB11D8E
:100DB0002093F1018093840290938502A093860290
:100DC000B09387028091F2019091F301A091F40118
:100DD000B091F5010196A11DB11D8093F201909390
:100DE000F301A093F401B093F501BF91AF919F91EE
:100DF0008F913F912F910F900FBE0F901F901895DC
:100E00001F920F920FB60F9211242F933F934F937F
:100E10005F936F937F938F939F93AF93BF93EF9362
:100E2000FF938091B900887F803609F49CC068F5F3
:100E3000883209F45BC090F4803109F454C038F46E
:100E4000882309F4F2C0883009F44DC0F2C088311B
:100E500009F44CC0803209F45DC0EBC0803409F461
:100E600068C048F4803309F455C0883309F0E1C004
:100E70008093CA01D4C0803509F44FC0883509F485
:100E80005DC0883409F0D5C0D2C0883909F4C3C028
:100E9000A8F4883709F467C038F4883609F463C0C9
:100EA000803709F460C0C5C0883809F4B4C08039FF
:100EB00009F45FC0803809F0BCC05BC0803B09F416
:100EC00084C038F4803A09F466C0883A09F47DC0D9
:100ED000B0C0803C09F4A3C0883C09F4A0C0883BA2
:100EE00009F486C0A6C08091F00110C09091EF0176
:100EF0008091EE01981770F5E091EF0181E08E0F7F
:100F00008093EF01F0E0E253FE4F80818093BB00BD
:100F100085EC82C08093CA018AC0E091EF0181E034
:100F20008E0F8093EF018091BB00F0E0E253FE4F03
:100F300080839091EF018091EE016AC0E091EF0112
:100F400081E08E0F8093EF018091BB00F0E0E253CF
:100F5000FE4F80838091CD01811169C081E0809333
:100F6000CC0184EA5DC083E08093CB011092C9017B
:100F7000CFCF8091C901803208F04DC0E091C90106
:100F800081E08E0F8093C9018091BB00F0E0E755AE
:100F9000FE4F8083BDCF85EC8093BC001092CB01C7
:100FA0008091C901803230F4E091C901F0E0E75549
:100FB000FE4F10826091C90170E089EA91E0E0E0A3
:100FC000F0E009951092C90134C084E08093CB0110
:100FD0001092A8011092A701E0E0F0E0099580913D
:100FE000A701811105C081E08093A70110928701BC
:100FF000E091A80181E08E0F8093A801F0E0E9570D
:10100000FE4F80818093BB009091A8018091A70141
:10101000981708F47DCF85E88093BC000AC085EC62
:101020008093BC001092CB0104C01092CA010E94B0
:101030009002FF91EF91BF91AF919F918F917F911E
:101040006F915F914F913F912F910F900FBE0F9035
:101050001F9018950F931F93CF93DF93EC0161E0DE
:1010600086E00E94FE0461E086E00E94CF0404E175
:1010700010E08C810E945106BC01990F880B990BDE
:101080000E94E4199B01AC01688179818A819B816E
:101090000E94C918688379838A839B836AE070E021
:1010A00080E090E00E947C060150110911F720E0D9
:1010B00030E040EA51E4688179818A819B810E9415
:1010C0003A19688379838A839B8361E086E00E9472
:1010D000FE0460E086E0DF91CF911F910F910C94A8
:1010E000CF041F920F920FB60F9211244F925F926E
:1010F0006F927F928F929F92AF92BF92CF92DF9228
:10110000EF92FF920F931F932F933F934F935F9311
:101110006F937F938F939F93AF93BF93EF93FF93BF
:1011200080911A0290911B02A0911C02B0911D02A5
:1011300000911602109117022091180230911902A5
:10114000C0902802D0902902E0902A02F0902B0251
:101150008090240290902502A0902602B090270251
:1011600040901A0250901B0260901C0270901D0269
:101170004092160250921702609218027092190261
:10118000409028025090290260902A0270902B0211
:101190004092240250922502609226027092270209
:1011A000BC01601B710B072E000C880B990B0E9471
:1011B000E4196093120270931302809314029093C7
:1011C0001502B60168197909072E000C880B990BD6
:1011D0000E94E419609320027093210280932202FE
:1011E0009093230200911202109113022091140295
:1011F00030911502409130025091310260913202DB
:10120000709133028AEC92E00E9438034B015C013A
:10121000009120021091210220912202309123029C
:1012200040912C0250912D0260912E0270912F025C
:1012300084E992E00E9438036B017C01B501A401AE
:1012400086E093E00E945D05B701A60180E093E08F
:101250000E945D05FF91EF91BF91AF919F918F919A
:101260007F916F915F914F913F912F911F910F91BE
:10127000FF90EF90DF90CF90BF90AF909F908F90B6
:101280007F906F905F904F900F900FBE0F901F90C8
:1012900018951F920F920FB60F9211242F933F9320
:1012A0004F935F936F937F938F939F93AF93BF936E
:1012B000CF93EF93FF93CCB1C2FBCC27C0F98AE167
:1012C0000E94420221E0892B09F420E02C27809122
:1012D0001102880F9C2F990F990F892BE22FEE0F87
:1012E000EE0FEE0F8E2BE0911002E82B8E2F90E088
:1012F000FC013197EE30F10518F5EC58FF4F0C94D6
:10130000A41C80911A0290911B02A0911C02B09122
:101310001D020196A11DB11D0BC080911A02909172
:101320001B02A0911C02B0911D020197A109B109F5
:1013300080931A0290931B02A0931C02B0931D028B
:1013400020931102C0931002FF91EF91CF91BF91B2
:10135000AF919F918F917F916F915F914F913F914D
:101360002F910F900FBE0F901F9018951F920F9204
:101370000FB60F9211242F933F934F935F936F9368
:101380007F938F939F93AF93BF93CF93EF93FF93ED
:1013900087E10E944202C1E0892B09F4C0E087E0A6
:1013A0000E94420221E0892B09F420E02C27809141
:1013B0001F02880F9C2F990F990F892BE22FEE0F98
:1013C000EE0FEE0F8E2BE0911E02E82B8E2F90E099
:1013D000FC013197EE30F10518F5EE57FF4F0C94F4
:1013E000A41C8091280290912902A0912A02B09118
:1013F0002B020196A11DB11D0BC080912802909176
:101400002902A0912A02B0912B020197A109B109EA
:101410008093280290932902A0932A02B0932B0272
:1014200020931F02C0931E02FF91EF91CF91BF91B5
:10143000AF919F918F917F916F915F914F913F916C
:101440002F910F900FBE0F901F901895809108025A
:1014500081110DC082E08093040284E08093050234
:10146000109207021092060281E08093080284E045
:1014700092E00895DF92EF92FF920F931F93CF9324
:10148000DF93D82EF92EE42E062F10E0C801019626
:10149000880F0E94E61083E00E94E610CD2DDF2D1C
:1014A0000C0F1D1FC017D10789F0E7FE03C0FE0116
:1014B000849101C088810E94E610F82E80E00E948D
:1014C000E6108F2121968111EDCF01C081E0DF91DF
:1014D000CF911F910F91FF90EF90DF900895DF92D1
:1014E000EF92FF920F931F93CF93DF93D82E8A0131
:1014F0007B01E40EF51EEB01CE15DF0571F0D7FE82
:1015000003C0FE01849101C088810E94E6102196EB
:101510008111F2CF8FEF9FEF01C0C801DF91CF9112
:101520001F910F91FF90EF90DF9008950F931F93FD
:10153000CF93DF931F92CDB7DEB782E0898342E479
:1015400050E06FEA72E080E80E946F0A0E94260A6B
:10155000DC0112960D911C9113970115110589F06C
:10156000D801ED91FC910280F381E02DBE016F5F07
:101570007F4FC801099597FD04C0F80100851185CA
:10158000ECCF89810F90DF91CF911F910F9108953A
:10159000CF93DF93D82FC62F0E942111682F6C2B79
:1015A0008D2FDF91CF910C949711AF92BF92CF9274
:1015B000DF92EF92FF920F931F93CF93DF935C0123
:1015C000C62E8A01E90167EF82E00E94971184E04C
:1015D0000E942111682F6F7784E00E94971160E8C4
:1015E0008AE00E94C80A60E081E00E9497117501BC
:1015F000D12CC7018A199B098C159D0538F4F70178
:1016000061917F0189E00E949711F3CF6CE081E046
:101610000E94971160E88DE00E94C80A60EDC62E16
:1016200067E0D62E84E00E942111E82EF1E0CF1A67
:10163000D10811F08173B1F38DE00E942111682F60
:101640006F778DE00E949711CD2809F43EC086E0A7
:101650000E9421118B71C9F58E2D8170E82E8AE0D0
:101660000E942111F82E8CE00E94211187702F2DED
:1016700030E051F02150310953E0220F331F5A95C9
:10168000E1F7280F311D05C043E0220F331F4A95B3
:10169000E1F739832883FF2031F0E0E1EF1528F4EA
:1016A00090E1F92E02C0FF24F3946801CF2DD0E021
:1016B000C601801B910B8C179D0748F489E00E949E
:1016C0002111F60181936F01F3CF82E0E82E8E2D78
:1016D000DF91CF911F910F91FF90EF90DF90CF900E
:1016E000BF90AF900895009769F0FC010190002031
:1016F000E9F73197AF01481B590BBC0184E392E035
:101700000C94601080E090E008952F923F924F92E9
:101710005F926F927F928F929F92AF92BF92CF9281
:10172000DF92EF92FF920F931F93CF93DF93CDB78A
:10173000DEB7A4970FB6F894DEBF0FBECDBF4B0146
:101740005C01F42E9B01AC010E94561B882319F00A
:1017500081E491E027C024013501E89477F82FEF68
:101760003FEF4FE75FE7C301B2010E94561B8111B3
:101770000DC02FEF3FEF4FE75FE7C301B2010E94BB
:10178000351918161CF485E491E00CC02FEF3FEFDB
:101790004FE75FE4C501B4010E94941A18162CF4B7
:1017A00089E491E00E94730BB8C02FEF3FEF4FE741
:1017B0005FECC501B4010E94351987FDF1CF20E02F
:1017C00030E0A901C501B4010E94351987FF0BC0A3
:1017D0006DE284E392E00E94CA013C01B7FAB09442
:1017E000B7F8B09402C0612C712C10E060E070E09A
:1017F00080E09FE3F11641F020E030E040E251E468
:101800000E943A191F5FF6CFA50194010E94C918E2
:101810004B015C010E94B3196AA3C72ED82EE92E92
:1018200019A2262F372F482F592F8E010F5D1F4FDA
:101830000BA31CA39AE0292E312C412C512CCA0158
:10184000B901A20191010E949718605DF8016293AD
:101850008F01211531054105510589F7CF010E94FE
:10186000730B8301080F191FFF2009F455C06AA1EB
:101870007C2D8D2D9E2D0E94E2199B01AC01C5018E
:10188000B4010E94C8184B015C016EE284E392E04F
:101890000E94CA01080F191F8AE0282E312C412C02
:1018A000512C20E030E040E251E4C501B4010E9437
:1018B000991A4B015C010E94B3199B0140E050E072
:1018C00019A2CBA0DCA0762E3AA3642EE52ECA0185
:1018D000B901A20191010E949718605DF60162931F
:1018E0006F01211531054105510589F7CF010E948E
:1018F000730B080F191F672D7AA1862D9E2D0E944C
:10190000E2199B01AC01C501B4010E94C8184B014A
:101910005C01FA94F110C5CFC801A4960FB6F894F3
:10192000DEBF0FBECDBFDF91CF911F910F91FF9012
:10193000EF90DF90CF90BF90AF909F908F907F906F
:101940006F905F904F903F902F900895CF93DF93CB
:1019500042E00E94850BEC018DE491E00E94730B44
:101960008C0F9D1FDF91CF9108950F931F93CF93FD
:10197000DF938C01C0E0D0E0F801EC0FFD1F649113
:10198000662341F084E392E00E94CA01892B11F0A2
:101990002196F2CFCE01DF91CF911F910F91089543
:1019A000CF93DF930E94B50CEC018DE491E00E948F
:1019B000730B8C0F9D1FDF91CF910895CF93DF9311
:1019C0000E94730BEC018DE491E00E94730B8C0F6D
:1019D0009D1FDF91CF91089588E892E00E943A051B
:1019E0008823D1F36AE070E080E090E00E947C06FA
:1019F00088E892E00E943A05882371F388E892E033
:101A00000E943A058111FACF6AE070E080E090E030
:101A10000E947C0688E892E00E943A058111EECF90
:101A200008951F93CF93DF93182F493087E058070D
:101A300020F4693087E0780738F084E293E0DF91A2
:101A4000CF911F910C94D00CCA019B01E8E4F0E007
:101A5000BF010E94901C89E1869FE001879FD00D05
:101A60001124C901BF010E94901CC60FD71FCE01CF
:101A70000E944F18181739F0612FCE01DF91CF91D6
:101A80001F910C945718DF91CF911F9108952091C9
:101A9000FE01211103C08FEF9FEF08955FB7F89407
:101AA00022E02093E9002091F20030E012161306A4
:101AB00014F421E030E0422FFC0184E6415038F07C
:101AC00028988093FD019091F1009193F7CF211513
:101AD000310521F08091F200882319F05FBFC90120
:101AE00008958BE68093E800F9CF2FB7F89483E050
:101AF0008093E9009091E800892F807295FF04C0DF
:101B00009091F20080E4891B2FBF08951F920F92DD
:101B10000FB60F9211248F939F938091E1009091C3
:101B2000E100937F9093E10083FF0FC01092E900E2
:101B300091E09093EB001092EC0092E39093ED0013
:101B40001092FE0198E09093F00082FF20C093E095
:101B50009093E9009091F200992319F09AE3909301
:101B6000E8009091FC01992339F09091FC0191508B
:101B70009093FC01992389F19091FD01992339F00B
:101B80009091FD0191509093FD01992341F184FFC3
:101B900010C08091E2008E7E81608093E20080918F
:101BA000E1008F7E8093E1008091FB018E7E806159
:101BB00011C080FF16C08091E2008E7E806180930C
:101BC000E2008091E1008E7E8093E1008091FB0134
:101BD0008E7E81608093FB0104C05D9ACDCF289AF0
:101BE000D6CF9F918F910F900FBE0F901F90189599
:101BF0001F920F920FB60F921124CF92DF92EF92A5
:101C0000FF920F931F932F933F934F935F936F9385
:101C10007F938F939F93AF93BF93EF93FF93CF9354
:101C2000DF93CDB7DEB76C97DEBFCDBF1092E90072
:101C30008091E80083FFFBC168E0CE0145960E94D9
:101C4000141182EF8093E8008D8987FF05C0909181
:101C5000E80090FFFCCF03C09EEF9093E800982F20
:101C6000907609F0C6C09E894F89588D2F89F88CCF
:101C700091110CC0803829F48091FA018093F10011
:101C800002C01092F1001092F10045C1913051F460
:101C9000811141C14130510509F03DC18091FA01E6
:101CA0008D7F0BC0933061F4811135C141305105F6
:101CB00009F031C18091FA0182608093FA012BC151
:101CC000953049F48091E80080FFFCCF822F806836
:101CD0008093E30020C1963009F05EC00B8D1C8D0F
:101CE00022E01092E9001092F9011092F801F2122C
:101CF00032C01092F7011092F6010E94960A99E004
:101D0000BE016F5F7F4FDB01E92F1D92EA95E9F776
:101D10009983FA8291E09E8390EA98879AEF998757
:101D20002091F8013091F901275F3F4F3C832B83CD
:101D30008D831092E9001092F9011092F80110932E
:101D4000F7010093F60149E050E080E00E946F0A3D
:101D50000E94960AE0C01093F7010093F6010E94DA
:101D6000260ADC0112960D911C911397011511059D
:101D700009F4BBC0D801ED91FC910480F581E02D00
:101D8000BE016B5E7F4FC8010995009709F0C7C07F
:101D9000F80100851185EACF973009F445C19830E4
:101DA00021F481E08093F100B6C0993009F0B3C00E
:101DB000837009F039C1E1E1F1E081E031E096E3BF
:101DC0002081211109C08EE78093EA001092EA0079
:101DD0008F898093FE019FC08093E9003093EB00D0
:101DE00021912093EC009093ED008F5F873041F7B5
:101DF000EACF8B8D9C8D1092E9001092F901109220
:101E0000F8019093F7018093F601898D811153C0F9
:101E10008E899D89913A49F4813209F005C147E0E4
:101E200050E064E071E080E0BBC0913209F0FCC09A
:101E3000833269F48F89988DA0E0B0E0809300012F
:101E400090930101A0930201B093030164C080321A
:101E500069F48091E80082FFFCCF67E084E091E0C4
:101E60000E9414118BEF8093E80055C0823209F074
:101E700052C08F8980930B01EEEFFFE7859194911B
:101E80008B3F9C4D19F0E0E0F8E002C0EEEFFAE085
:101E90008091040190910501A0910601B091070184
:101EA000803B9440A105B10509F09EC080910B01D3
:101EB00080FF79C099C00E94260AFC01028113812B
:101EC0000115110509F4B0C0D801ED91FC91019004
:101ED000F081E02DBE016B5E7F4FC8010995811135
:101EE0001AC0F80100851185EBCFF1E0FF1609F467
:101EF0004EC0F3E0FF1298C08F89882309F44AC0CE
:101F0000823089F440E860E183E193E00E943A0A7C
:101F1000882309F489C08EEF8093E80088C01816E2
:101F20001906CCF381C0813029F440E86BE087E0EA
:101F300093E0ECCF833009F077C00E94260ADC01E1
:101F40001296ED90FC9013978E010F5F1F4F680162
:101F5000E114F10479F0D701ED91FC910680F7814D
:101F6000E02DB801C7010995080F111DF701E084A4
:101F7000F184EECFD8011C92F60101900020E9F720
:101F80003197BF016C197D0940E0C601BFCF65EFF5
:101F900072E002C061EF72E0FB01449150E080E822
:101FA0000E946F0AB8CFEE3F2AE0F20751F080811D
:101FB00091818737A7E79A0721F09093FF0A8093D2
:101FC000FE0A87E797E79183808380916000809382
:101FD00003029BE088E10FB6F894A8958093600017
:101FE0000FBE9093600097CF80819181873797478C
:101FF00009F091CFA895809160008861809360007E
:102000008091030280936000EE3FBAE0FB0739F055
:102010008091FE0A9091FF0A918380837CCF109279
:10202000FF0A1092FE0A77CF81E28093EB006C9654
:102030000FB6F894DEBF0FBECDBFDF91CF91FF91F9
:10204000EF91BF91AF919F918F917F916F915F9130
:102050004F913F912F911F910F91FF90EF90DF9043
:10206000CF900F900FBE0F901F901895CF92DF92D8
:10207000EF92FF920F931F93CF93DF936C017A013E
:102080008B01C0E0D0E0CE15DF0581F0D8016D9165
:102090008D01D601ED91FC910190F081E02DC601FA
:1020A0000995892B11F02196EECF7E01C701DF91B2
:1020B000CF911F910F91FF90EF90DF90CF900895F7
:1020C0008F929F92AF92BF92CF92DF92EF92FF9248
:1020D0000F931F93CF93DF936C017B018A01809153
:1020E0000B01882309F45CC08091FE01882309F468
:1020F00057C08091FB0180FF05C08091E0008260A5
:102100008093E000E801B12C8AEFA82E93E0892E9D
:102110002AE3922E209711F4BB20D9F10E94750D6D
:1021200081110AC0AA94AA20D9F161E070E080E090
:1021300090E00E947C06EECF282F30E0C217D30734
:102140000CF48C2F9FB7F8948092E9002091E8005E
:1021500025FF1DC0282F30E0C21BD30BF701815093
:1021600020F041914093F100FACFE20EF31EBB2024
:1021700019F09092E8000AC08091E80085FD07C040
:102180009092E800BB24B394209709F0B12C9FBF34
:10219000C1CF5D9884E68093FC011016110644F0CF
:1021A00081E090E0F6019383828380E090E001C0BB
:1021B000C801DF91CF911F910F91FF90EF90DF90B9
:1021C000CF90BF90AF909F908F9008954091F8016D
:1021D0005091F9012091F6013091F7014217530710
:1021E000B4F49091E8009570E1F39091E80092FDCD
:1021F00019C08093F1008091F8019091F901019646
:102200008F739927892B19F48EEF8093E8008091C2
:10221000F8019091F90101969093F9018093F801EA
:1022200081E0089580E00895615030F02091F10040
:10223000FC0120830196F8CF289884E68093FD0165
:102240000895CF93C82F60E0809129030E94CF04A6
:102250008C2F880F8E7780682B9A2F9A29B12F9810
:1022600086FF02C02B9A01C02B982F9A29B12F9874
:1022700085FF02C02B9A01C02B982F9A29B12F9865
:1022800084FF02C02B9A01C02B982F9A29B12F9856
:1022900083FF02C02B9A01C02B982F9A29B12F9847
:1022A00082FF02C02B9A01C02B982F9A99B12F98C8
:1022B00081FF02C02B9A01C02B982F9A89B12F98C9
:1022C0002B982F9A89B12F982B982F9A4E9B02C04A
:1022D000C0E801C0C0E02F982B982F9A4E99C06497
:1022E0002F982B982F9A4E99C0622F982B982F9A3F
:1022F0004E99C0612F982B982F9A4E99C8602F98AD
:102300002B982F9A4E99C4602F982B982F9A4E99FC
:10231000C2602F982B982F9A4E99C1602F9861E038
:10232000809129030E94CF048C2FCF910895CF93E1
:10233000DF93C82FD62F60E0809129030E94CF043D
:10234000CC0FCE778C2F90E02B982F9A29B12F9815
:102350009C0146E0359527954A95E1F7232B11F02E
:102360002B9A01C02B982F9A29B12F9885FF02C074
:102370002B9A01C02B982F9A29B12F9884FF02C065
:102380002B9A01C02B982F9A29B12F9883FF02C056
:102390002B9A01C02B982F9A29B12F9882FF02C047
:1023A0002B9A01C02B982F9A99B12F9881FF02C0C8
:1023B0002B9A01C02B982F9A89B12F982B982F9A7E
:1023C00089B12F988D2F90E09C01220F232F221F7F
:1023D000330B232B11F02B9A01C02B982F9A29B184
:1023E0002F9886FF02C02B9A01C02B982F9A29B1F3
:1023F0002F9885FF02C02B9A01C02B982F9A29B1E4
:102400002F9884FF02C02B9A01C02B982F9A29B1D4
:102410002F9883FF02C02B9A01C02B982F9A29B1C5
:102420002F9882FF02C02B9A01C02B982F9A99B146
:102430002F9881FF02C02B9A01C02B982F9A89B147
:102440002F98D0FF02C02B9A01C02B982F9A89B1E8
:102450002F9861E080912903DF91CF910C94CF04F4
:102460000F931F93CF93DF93EC01862F00E010E0D2
:102470002FE733E40A831B832C833D8368834983DE
:1024800061E00E94FE0461E089810E94FE0460E038
:1024900088810E94CF0460E08981DF91CF911F91F4
:1024A0000F910C94CF04CF93DF93CDB7DEB7629733
:1024B0000FB6F894DEBF0FBECDBF789484B58260AE
:1024C00084BD84B5816084BD85B5826085BD85B5D8
:1024D000816085BD80916E00816080936E00109256
:1024E00081008091810082608093810080918100D1
:1024F0008160809381008091800081608093800062
:102500008091910082608093910080919100816020
:1025100080939100809190008160809390008091E1
:10252000C10084608093C1008091C100826080936B
:10253000C1008091C10081608093C1008091C3007F
:1025400081608093C3008091C00082608093C0004E
:102550008091C20081608093C20080917A00846083
:1025600080937A0080917A00826080937A008091D3
:102570007A00816080937A0080917A0080688093ED
:102580007A001092FE011092FA011092FB018091E4
:10259000D70081608093D70080EA8093D80089B506
:1025A000806189BD89B5826089BD09B400FEFDCF17
:1025B00061E070E080E090E00E947C068091D800AD
:1025C0008F7C80618093D8008091E000807F809331
:1025D000E0008091E1008E7E8093E1008DE08093A9
:1025E000E200559A209A10921A0210921B02109241
:1025F0001C0210921D0210921602109217021092E5
:1026000018021092190210921202109213021092E4
:1026100014021092150210921102109210026E987C
:10262000729A60E08AE10E94FE0461E08AE10E9401
:10263000CF04809168008E7F8093680080916B004A
:10264000806180936B00D89A80916800816080934C
:102650006800109228021092290210922A02109209
:102660002B02109224021092250210922602109240
:102670002702109220021092210210922202109240
:10268000230210921F0210921E0260E087E00E9457
:10269000FE0460E087E10E94FE04EE9880916A00EB
:1026A000806180936A00E69AEE9A109290001092F0
:1026B0009100109295001092940080E792E0909320
:1026C0009900809398008091910088608093910098
:1026D000809191008460809391008091710082606C
:1026E0008093710080E090E0A8ECB2E48093D60281
:1026F0009093D702A093D802B093D9028093A002FE
:102700009093A102A093A202B093A30283E193E06D
:102710000E942A0889E193E00E942A088DE093E054
:102720000E942A0861E080912B030E94CF046FE091
:1027300081E00E9497116DE88AE20E9497116EE392
:102740008BE20E9497116EE18DE20E94971160E08A
:102750008CE20E94971160E485E10E9497116DE37D
:1027600081E10E94971184E10E942111837021F47C
:1027700063E084E10E94C80A82E10E945106BC0124
:10278000990F880B990B611571058105910511F061
:102790000E9446188FEF9FEF909341028093400272
:1027A00068EE73E080E090E00E947C0680E591E0B6
:1027B0000E94DE0C0E94EC0C8CE591E00E94DE0C85
:1027C00000E010E0E12CF12CC701800F911F0E9466
:1027D0004F18682F84E392E00E94CA0183E891E0D9
:1027E0000E94730B8FEFE81AF80A89E1E816F104EA
:1027F00059F78FE491E00E94DE0C075E1F4F01370E
:1028000082E01807F9F60E94EC0C80E691E00E9445
:10281000DE0C00E010E0E12CF12C5701A00EB11EFF
:10282000C5010E944F18833221F063E2C5010E9466
:1028300057188FEFE81AF80A89E1E816F10469F7EA
:10284000075E1F4F013782E0180729F71092F20246
:102850001092F3021092F4021092F5021092F60216
:102860001092F7021092F8021092F9022FB7F89422
:102870008091840290918502A0918602B091870296
:102880002FBF8093FA029093FB02A093FC02B093B7
:10289000FD021092BC021092BD021092BE02109274
:1028A000BF021092C0021092C1021092C202109296
:1028B000C3022FB7F8948091840290918502A09171
:1028C0008602B09187022FBF8093C4029093C50205
:1028D000A093C602B093C70280E090E0A0EAB0E403
:1028E0008093300290933102A0933202B09333026E
:1028F00080932C0290932D02A0932E02B0932F026E
:1029000000E010E086E2F82E93E9E92E20E2D22ED4
:1029100080910C030E945106BC01990F880B990B02
:102920000E94E41922E539E44DE95BE30E94991A1B
:102930002EEA37E448E952E40E943A192EE63BEDCC
:1029400046EB5FEB0E94061B4B015C0120E030E090
:1029500048EC53E40E94351987FF31C020E030E095
:1029600040EF52E4C501B4010E94941A18163CF5D8
:1029700020E030E040EA52E4C501B4010E94C918E9
:102980004B015C0120E030E041E654E40E94C918AC
:102990000E94AC192B013C0120E030E0A901C501E7
:1029A000B4010E94991A20E030E041E654E40E940C
:1029B000C9180E94AC19A2018FE40E94110D67E0B2
:1029C0008DE00E949711F9829E012F5E3F4FAE016C
:1029D0004F5F5F4F61E0CA010E94D50A81112CC090
:1029E00089899A89409741F560E08DE00E949711AE
:1029F000E982DA829E012F5E3F4FAE014F5F5F4F4B
:102A000062E0CA010E94D50A81110AC029819A8117
:102A100092272B8192272C8192272D81291382E0E6
:102A200095E0FE013196AFE1B3E001900D929A95E9
:102A3000E1F7882309F464C0809117030E945106CE
:102A4000BC01990F880B990B0E94E4192091130384
:102A50003091140340911503509116030E94C81839
:102A60004B015C0180911D030E945106BC01990F2E
:102A7000880B990B0E94E4192091190330911A03D5
:102A800040911B0350911C030E94C818A50194019A
:102A90000E94C9184B015C01809111030E945106EC
:102AA000BC01990F880B990B0E94E41920910D032A
:102AB00030910E0340910F03509110030E94C818EB
:102AC000A50194010E94C91820E030E046E953E4D2
:102AD0000E94941A18163CF444E853E064E873E04A
:102AE0008CE40E94110D62E070E080E090E00E94B2
:102AF0007C060115110509F40BCF0E94000008CFD8
:102B000044E853E064E873E082E50E94110D8DE72C
:102B100091E00E94730B42E060E070E081E694E493
:102B20000E94850B81E891E00E94730B60E070E0E9
:102B300081E694E40E94A60C7FCF8F929F92AF9281
:102B4000BF92CF92DF92EF92FF920F931F93CF939A
:102B5000DF93E4E3F2E01382128288EE93E0A0E0D8
:102B6000B0E084839583A683B7832BE131E0318382
:102B700020832FEF3FEF35872487EDE2F3E01382C8
:102B8000128284839583A683B7838DE291E091833B
:102B9000808356985E985E98239A2B9A279A2F984E
:102BA000CFE1D3E084E090E09B878A8761E00E94D8
:102BB000FE0460E08A850E94CF0461E085E00E9407
:102BC000FE0461E085E00E94CF0485E090E09D87EF
:102BD0008C87E9E1F3E0108211821282138286E190
:102BE00090E09583848360E00E94FE04E3E1F3E0DB
:102BF000108211821282138285E190E09583848392
:102C000060E00E94FE04EDE0F3E010821182128287
:102C1000138284E190E09583848360E00E94FE0447
:102C200082E180930C03E0EBF3E081E090E0968793
:102C30008587118A108A128A138A148A158A168A3D
:102C4000178A108E118E128E138E148E158E168E7C
:102C5000178E10A211A212A213A214A215A216A2DC
:102C600017A210A611A612A643E25BED69E77DE369
:102C700043A754A765A776A740E050E06CE071E455
:102C800047A750AB61AB72AB13AA14AA15AA16AA38
:102C900017AA10AE11AE12AE13AE14AE15AE16AE2C
:102CA000EFE6F3E0908787831386128614861586F5
:102CB00016861786108A118A128A138A148A158A30
:102CC000168A178A108E8AE791E4A9E1B9E3818F09
:102CD000928FA38FB48F8FEF9FE7968F858F90A3EE
:102CE000878F92A381A380E090E894A383A396A307
:102CF00085A390A787A311A612A613A614A615A6AE
:102D000016A617A610AA11AA12AA13AA14AA15AADF
:102D100016AA17AA10AE11AE12AE13AE14AE1092D0
:102D2000AC031092AD031092AE031092AF0340E1DA
:102D30006AE086E093E00E9430124FE069E080E0B4
:102D400093E00E943012EAECF2E080E090E0AFE71E
:102D5000B3E484879587A687B787108A118A128A79
:102D6000138A148A158A168A178A108E118E128E6B
:102D7000138E148E158E168E178E10A211A212A20B
:102D800013A214A215A216A217A210A611A612A68B
:102D900013A614A615A616A617A610AA11AA12AA5B
:102DA00013AA14AA15AAC12CD12C20E6E22E20E4E5
:102DB000F22EC082D182E282F38203E313E327EA98
:102DC00031E400871187228733874AE057ED63E2B9
:102DD0007DE34483558366837783CFB7F8948090EF
:102DE000840290908502A0908602B0908702CFBFA7
:102DF00080AA91AAA2AAB3AAE4E9F2E084879587FF
:102E0000A687B787108A118A128A138A148A158AAC
:102E1000168A178A108E118E128E138E148E158EAE
:102E2000168E178E10A211A212A213A214A215A21E
:102E300016A217A210A611A612A613A614A615A6CE
:102E400016A617A610AA11AA12AA13AA14AA15AA9E
:102E5000C082D182E282F382008711872287338782
:102E600044835583668377832FB7F8944091840217
:102E70005091850260918602709187022FBF40AB0E
:102E800051AB62AB73ABE9E3F3E084879587A68728
:102E9000B787108A118A128A138A148A158A168AA9
:102EA000178A108E118E128E138E148E158E168E1A
:102EB000178E10A211A212A213A214A215A216A27A
:102EC00017A210A611A612A613A614A615A616A63A
:102ED00017A610AA11AA12AA13AA14AA15AA80E06A
:102EE00090E0A0ECBFE380839183A283B38310863C
:102EF0001186128613868FE692E1A3E8BAE38483F3
:102F00009583A683B7832FB7F8948091840290911C
:102F10008502A0918602B09187022FBF80AB91AB52
:102F2000A2ABB3ABE8E8F2E0128215828FE391E046
:102F30009183808310868EE1818781E082878387F9
:102F4000DF91CF911F910F91FF90EF90DF90CF9085
:102F5000BF90AF909F908F9008958F929F92AF9265
:102F6000BF92CF92DF92EF92FF92CF93DF93EC016B
:102F7000688179818A819B8161157105810591053F
:102F800021F464E279ED8BE597E02DE133EF41E048
:102F900050E00E94651849015A019B01AC01A7EA63
:102FA000B1E40E9484186B017C01ACEEB4EFA50182
:102FB00094010E949218DC01CB018C0D9D1DAE1D69
:102FC000BF1DB7FF03C00197A109B048888399834B
:102FD000AA83BB83BC01CD019F77DF91CF91FF9086
:102FE000EF90DF90CF90BF90AF909F908F9008951B
:102FF0008F929F92AF92BF92CF92DF92EF92FF9209
:1030000060910C0170910D0180910E0190910F0162
:10301000611571058105910521F464E279ED8BE577
:1030200097E02DE133EF41E050E00E94651849013F
:103030005A019B01AC01A7EAB1E40E9484186B011C
:103040007C01ACEEB4EFA50194010E949218DC0162
:10305000CB018C0D9D1DAE1DBF1DB7FF03C0019799
:10306000A109B04880930C0190930D01A0930E012B
:10307000B0930F01BC01CD019F77FF90EF90DF90DF
:10308000CF90BF90AF909F908F90089560930C0168
:1030900070930D0180930E0190930F010895F9999B
:1030A000FECF92BD81BDF89A992780B50895262F4D
:1030B000F999FECF1FBA92BD81BD20BD0FB6F8941D
:1030C000FA9AF99A0FBE01960895052E97FB1EF401
:1030D00000940E947C1857FD07D00E94971807FCA7
:1030E00003D04EF40C947C18509540953095219562
:1030F0003F4F4F4F5F4F0895909580957095619524
:103100007F4F8F4F9F4F08950E94B918A59F900D34
:10311000B49F900DA49F800D911D11240895B7FFB9
:103120000C9484180E948418821B930B0895A1E2CA
:103130001A2EAA1BBB1BFD010DC0AA1FBB1FEE1F31
:10314000FF1FA217B307E407F50720F0A21BB30B7C
:10315000E40BF50B661F771F881F991F1A9469F7F8
:1031600060957095809590959B01AC01BD01CF0154
:103170000895A29FB001B39FC001A39F700D811D50
:103180001124911DB29F700D811D1124911D089570
:103190005058BB27AA270E94E0180C945A1A0E9484
:1031A0004C1A38F00E94531A20F039F49F3F19F45A
:1031B00026F40C94491A0EF4E095E7FB0C94431A9C
:1031C000E92F0E946B1A58F3BA1762077307840736
:1031D000950720F079F4A6F50C948D1A0EF4E0957D
:1031E0000B2EBA2FA02D0B01B90190010C01CA01C1
:1031F000A0011124FF27591B99F0593F50F4503E6C
:1032000068F11A16F040A22F232F342F4427585F5D
:10321000F3CF469537952795A795F0405395C9F775
:103220007EF41F16BA0B620B730B840BBAF091502D
:10323000A1F0FF0FBB1F661F771F881FC2F70EC0CC
:10324000BA0F621F731F841F48F48795779567959F
:10325000B795F7959E3F08F0B0CF9395880F08F08B
:103260009927EE0F9795879508950E941F1A08F4E5
:1032700081E008950E944E190C945A1A0E94531A24
:1032800058F00E944C1A40F029F45F3F29F00C944A
:10329000431A51110C948E1A0C94491A0E946B1AFD
:1032A00068F39923B1F3552391F3951B550BBB2775
:1032B000AA2762177307840738F09F5F5F4F220FBA
:1032C000331F441FAA1FA9F335D00E2E3AF0E0E8B1
:1032D00032D091505040E695001CCAF72BD0FE2FFB
:1032E00029D0660F771F881FBB1F2617370748078F
:1032F000AB07B0E809F0BB0B802DBF01FF27935847
:103300005F4F3AF09E3F510578F00C94431A0C94AD
:103310008E1A5F3FE4F3983ED4F3869577956795D0
:10332000B795F7959F5FC9F7880F911D969587957B
:1033300097F90895E1E0660F771F881FBB1F62179A
:1033400073078407BA0720F0621B730B840BBA0B58
:10335000EE1F88F7E09508950E94B3196894B111A3
:103360000C948E1A08950E94731A88F09F5798F053
:10337000B92F9927B751B0F0E1F0660F771F881F7A
:10338000991F1AF0BA95C9F714C0B13091F00E9494
:103390008D1AB1E008950C948D1A672F782F882725
:1033A000B85F39F0B93FCCF3869577956795B395BB
:1033B000D9F73EF490958095709561957F4F8F4F2A
:1033C0009F4F0895E89409C097FB3EF4909580952F
:1033D000709561957F4F8F4F9F4F9923A9F0F92FDB
:1033E00096E9BB279395F695879577956795B79559
:1033F000F111F8CFFAF4BB0F11F460FF1BC06F5F3F
:103400007F4F8F4F9F4F16C0882311F096E911C050
:10341000772321F09EE8872F762F05C0662371F071
:1034200096E8862F70E060E02AF09A95660F771F85
:10343000881FDAF7880F9695879597F90895990F61
:103440000008550FAA0BE0E8FEEF16161706E8076E
:10345000F907C0F012161306E407F50798F0621B8F
:10346000730B840B950B39F40A2661F0232B242B64
:10347000252B21F408950A2609F4A140A6958FEF83
:10348000811D811D089597F99F6780E870E060E0D5
:1034900008959FEF80EC089500240A9416161706ED
:1034A00018060906089500240A9412161306140635
:1034B00005060895092E0394000C11F4882352F098
:1034C000BB0F40F4BF2B11F460FF04C06F5F7F4F50
:1034D0008F4F9F4F089557FD9058440F551F59F037
:1034E0005F3F71F04795880F97FB991F61F09F3FF1
:1034F00079F087950895121613061406551FF2CF1A
:103500004695F1DF08C0161617061806991FF1CF69
:1035100086957105610508940895E894BB27662790
:103520007727CB0197F908950E941F1A08F48FEFAF
:1035300008950E94AC1A0C945A1A0E944C1A38F042
:103540000E94531A20F0952311F00C94431A0C9406
:10355000491A11240C948E1A0E946B1A70F3959FCD
:10356000C1F3950F50E0551F629FF001729FBB277A
:10357000F00DB11D639FAA27F00DB11DAA1F649F16
:103580006627B00DA11D661F829F2227B00DA11DC9
:10359000621F739FB00DA11D621F839FA00D611D4F
:1035A000221F749F3327A00D611D231F849F600D70
:1035B000211D822F762F6A2F11249F5750409AF099
:1035C000F1F088234AF0EE0FFF1FBB1F661F771F25
:1035D000881F91505040A9F79E3F510580F00C94F0
:1035E000431A0C948E1A5F3FE4F3983ED4F3869509
:1035F00077956795B795F795E7959F5FC1F7FE2B90
:10360000880F911D9695879597F90895FA01EE0F09
:10361000FF1F309621053105A1F16115710561F497
:103620008038BFE39B0749F168949038810561F0C9
:103630008038BFEF9B0741F099234AF5FF3FE10532
:103640003105210519F1E8940894E795D901AA23D9
:1036500029F4AB2FBE2FF85FD0F310C0FF5F70F4DA
:10366000A695E0F7F73950F019F0FF3A38F49F7754
:103670009F930DD00F9007FC9058089546F00C943E
:10368000491A60E070E080E89FE308954FE79F7774
:103690005F934F933F932F930E94061C2F913F916E
:1036A0004F915F910E94991A0C94631B0E941F1AFC
:1036B000880B990B089529F416F00C94431A0C9476
:1036C0008D1A0C94491A0E94731AA8F39638A0F721
:1036D00007F80F92E8942BE33AEA48EB5FE70E9481
:1036E000AF1A0F920F920F924DB75EB70F920E94D2
:1036F0004E1CE0E2F1E00E94951B4F915F91EF912B
:10370000FF91E595EE1FFF1F49F0FE57E068442743
:10371000EE0F441FFA95E1F74195550B0E94C81B27
:103720000F9007FE0C94BC1B0895DF93CF931F935B
:103730000F93FF92EF92DF927B018C01689406C099
:10374000DA2EEF010E94AC1AFE01E894A5912591B2
:10375000359145915591A6F3EF010E94E018FE01C5
:103760009701A801DA9469F7DF90EF90FF900F912D
:103770001F91CF91DF9108959B01AC0160E070E053
:1037800080E89FE30C943A190C94431A0C94821C21
:103790000E94731AD8F39923C9F3940F511DA3F310
:1037A0009150504094F059F0882332F0660F771F03
:1037B000881F91505040C1F79E3F51052CF7880F4C
:1037C000911D9695879597F908955F3FACF0983EC7
:1037D0009CF0BB27869577956795B79508F4B160FF
:1037E0009395C1F7BB0F58F711F460FFE8CF6F5FF7
:1037F0007F4F8F4F9F4FE3CF0C948E1A16F00C948F
:10380000821C0C94491A68940C94431A0E94731AEF
:10381000A8F39923C1F3AEF3DF93CF931F930F93D4
:10382000FF92C92FDD2788232AF02197660F771F83
:10383000881FDAF720E030E040E85FEB9FE388394B
:1038400020F0803E38F021968F770E94C918E8E476
:10385000F1E004C00E94C918E5E7F1E00E94951B61
:103860008B01BE01EC01FB2E6F5771097595771F17
:10387000880B990B0E94E41928E132E741E35FE3EA
:103880000E94AC1AAF2D9801AE01FF900F911F91CD
:10389000CF91DF910E94E0180C945A1AFA01DC01D2
:1038A000AA0FBB1F9B01AC01BF5728F42227332767
:1038B0004427507820C0B75190F4AB2F0024469590
:1038C00037952795011CA395D2F3002071F0220FA4
:1038D000331F441FB395DAF30ED00C94C81861302F
:1038E0007105A0E88A07B94630F49B01AC01662750
:1038F000772788279078309621F020833183428380
:10390000538308959F3F31F0915020F48795779528
:103910006795B795880F911D9695879597F90895A6
:1039200097FB072E16F4009407D077FD09D00E946C
:10393000AA1C07FC05D03EF4909581959F4F0895F1
:10394000709561957F4F0895EE0FFF1F0590F491DC
:10395000E02D0994AA1BBB1B51E107C0AA1FBB1F86
:10396000A617B70710F0A61BB70B881F991F5A950B
:10397000A9F780959095BC01CD01089581E090E074
:0A398000F8940C94C31CF894FFCFD8
:10398A00FFFFFFFF00E1000000000000010000004F
:10399A0000C1808100000000000000CA016010F030
:1039AA0002E001EB011803F40200000000DB02D080
:1039BA0002ED02C202C902C602C302000000003AB6
:1039CA00056E616E00696E66006F7666000D0A000C
:1039DA00426F617264205265736574004D617000B4
:1039EA004D617020457261736564202D204D6170B0
:1039FA0070696E67205374617274656400593A2065
:063A0A0000583A20000004
:00000001FF
