:100000000C94A9010C94D1010C94D1010C94D10150
:100010000C94D1010C94D1010C94D1010C945F0C7F
:100020000C94D1010C94F20B0C94080F0C947A0FE1
:100030000C94D1010C94D1010C94D1010C94D101F8
:100040000C94D1010C94D1010C94D1010C94D101E8
:100050000C94D1010C94D1010C94D1010C94370A69
:100060000C94D1010C94D1010C94D1010C94D101C8
:100070000C94D1010C94D1010C94D1010C94D101B8
:100080000C94CF0C0C94D1010C94D1010C94D1019F
:100090000C94810A0C94D1010C94D1010C94D101DF
:1000A0000C94D1010C94D1010C94D10105020802E9
:1000B000F701FB0101022902290229020C021002A8
:1000C00014021A021E0229022402A204A704AC048C
:1000D000B604C0040A050A050A05CA04D404DE04ED
:1000E000E804F5040A05FD042A0C360C490C360C0C
:1000F000490C490C2A0C2A0C490C490C360C490CA9
:10010000360C2A0C9A0CA60CB90CA60CB90CB90C1E
:100110009A0C9A0CB90CB90CA60CB90CA60C9A0C3A
:1001200005A84CCDB2D44EB93836A9020C50B991BD
:100130008688083CA6AAAA2ABE000000803F0800C4
:100140000000BE922449123EABAAAA2ABECDCCCC56
:100150004C3E00000080BEABAAAAAA3E00000000F0
:10016000BF000000803F0000000000084178D3BBC2
:100170004387D1133D190E3CC3BD4282AD2B3E686F
:10018000EC8276BED98FE1A93E4C80EFFFBE01C460
:10019000FF7F3F000000000007634236B79BD8A7EF
:1001A0001A39685618AEBAAB558C1D3CB7CC57639C
:1001B000BD6DEDFD753EF6177231BF000000803F4A
:1001C00020483A200020593A2000583A2000205474
:1001D0006F74616C3A200020496E74656772616CBF
:1001E00020636F6D706F6E656E743A2000204469F5
:1001F00066666572656E7469616C20636F6D706FA1
:100200006E656E743A20002050726F706F72746960
:100210006F6E616C20636F6D706F6E656E743A20E7
:1002200000204572726F7220496E74656772616C4E
:100230003A00204572726F722044656C74613A0016
:100240004572726F723A2000070605040100080A21
:100250000B0C0D0900000000240027002A002D00CF
:10026000300000000000250028002B002E00310087
:10027000000000002300260029002C002F000404A9
:10028000040404030405020202020403020202023F
:100290000606060606060404020202040404080216
:1002A00001104080401020408040800802040180FE
:1002B0004020100201108010204040200000000269
:1002C00000090F0000030401000C00000000000002
:1002D0000000000000000000000000080B00020207
:1002E00002010009040000010202000005240010C0
:1002F000010524010101042402060524060001076A
:1003000005810310004009040100020A00000007F3
:1003100005020240000007058302400000040309B3
:100320000412010002EF0201404123368000010166
:1003300002030141726475696E6F204C4C430041A9
:10034000726475696E6F204C656F6E6172646F00C8
:10035000DB1511241FBECFEFDAE0DEBFCDBF11E009
:10036000A0E0B1E0E6ECFBE302C005900D92A436FC
:10037000B107D9F724E0A4E6B1E001C01D92AD3485
:10038000B207E1F711E0C9EAD1E004C02197FE010C
:100390000E94D61DC83AD107C9F70E942D140C94AB
:1003A000E11D0C940000FC018485958597FD0BC030
:1003B0009FB7F89482E08093E9008091F2009FBF9C
:1003C00090E0019608959FB7F89482E08093E90049
:1003D0008091F2009FBF90E0089590E0FC0131977A
:1003E000EF30F105B0F5EA5AFF4F0C94D61D80911D
:1003F00080008F7703C0809180008F7D8093800084
:10040000089580918000877FF9CF84B58F7702C0EF
:1004100084B58F7D84BD0895809190008F7707C04B
:10042000809190008F7D03C080919000877F8093A2
:10043000900008958091C0008F7703C08091C00024
:100440008F7D8093C00008958091C200877F809344
:10045000C2000895CF93DF93282F30E0F901E454D0
:10046000FD4F8491F901E356FD4FD491F901E25813
:10047000FD4FC491CC2391F081110E94ED01EC2F2E
:10048000F0E0EE0FFF1FE059FD4FA591B491EC9104
:10049000ED2381E090E021F480E002C080E090E074
:1004A000DF91CF9108953FB7F8948091F201909138
:1004B000F301A091F401B091F50126B5A89B05C008
:1004C0002F3F19F00196A11DB11D3FBFBA2FA92FD3
:1004D000982F8827820F911DA11DB11DBC01CD0150
:1004E00042E0660F771F881F991F4A95D1F708953C
:1004F00085ED8093BC008091BC0084FDFCCF109200
:10050000C70108954091A301262F30E0240F311D2B
:1005100021323105DCF42091C7012430C9F4FC01FB
:1005200080E090E0861758F43091A3012191DC011E
:10053000AD57BE4FA30FB11D2C930196F3CF809101
:10054000A301680F6093A30180E0089581E00895FE
:1005500082E0089508958FEF9FEF08958FEF9FEF4A
:1005600008958091820190E0919581959109089577
:10057000CF93DF93CB01EA01642F0E948202CE0168
:10058000DF91CF910895CF93DF931F92CDB7DEB760
:10059000698361E0CE0101960E94820281E090E0D1
:1005A0000F90DF91CF910895089580E090E0089535
:1005B0000E94710E90E008950F931F93CF93DF93E5
:1005C0001F92CDB7DEB78C01FC018485958597FF1E
:1005D0000EC0CE0101960E94430E019719F4898145
:1005E00090E002C08FEF9FEFF80195878487F801B4
:1005F000848595850F90DF91CF911F910F9108957C
:10060000CF93DF931F92CDB7DEB7FC01848595852C
:1006100097FD05C02FEF3FEF358724870BC0CE0134
:1006200001960E94430E019719F4898190E002C05F
:100630008FEF9FEF0F90DF91CF9108950E94DC1D07
:10064000CF93DF93C0E5D3E06C897D898E899F8944
:100650000E94821A0E94151385E491E00E94B8114D
:10066000688D798D8A8D9B8D0E94821A0E94151348
:1006700085E491E00E94B8116091360370913703D0
:10068000072E000C880B990B0E94821A22E539E490
:100690004DE95BE30E94C61B2EEA37E448E952E4C9
:1006A0000E94D8192EE63BED46EB5FEB0E94331C0F
:1006B0000E94151381E491E00E94B811C8E4D3E0D0
:1006C00068817981072E000C880B990B0E94821A91
:1006D0002A813B814C815D810E9461190E94151322
:1006E00084E491E00E94B811C0E4D3E0688179818C
:1006F000072E000C880B990B0E94821A2A813B81DD
:100700004C815D810E9461190E94151384E491E07F
:100710000E94B811C8E3D3E068817981072E000CEC
:10072000880B990B0E94821A2A813B814C815D8142
:100730000E9461190E94151387E491E00E94B8118C
:1007400089E491E0DF91CF910C94B8111F93CF937E
:10075000DF93282F30E0F901E454FD4F8491F90133
:10076000E356FD4FD491F901E258FD4FC491CC23DB
:10077000C1F0162F81110E94ED01EC2FF0E0EE0F79
:10078000FF1FEE59FD4FA591B4919FB7F894111139
:1007900004C08C91D095D82302C0EC91DE2BDC9361
:1007A0009FBFDF91CF911F910895CF93DF9390E08A
:1007B000FC01E356FD4F2491FC01E258FD4F84916A
:1007C000882361F190E0880F991FFC01EC5AFD4FDE
:1007D000C591D491FC01EE59FD4FA591B4916111E1
:1007E00009C09FB7F8948881209582238883EC9173
:1007F0002E230BC0623061F49FB7F8948881322FAA
:10080000309583238883EC912E2B2C939FBF06C0B9
:100810008FB7F894E8812E2B28838FBFDF91CF917B
:100820000895CF93DF93EC01888581110FC081E09B
:1008300088878A85882311F062E001C060E089859D
:100840000E94D5038FE090E00197F1F789850E941F
:100850002A022B8530E041E02817390709F440E0EF
:10086000842FDF91CF910895AF92BF92CF92DF9204
:10087000EF92FF920F931F93CF93DF938C016A0146
:100880007B0120E030E0A901C701B6010E94CE192A
:10089000682F661F6627661FF80181810E94A603E4
:1008A00020E030E0A901C701B6010E94711B1816B3
:1008B00024F0F7FAF094F7F8F09420E030E0A90182
:1008C000C701B6010E94CE1987FD12C0F801A280AF
:1008D000B380D481C58195014D2F5C2FC701B6012E
:1008E0000E94711B181644F05601DE2DCF2D04C056
:1008F000A12CB12CD0E0C0E0B5018D2F9C2F0E941F
:100900004A1A6B017C01EB01F801108161E0812F33
:100910000E94D503209709F480C0CF3FD10509F488
:100920007EC0E12FF0E0E454FD4FE4918E2F90E083
:10093000FC013197EF30F10508F06CC0EB59FF4F27
:100940000C94D61D84B5806884BDC7BC76C084B5C0
:10095000806284BDC8BC71C0809180008068809333
:100960008000D0928900C092880067C0809180008A
:10097000806280938000D0928B00C0928A005DC01C
:1009800080918000886080938000D0928D00C0921A
:100990008C0053C080919000806880939000D0922A
:1009A0009900C092980049C0809190008062809325
:1009B0009000D0929B00C0929A003FC0809190001E
:1009C000886080939000D0929D00C0929C0035C0BA
:1009D0008091C00080688093C0008091C0008F7BB0
:1009E0008093C000C092CF0028C08091C000806278
:1009F0008093C000C092D00020C08091C200886067
:100A00008093C2008091C2008B7F8093C200C0920D
:100A1000D20013C0C038D10514F460E001C061E019
:100A2000812FDF91CF911F910F91FF90EF90DF9079
:100A3000CF90BF90AF900C94A603DF91CF911F9100
:100A40000F91FF90EF90DF90CF90BF90AF900895FF
:100A5000823108F08251E82FF0E0E85BFD4FE4912D
:100A600080917B00E3FB222720F930E095E0220F04
:100A7000331F9A95E1F78F7D282B20937B00E77039
:100A8000E064E0937C0080917A00806480937A0037
:100A900080917A0086FDFCCF8091780020917900CA
:100AA00090E0922B0895CF93DF93C5E3D3E0888144
:100AB0000E9428059A838983DF91CF9108958F92B0
:100AC0009F92AF92BF92CF92DF92EF92FF926B0113
:100AD0007C010E9453024B015C01C114D104E1046A
:100AE000F104F1F00E945302DC01CB01881999094D
:100AF000AA09BB09883E9340A105B10570F321E026
:100B0000C21AD108E108F10888EE880E83E0981E29
:100B1000A11CB11CC114D104E104F10419F7DDCF0B
:100B2000FF90EF90DF90CF90BF90AF909F908F900D
:100B300008952FB7F8946091EE017091EF018091C4
:100B4000F0019091F1012FBF08952F923F924F92A3
:100B50005F926F927F928F929F92AF92BF92CF924D
:100B6000DF92EF92FF920F931F93CF93DF93CDB756
:100B7000DEB72A970FB6F894DEBF0FBECDBF9A87B7
:100B8000898749835A836B837C83480159010E947A
:100B900099056B017C01E985FA8580A991A9A2A933
:100BA000B3A9A7019601281B390B4A0B5B0BCA019D
:100BB000B9010E94821A2B013C01A985BA85D09601
:100BC000CD92DD92ED92FC92D397A50194016981BB
:100BD0007A818B819C810E9461196B017C019B0150
:100BE000AC01E985FA8560A571A582A593A50E944F
:100BF0006119A30192010E94D8196D837E838F83AE
:100C0000988729813A814B815C81A985BA85909624
:100C10002D933D934D935C939397FD0184A295A2F0
:100C2000A6A2B7A29896CD92DD92ED92FC929B97E8
:100C3000A7019601C301B2010E94C61BE985FA858E
:100C400024A535A546A557A50E9462192B013C0194
:100C5000A985BA859C966D937D938D939C939F9760
:100C60002D913D914D915C91C701B6010E94C61B2B
:100C70004B015C01E985FA85608B718B828B938BCC
:100C800020853185428553856D817E818F81988550
:100C90000E94C61B69837A838B839C83A985BA854E
:100CA00058966D937D938D939C935B9714962D919D
:100CB0003D914D915C911797C301B2010E94C61BF3
:100CC0002B013C01E985FA85648B758B868B978BAC
:100CD00029813A814B815C81C501B4010E9462196E
:100CE000A30192010E946219162F072F382E292E78
:100CF000A985BA851C968D909D90AD90BC901F974C
:100D00002401350177FA709477F87094A301920169
:100D10000E94CE1987FD11C0A5019401612F702F8B
:100D2000832D922D0E94711B18164CF0812F902F4D
:100D3000A32DB22D4C015D0102C053014201E98592
:100D4000FA85848E958EA68EB78E84A9882309F4A1
:100D500054C080E492E00E94FA12C701B6010E94DA
:100D6000151382E392E00E94FA126D817E818F81D9
:100D700098850E94151381E292E00E94FA12A985DB
:100D8000BA859C966D917D918D919C919F970E94C3
:100D9000151387E092E00E94FA12E985FA856089CE
:100DA0007189828993890E9415138DEE91E00E94CA
:100DB000FA12A985BA8558966D917D918D919C9175
:100DC0005B970E94151387ED91E00E94FA12E98566
:100DD000FA8564897589868997890E9415138EEC36
:100DE00091E00E94FA12A985BA855C966D917D9179
:100DF0008D919C915F970E94EB12E985FA8585A9F8
:100E0000882361F020A131A142A153A164A175A161
:100E100086A197A10E94D8190E94EB12A985BA85D4
:100E20005C966D917D918D919C915F972A960FB6FE
:100E3000F894DEBF0FBECDBFDF91CF911F910F9110
:100E4000FF90EF90DF90CF90BF90AF909F908F90EA
:100E50007F906F905F904F903F902F9008958F926A
:100E60009F92AF92BF92CF92DF92EF92FF920F9339
:100E70001F93CF93DF93C0E5D3E06C897D898E8982
:100E80009F890E94821A8B019C01409172015091AE
:100E90007301609174017091750183EF92E00E947B
:100EA000A5054B015C01688D798D8A8D9B8D0E9413
:100EB000821A8B019C0140916E0150916F016091EB
:100EC0007001709171018DEB92E00E94A5056B019C
:100ED0007C01B501A4018FE293E00E943404B701C4
:100EE000A60189E293E0DF91CF911F910F91FF90CE
:100EF000EF90DF90CF90BF90AF909F908F900C9429
:100F000034044F925F926F927F928F929F92AF9232
:100F1000BF92CF92DF92EF92FF92CF93DF9300D0F8
:100F200000D0CDB7DEB780917A0181110DC00E944B
:100F3000990560937601709377018093780190937F
:100F4000790181E080937A01809136039091370393
:100F5000833C914034F4412C512C80E4682E762C53
:100F600003C0412C512C32010E949905C09076019A
:100F7000D0907701E0907801F0907901DC01CB010D
:100F80008C199D09AE09BF09853F9140A105B105A6
:100F900008F497C00E9499056093760170937701D9
:100FA00080937801909379010E94A71820ED37E093
:100FB00040E050E00E94FE18685E7340810991098C
:100FC0000E94821A2FE632E143E85AE30E94C61BD0
:100FD0006B017C010E94A71820ED37E040E050E053
:100FE0000E94FE18685E7340810991090E94821A6E
:100FF0002FE632E143E85AE30E94C61B4B015C0135
:10100000A7019601C701B6010E94C61B69837A83B6
:101010008B839C83A5019401C501B4010E94C61B6A
:101020009B01AC0169817A818B819C810E9462194C
:101030004B015C0120E030E040E85FE30E94711B5F
:1010400087FFB2CFC501B4010E947E1B20E030E0D3
:1010500040E050EC0E94C61BA50194010E94D819E3
:101060000E94911C9B01AC01C701B6010E94C61BE6
:1010700020E030E040E450E40E94C61B20E030E075
:10108000A9010E9462196B017C019B01AC01C301A3
:10109000B2010E9462196093720170937301809390
:1010A000740190937501A7019601C301B2010E94DA
:1010B000611960936E0170936F018093700190933A
:1010C00071010F900F900F900F90DF91CF91FF90D3
:1010D000EF90DF90CF90BF90AF909F908F907F90D8
:1010E0006F905F904F9008954F925F926F927F92B2
:1010F0008F929F92AF92BF92CF92DF92EF92FF9228
:101100000F931F93CF93DF9300D000D0CDB7DEB7FE
:10111000C090B302D090B402E090B502F090B60255
:1011200080916A0190916B01A0916C01B0916D0169
:101130004091B3025091B4026091B5027091B60231
:1011400040936A0150936B0160936C0170936D0141
:10115000C81AD90AEA0AFB0A4091B9025091BA02A8
:101160006091BB027091BC02809166019091670111
:10117000A0916801B09169018090B9029090BA0283
:10118000A090BB02B090BC02809266019092670171
:10119000A0926801B09269018A019B01081B190B9A
:1011A0002A0B3B0B09831A832B833C83B8016C0DFC
:1011B0007D1D072E000C880B990B0E94821A2BEACA
:1011C00031E64CE15EE30E94C61B2B013C0180909E
:1011D000580390905903A0905A03B0905B03C50147
:1011E000B4010E94D3199B01AC01C301B2010E945A
:1011F000C61B20E030E040E05FE30E94C61B9B017D
:10120000AC01609150037091510380915203909111
:1012100053030E94621960935003709351038093AB
:10122000520390935303C501B4010E94831C9B0198
:10123000AC01C301B2010E94C61B20E030E040E0D7
:101240005FE30E94C61B9B01AC0160915403709147
:10125000550380915603909157030E946219609341
:1012600054037093550380935603909357036981F9
:101270007A816C197D09072E000C880B990B0E944E
:10128000821A2BEA31E64CE15EE30E94C61B20E0A5
:1012900030E04CE053E40E94D819A50194010E946B
:1012A00062194B015C012BED3FE049E450EC0E94D8
:1012B000CE1987FF09C09BED492E9FE0592E99EC6E
:1012C000692E90E4792E03C0412C512C32012BED74
:1012D0003FE049E450E4C501B4010E94711B1816B7
:1012E00044F48BED482E8FE0582E89EC682E80EC6C
:1012F000782EA3019201C501B4010E946219609386
:1013000058037093590380935A0390935B030E9490
:10131000990580906D0390906E03A0906F03B0903C
:101320007003681979098A099B090E94801A4B0188
:101330005C010E94990560936D0370936E03809326
:101340006F0390937003B601DD0C880B990B0E941C
:10135000821A28E530EA4BE850E40E94C61BA5013A
:1013600094010E94D8190E944A1A609364037093F2
:101370006503809366039093670329813A81B901DD
:10138000330F880B990B0E94821A28E530EA4BE84C
:1013900050E40E94C61BA50194010E94D8190E9426
:1013A0004A1A609368037093690380936A03909369
:1013B0006B0380916C03882309F444C08AEC91E0AC
:1013C0000E94FA1260915003709151038091520370
:1013D000909153030E94151385EC91E00E94FA123C
:1013E0006091540370915503809156039091570377
:1013F0000E94151380EC91E00E94FA1220EE3EE26A
:1014000045E652E4609158037091590380915A0364
:1014100090915B030E94C61B0F900F900F900F904E
:10142000DF91CF911F910F91FF90EF90DF90CF90C0
:10143000BF90AF909F908F907F906F905F904F90F4
:101440000C94EB120F900F900F900F90DF91CF91B3
:101450001F910F91FF90EF90DF90CF90BF90AF90D2
:101460009F908F907F906F905F904F9008951F9204
:101470000F920FB60F9211242F933F938F939F9348
:10148000AF93BF938091EE019091EF01A091F00195
:10149000B091F1013091ED0123E0230F2D3720F4BD
:1014A0000196A11DB11D05C026E8230F0296A11DBE
:1014B000B11D2093ED018093EE019093EF01A09375
:1014C000F001B093F1018091F2019091F301A091AC
:1014D000F401B091F5010196A11DB11D8093F201B7
:1014E0009093F301A093F401B093F501BF91AF91F4
:1014F0009F918F913F912F910F900FBE0F901F9052
:1015000018951F920F920FB60F9211242F933F93AD
:101510004F935F936F937F938F939F93AF93BF93FB
:10152000EF93FF938091B900887F803609F49CC0C7
:1015300068F5883209F45BC090F4803109F454C036
:1015400038F4882309F4F2C0883009F44DC0F2C0A1
:10155000883109F44CC0803209F45DC0EBC080349E
:1015600009F468C048F4803309F455C0883309F0A1
:10157000E1C08093C601D4C0803509F44FC08835DE
:1015800009F45DC0883409F0D5C0D2C0883909F4A7
:10159000C3C0A8F4883709F467C038F4883609F462
:1015A00063C0803709F460C0C5C0883809F4B4C08E
:1015B000803909F45FC0803809F0BCC05BC0803B53
:1015C00009F484C038F4803A09F466C0883A09F412
:1015D0007DC0B0C0803C09F4A3C0883C09F4A0C021
:1015E000883B09F486C0A6C08091EC0110C09091A0
:1015F000EB018091EA01981770F5E091EB0181E031
:101600008E0F8093EB01F0E0E653FE4F80818093D4
:10161000BB0085EC82C08093C6018AC0E091EB01DB
:1016200081E08E0F8093EB018091BB00F0E0E653E8
:10163000FE4F80839091EB018091EA016AC0E091B6
:10164000EB0181E08E0F8093EB018091BB00F0E015
:10165000E653FE4F80838091C901811169C081E00A
:101660008093C80184EA5DC083E08093C701109233
:10167000C501CFCF8091C501803208F04DC0E09107
:10168000C50181E08E0F8093C5018091BB00F0E021
:10169000EB55FE4F8083BDCF85EC8093BC0010924C
:1016A000C7018091C501803230F4E091C501F0E0BE
:1016B000EB55FE4F10826091C50170E085EA91E024
:1016C000E0E0F0E009951092C50134C084E0809319
:1016D000C7011092A4011092A301E0E0F0E0099587
:1016E0008091A301811105C081E08093A301109234
:1016F0008301E091A40181E08E0F8093A401F0E0CA
:10170000ED57FE4F80818093BB009091A4018091A2
:10171000A301981708F47DCF85E88093BC000AC028
:1017200085EC8093BC001092C70104C01092C601E2
:101730000E947802FF91EF91BF91AF919F918F919D
:101740007F916F915F914F913F912F910F900FBEBD
:101750000F901F9018950F931F93CF93DF93EC0179
:1017600061E086E00E94D50361E086E00E94A60366
:1017700004E110E08E810E942805BC01990F880BBE
:10178000990B0E94821A9B01AC016A817B818C813A
:101790009D810E9462196A837B838C839D836AE0AA
:1017A00070E080E090E00E945F050150110911F7A0
:1017B00020E030E040EA51E46A817B818C819D81A8
:1017C0000E94D8196A837B838C839D8361E086E0C5
:1017D0000E94D50360E086E0DF91CF911F910F91C9
:1017E0000C94A6031F920F920FB60F9211242F9301
:1017F0003F934F935F936F937F938F939F93AF9399
:10180000BF93CF93EF93FF93CCB1C2FBCC27C0F92A
:101810008AE10E942A0221E0892B09F420E02C278A
:101820008091B202880F9C2F990F990F892BE22F7C
:10183000EE0FEE0FEE0F8E2BE091B102E82B8E2F04
:1018400090E0FC013197EE30F10518F5EC58FF4FB0
:101850000C94D61D8091B3029091B402A091B50270
:10186000B091B6020197A109B1090BC08091B302F2
:101870009091B402A091B502B091B6020196A11D5B
:10188000B11D8093B3029093B402A093B502B093BC
:10189000B6022093B202C093B102FF91EF91CF91B3
:1018A000BF91AF919F918F917F916F915F914F9178
:1018B0003F912F910F900FBE0F901F9018951F9280
:1018C0000F920FB60F9211242F933F934F935F9374
:1018D0006F937F938F939F93AF93BF93CF93EF9328
:1018E000FF9387E10E942A02C1E0892B09F4C0E03E
:1018F00087E00E942A0221E0892B09F420E02C27AE
:101900008091B802880F9C2F990F990F892BE22F95
:10191000EE0FEE0FEE0F8E2BE091B702E82B8E2F1D
:1019200090E0FC013197EE30F10518F5EE57FF4FCE
:101930000C94D61D8091B9029091BA02A091BB027D
:10194000B091BC020197A109B1090BC08091B90205
:101950009091BA02A091BB02B091BC020196A11D68
:10196000B11D8093B9029093BA02A093BB02B093C9
:10197000BC022093B802C093B702FF91EF91CF91C0
:10198000BF91AF919F918F917F916F915F914F9197
:101990003F912F910F900FBE0F901F9018951F929F
:1019A0000F920FB60F9211248F939F93AF93BF9313
:1019B0008091F6019091F701A091F801B091F901A1
:1019C0000196A11DB11D8093F6019093F701A0939C
:1019D000F801B093F90180914A02811103C081E0BE
:1019E00080934A02BF91AF919F918F910F900FBE4C
:1019F0000F901F901895EAEFF1E020E030E0A0850D
:101A0000B185AB2B81F4AAE0A29FF001A39FF00D5A
:101A10001124E650FE4F9187808740835183628373
:101A20007383822F08952F5F3F4F3A9628303105F8
:101A300031F78FEF08958091570281110DC082E038
:101A40008093530284E080935402109256021092C5
:101A5000550281E08093570283E592E0089540911A
:101A60004D0250914E0220914B0230914C02421790
:101A70005307B4F49091E8009570E1F39091E80079
:101A800092FD19C08093F10080914D0290914E0219
:101A900001968F739927892B19F48EEF8093E800B4
:101AA00080914D0290914E02019690934E02809348
:101AB0004D0281E0089580E00895DF92EF92FF9259
:101AC0000F931F93CF93DF93D82EF92EE42E062F7A
:101AD00010E0C8010196880F0E942F0D83E00E943C
:101AE0002F0DCD2DDF2D0C0F1D1FC017D10789F035
:101AF000E7FE03C0FE01849101C088810E942F0D82
:101B0000F82E80E00E942F0D8F2121968111EDCFBC
:101B100001C081E0DF91CF911F910F91FF90EF9075
:101B2000DF900895DF92EF92FF920F931F93CF9370
:101B3000DF93D82E8A017B01E40EF51EEB01CE1552
:101B4000DF0571F0D7FE03C0FE01849101C08881DA
:101B50000E942F0D21968111F2CF8FEF9FEF01C0D0
:101B6000C801DF91CF911F910F91FF90EF90DF900F
:101B700008950F931F93CF93DF931F92CDB7DEB7D6
:101B800082E0898342E450E06BED72E080E80E94DD
:101B9000920D0E941B0DDC0112960D911C91139762
:101BA0000115110589F0D801ED91FC910280F381B6
:101BB000E02DBE016F5F7F4FC801099597FD04C0FE
:101BC000F80100851185ECCF89810F90DF91CF91CD
:101BD0001F910F910895615030F02091F100FC01A8
:101BE00020830196F8CF289884E680935F020895B9
:101BF000CF92DF92EF92FF920F931F93CF93DF93D9
:101C00006C017A018B01C0E0D0E0CE15DF0581F0D8
:101C1000D8016D918D01D601ED91FC910190F0817B
:101C2000E02DC6010995892B11F02196EECF7E019A
:101C3000C701DF91CF911F910F91FF90EF90DF903F
:101C4000CF900895CF93DF931F92CDB7DEB769830E
:101C5000DC01ED91FC910280F381E02D41E050E048
:101C6000BE016F5F7F4F09950F90DF91CF9108956F
:101C700083E08093E9008091F200882319F08AE3E1
:101C80008093E800089520916002211103C08FEF36
:101C90009FEF08955FB7F89422E02093E900209128
:101CA000F20030E01216130614F421E030E0422F67
:101CB000FC0184E6415038F0289880935F029091AF
:101CC000F1009193F7CF2115310521F08091F200B9
:101CD000882319F05FBFC90108958BE68093E8005F
:101CE000F9CF2FB7F89483E08093E9009091E80052
:101CF000892F807295FF04C09091F20080E4891BC7
:101D00002FBF08958F929F92AF92BF92CF92DF9292
:101D1000EF92FF920F931F93CF93DF936C017B01A0
:101D20008A0180910B01882309F45CC080916002D4
:101D3000882309F457C08091510280FF05C080912B
:101D4000E00082608093E000E801B12C8AEFA82EC9
:101D500093E0892E2AE3922E209711F4BB20D9F12B
:101D60000E94710E81110AC0AA94AA20D9F161E0E3
:101D700070E080E090E00E945F05EECF282F30E019
:101D8000C217D3070CF48C2F9FB7F8948092E90008
:101D90002091E80025FF1DC0282F30E0C21BD30B87
:101DA000F701815020F041914093F100FACFE20E0B
:101DB000F31EBB2019F09092E8000AC08091E80061
:101DC00085FD07C09092E800BB24B394209709F0EA
:101DD000B12C9FBFC1CF5D9884E68093520210164C
:101DE000110644F081E090E0F6019383828380E065
:101DF00090E001C0C801DF91CF911F910F91FF903A
:101E0000EF90DF90CF90BF90AF909F908F9008950C
:101E10001F920F920FB60F9211248F939F93809170
:101E2000E1009091E100937F9093E10083FF0FC068
:101E30001092E90091E09093EB001092EC0092E395
:101E40009093ED001092600298E09093F00082FF72
:101E500020C093E09093E9009091F200992319F04B
:101E60009AE39093E80090915202992339F090916F
:101E70005202915090935202992389F190915F02FE
:101E8000992339F090915F02915090935F029923CA
:101E900041F184FF10C08091E2008E7E81608093CA
:101EA000E2008091E1008F7E8093E10080915102F9
:101EB0008E7E806111C080FF16C08091E2008E7E10
:101EC00080618093E2008091E1008E7E8093E1004A
:101ED000809151028E7E81608093510204C05D9A90
:101EE000CDCF289AD6CF9F918F910F900FBE0F9094
:101EF0001F9018951F920F920FB60F921124CF9238
:101F0000DF92EF92FF920F931F932F933F934F9384
:101F10005F936F937F938F939F93AF93BF93EF9351
:101F2000FF93CF93DF93CDB7DEB76C97DEBFCDBF06
:101F30001092E9008091E80083FFFBC168E0CE01C8
:101F400045960E94EB0D82EF8093E8008D8987FF14
:101F500005C09091E80090FFFCCF03C09EEF9093E6
:101F6000E800982F907609F0C6C09E894F89588D59
:101F70002F89F88C91110CC0803829F4809150027F
:101F80008093F10002C01092F1001092F10045C15F
:101F9000913051F4811141C14130510509F03DC1E9
:101FA000809150028D7F0BC0933061F4811135C157
:101FB0004130510509F031C1809150028260809317
:101FC00050022BC1953049F48091E80080FFFCCF8E
:101FD000822F80688093E30020C1963009F05EC0B4
:101FE0000B8D1C8D22E01092E90010924E0210928F
:101FF0004D02F21232C010924C0210924B020E941B
:10200000B90D99E0BE016F5F7F4FDB01E92F1D9293
:10201000EA95E9F79983FA8291E09E8390EA98879E
:102020009AEF998720914D0230914E02275F3F4FE2
:102030003C832B838D831092E90010924E02109204
:102040004D0210934C0200934B0249E050E080E0B7
:102050000E94920D0E94B90DE0C010934C020093B3
:102060004B020E941B0DDC0112960D911C911397DF
:102070000115110509F4BBC0D801ED91FC91048054
:10208000F581E02DBE016B5E7F4FC8010995009779
:1020900009F0C7C0F80100851185EACF973009F42F
:1020A00045C1983021F481E08093F100B6C09930A9
:1020B00009F0B3C0837009F039C1E1E1F1E081E0DA
:1020C00031E096E32081211109C08EE78093EA0078
:1020D0001092EA008F89809360029FC08093E9008C
:1020E0003093EB0021912093EC009093ED008F5FF3
:1020F000873041F7EACF8B8D9C8D1092E9001092CA
:102100004E0210924D0290934C0280934B02898DA7
:10211000811153C08E899D89913A49F4813209F029
:1021200005C147E050E064E071E080E0BBC091325F
:1021300009F0FCC0833269F48F89988DA0E0B0E08B
:102140008093000190930101A0930201B0930301D9
:1021500064C0803269F48091E80082FFFCCF67E0C0
:1021600084E091E00E94EB0D8BEF8093E80055C076
:10217000823209F052C08F8980930B01EEEFFFE7A6
:10218000859194918B3F9C4D19F0E0E0F8E002C0FE
:10219000EEEFFAE08091040190910501A091060113
:1021A000B0910701803B9440A105B10509F09EC0A4
:1021B00080910B0180FF79C099C00E941B0DFC012A
:1021C000028113810115110509F4B0C0D801ED9108
:1021D000FC910190F081E02DBE016B5E7F4FC80144
:1021E000099581111AC0F80100851185EBCFF1E046
:1021F000FF1609F44EC0F3E0FF1298C08F898823C0
:1022000009F44AC0823089F440E860E18FE393E04A
:102210000E945D0D882309F489C08EEF8093E80049
:1022200088C018161906CCF381C0813029F440E823
:102230006BE083E393E0ECCF833009F077C00E943A
:102240001B0DDC011296ED90FC9013978E010F5F31
:102250001F4F6801E114F10479F0D701ED91FC9171
:102260000680F781E02DB801C7010995080F111DFF
:10227000F701E084F184EECFD8011C92F6010190C1
:102280000020E9F73197BF016C197D0940E0C601D4
:10229000BFCF61E273E002C06DE173E0FB014491E6
:1022A00050E080E80E94920DB8CFEE3F2AE0F2079E
:1022B00051F0808191818737A7E79A0721F09093A9
:1022C000FF0A8093FE0A87E797E7918380838091D6
:1022D000600080934F029BE088E10FB6F894A895C8
:1022E000809360000FBE9093600097CF80819181B2
:1022F0008737974709F091CFA89580916000886152
:102300008093600080914F0280936000EE3FBAE0BE
:10231000FB0739F08091FE0A9091FF0A9183808338
:102320007CCF1092FF0A1092FE0A77CF81E2809351
:10233000EB006C960FB6F894DEBF0FBECDBFDF91F9
:10234000CF91FF91EF91BF91AF919F918F917F912D
:102350006F915F914F913F912F911F910F91FF903E
:10236000EF90DF90CF900F900FBE0F901F901895B9
:10237000009769F0FC0101900020E9F73197AF0167
:10238000481B590BBC0181E692E00C94820E80E060
:1023900090E008952F923F924F925F926F927F92BA
:1023A0008F929F92AF92BF92CF92DF92EF92FF9265
:1023B0000F931F93CF93DF93CDB7DEB7A4970FB6DC
:1023C000F894DEBF0FBECDBF4B015C01F42E9B0124
:1023D000AC010E94D11C882319F088E591E027C048
:1023E00024013501E89477F82FEF3FEF4FE75FE7DF
:1023F000C301B2010E94D11C81110DC02FEF3FEF2C
:102400004FE75FE7C301B2010E94CE1918161CF412
:102410008CE591E00CC02FEF3FEF4FE75FE4C50183
:10242000B4010E94711B18162CF480E691E00E9402
:10243000B811B8C02FEF3FEF4FE75FECC501B40113
:102440000E94CE1987FDF1CF20E030E0A901C5013F
:10245000B4010E94CE1987FF0BC06DE281E692E0C5
:102460000E94220E3C01B7FAB094B7F8B09402C0B3
:10247000612C712C10E060E070E080E09FE3F116C9
:1024800041F020E030E040E251E40E94D8191F5FA3
:10249000F6CFA50194010E9462194B015C010E94D4
:1024A000511A6AA3C72ED82EE92E19A2262F372F2C
:1024B000482F592F8E010F5D1F4F0BA31CA39AE0CD
:1024C000292E312C412C512CCA01B901A2019101B4
:1024D0000E943019605DF80162938F01211531056A
:1024E0004105510589F7CF010E94B8118301080FFA
:1024F000191FFF2009F455C06AA17C2D8D2D9E2D3A
:102500000E94801A9B01AC01C501B4010E946119AF
:102510004B015C016EE281E692E00E94220E080F00
:10252000191F8AE0282E312C412C512C20E030E05C
:1025300040E251E4C501B4010E94C61B4B015C019D
:102540000E94511A9B0140E050E019A2CBA0DCA0F0
:10255000762E3AA3642EE52ECA01B901A20191019B
:102560000E943019605DF60162936F0121153105FB
:102570004105510589F7CF010E94B811080F191FB5
:10258000672D7AA1862D9E2D0E94801A9B01AC0199
:10259000C501B4010E9461194B015C01FA94F1106C
:1025A000C5CFC801A4960FB6F894DEBF0FBECDBF4D
:1025B000DF91CF911F910F91FF90EF90DF90CF901F
:1025C000BF90AF909F908F907F906F905F904F9053
:1025D0003F902F900895CF93DF9342E00E94CA115D
:1025E000EC0189E491E00E94B8118C0F9D1FDF91EE
:1025F000CF9108950F931F93CF93DF938C01C0E089
:10260000D0E0F801EC0FFD1F6491662341F081E6F4
:1026100092E00E94220E892B11F02196F2CFCE017A
:10262000DF91CF911F910F91089542E00C94CA1150
:10263000CF93DF93C82FD62F60E080917B030E9459
:10264000A603CC0FCE778C2F90E02B982F9A29B130
:102650002F989C0146E0359527954A95E1F7232B65
:1026600011F02B9A01C02B982F9A29B12F9885FF32
:1026700002C02B9A01C02B982F9A29B12F9884FF62
:1026800002C02B9A01C02B982F9A29B12F9883FF53
:1026900002C02B9A01C02B982F9A29B12F9882FF44
:1026A00002C02B9A01C02B982F9A99B12F9881FFC5
:1026B00002C02B9A01C02B982F9A89B12F982B9882
:1026C0002F9A89B12F988D2F90E09C01220F232FF4
:1026D000221F330B232B11F02B9A01C02B982F9A1A
:1026E00029B12F9886FF02C02B9A01C02B982F9AF0
:1026F00029B12F9885FF02C02B9A01C02B982F9AE1
:1027000029B12F9884FF02C02B9A01C02B982F9AD1
:1027100029B12F9883FF02C02B9A01C02B982F9AC2
:1027200029B12F9882FF02C02B9A01C02B982F9AB3
:1027300099B12F9881FF02C02B9A01C02B982F9A34
:1027400089B12F98D0FF02C02B9A01C02B982F9AE5
:1027500089B12F9861E080917B03DF91CF910C9438
:10276000A603CF9360E080917B030E94A6032B9A7F
:102770002F9A89B12F982B982F9A89B12F982B9A3D
:102780002F9A89B12F982B982F9A89B12F982B9A2D
:102790002F9A89B12F982B982F9A89B12F982B981F
:1027A0002F9A89B12F982B982F9A89B12F982B980F
:1027B0002F9A4E9B02C0C0E801C0C0E02F982B9812
:1027C0002F9A4E99C0642F982B982F9A4E99C062D9
:1027D0002F982B982F9A4E99C0612F982B982F9A4B
:1027E0004E99C8602F982B982F9A4E99C4602F98B5
:1027F0002B982F9A4E99C2602F982B982F9A4E990A
:10280000C1602F9861E080917B030E94A6038C2F0A
:10281000CF9108950F931F93CF93DF93EC01862FF1
:1028200000E010E02FE733E40A831B832C833D8311
:102830006883498361E00E94D50361E089810E9439
:10284000D50360E088810E94A60360E08981DF9162
:10285000CF911F910F910C94A603789484B5826058
:1028600084BD84B5816084BD85B5826085BD85B534
:10287000816085BD80916E00816080936E001092B2
:10288000810080918100826080938100809181002D
:1028900081608093810080918000816080938000BE
:1028A000809191008260809391008091910081607D
:1028B000809391008091900081608093900080913E
:1028C000C10084608093C1008091C10082608093C8
:1028D000C1008091C10081608093C1008091C300DC
:1028E00081608093C3008091C00082608093C000AB
:1028F0008091C20081608093C20080917A008460E0
:1029000080937A0080917A00826080937A0080912F
:102910007A00816080937A0080917A008068809349
:102920007A0010926002109250021092510280912F
:10293000D70081608093D70080EA8093D80089B562
:10294000806189BD89B5826089BD09B400FEFDCF73
:1029500061E070E080E090E00E945F058091D80027
:102960008F7C80618093D8008091E000807F80938D
:10297000E0008091E1008E7E8093E1008DE0809305
:10298000E200559A209A80E493E00E94AB0B88E421
:1029900093E00E94AB0B88E393E00E94AB0B61E0F5
:1029A00080917D030E94A6036FE081E00E941813CE
:1029B0006DE88AE20E9418136EE38BE20E941813FE
:1029C0006EE18DE20E94181360E08CE20E94181301
:1029D00060E485E10E9418136DE381E10E94181301
:1029E0000E94B113837039F40E94B113682F6360A1
:1029F00084E10E94181382E10E942805BC01990F0E
:102A0000880B990B611571058105910511F00E94E4
:102A1000F5188FEF9FEF90936E0280936D0268EE32
:102A200073E080E090E00E945F058CE491E00E94FA
:102A3000B81189E491E00E94B81110921B03109222
:102A40001C0310921D0310921E0310921F0310927C
:102A5000200310922103109222030E949905609393
:102A600023037093240380932503909326031092ED
:102A7000E5021092E6021092E7021092E80210922C
:102A8000E9021092EA021092EB021092EC020E940C
:102A900099056093ED027093EE028093EF0290939C
:102AA000F00280E5EAEFF1E0DF011D928A95E9F797
:102AB000F89410929000109291008091910088609B
:102AC00080939100809191008460809391008DE3C8
:102AD00090E09093990080939800809171008260BB
:102AE00080937100789445E050E060E070E084E706
:102AF00098E00E94FB0C44E150E060E070E083E568
:102B000095E00E94FB0C44E150E060E070E081E859
:102B100097E00E94FB0C4AE050E060E070E08FE23A
:102B200097E00E94FB0C44EF51E060E070E080E22F
:102B300093E00E94FB0C00E010E080914A028111BA
:102B400006C001151105C9F30E940000F6CF1092CE
:102B50004A02CAEFD1E04091F6015091F70160912D
:102B6000F8017091F901CC80DD80EE80FF808881D2
:102B70009981AA81BB818C0D9D1DAE1DBF1D84173F
:102B80009507A607B70788F4E885F985309769F0B7
:102B900009958091F6019091F701A091F801B0910B
:102BA000F9018C839D83AE83BF832A96B2E0CA3439
:102BB000DB0789F6C6CF4F925F926F927F928F921A
:102BC0009F92AF92BF92CF92DF92EF92FF92CF93FC
:102BD000DF93E1E6F2E01382128288EE93E0A0E058
:102BE000B0E084839583A683B7832BE131E0318302
:102BF00020832FEF3FEF35872487EFE7F3E0138241
:102C0000128284839583A683B7838DE291E09183BA
:102C1000808356985E985E98239A2B9A279A2F98CD
:102C2000C1E7D3E084E090E09B878A8761E00E945F
:102C3000D50360E08A850E94A60361E085E00E94DA
:102C4000D50361E085E00E94A60385E090E09D87C2
:102C50008C87E0E5F3E080E090E0A1E6B4E48083D7
:102C60009183A283B38384839583A683B7831086DD
:102C70001186128613861486158616861786108A84
:102C8000118A128A138A148A158A168A178A108E54
:102C9000118E128E138E148E158E168E178E10A214
:102CA00061E08AE00E94D50361E080E10E94D503E3
:102CB00061E089E00E94D50361E08FE00E94D503C6
:102CC00060E080E10E94A60361E08FE00E94A6031D
:102CD0001092B3021092B4021092B5021092B60292
:102CE0001092B2021092B1026E98729A60E08AE17C
:102CF0000E94D50361E08AE10E94A603E8E6F0E0C5
:102D000080818E7F8083ABE6B0E08C9180618C9374
:102D1000D89A8081816080831092B9021092BA02A1
:102D20001092BB021092BC021092B8021092B7022D
:102D300060E087E00E94D50360E087E10E94D50350
:102D4000EE98EAE6F0E0808180618083E69AEE9A70
:102D5000E8E4F3E0128213821482158286E190E0A7
:102D60009783868360E00E94D503E0E4F3E012825B
:102D700013821482158285E190E09783868360E058
:102D80000E94D503E8E3F3E01282138214821582D5
:102D900084E190E09783868360E00E94D50382E11E
:102DA00080933503EEE0F4E081E090E0968785873C
:102DB000118A108A128A138A148A158A168A178A27
:102DC000108E118E128E138E148E158E168E178EF7
:102DD00010A211A212A213A214A215A216A217A247
:102DE00010A611A612A643E25BED69E77DE343A7B7
:102DF00054A765A776A740E050E06CE071E447A7D0
:102E000050AB61AB72AB13AA14AA15AA16AA17AAE3
:102E100010AE11AE12AE13AE14AE15AE16AEEDEC92
:102E2000F3E09087878313861286148615861686AC
:102E30001786108A118A128A138A148A158A168AAA
:102E4000178A108E8AE791E4A9E1B9E3818F928F06
:102E5000A38FB48F8FEF9FE7968F858F90A3878F77
:102E600092A381A380E090E894A383A396A385A373
:102E700090A787A311A612A613A614A615A616A698
:102E800017A610AA11AA12AA13AA14AA15AA16AA5A
:102E900017AA10AE11AE12AE13AE14AE10920A0401
:102EA00010920B0410920C0410920D0440E16AE0A1
:102EB0008FE293E00E940A144FE069E089E293E018
:102EC0000E940A14C3EFD2E0C12CD12C8FE7E82E68
:102ED00083E4F82ECC86DD86EE86FF86188A198A72
:102EE0001A8A1B8A1C8A1D8A1E8A1F8A188E198EAE
:102EF0001A8E1B8E1C8E1D8E1E8E1F8E18A219A25E
:102F00001AA21BA21CA21DA21EA21FA218A619A6CD
:102F10001AA61BA61CA61DA61EA61FA618AA19AA9D
:102F20001AAA1BAA1CAA1DAA412C512C90E6692E94
:102F300090E4792E488259826A827B8223E3822E32
:102F4000982C27EAA22E21E4B22E88869986AA869A
:102F5000BB868AE097EDA3E2BDE38C839D83AE83BD
:102F6000BF830E94990568AB79AB8AAB9BABCDEB75
:102F7000D2E0CC86DD86EE86FF86188A198A1A8A08
:102F80001B8A1C8A1D8A1E8A1F8A188E198E1A8E09
:102F90001B8E1C8E1D8E1E8E1F8E18A219A21AA2A9
:102FA0001BA21CA21DA21EA21FA218A619A61AA629
:102FB0001BA61CA61DA61EA61FA618AA19AA1AAAF9
:102FC0001BAA1CAA1DAA488259826A827B82888613
:102FD0009986AA86BB868AE097EDA3E2BDE38C833F
:102FE0009D83AE83BF830E94990568AB79AB8AABA2
:102FF0009BABC7E9D3E0CC86DD86EE86FF86188AD8
:10300000198A1A8A1B8A1C8A1D8A1E8A1F8A188E90
:10301000198E1A8E1B8E1C8E1D8E1E8E1F8E18A250
:1030200019A21AA21BA21CA21DA21EA21FA218A6B0
:1030300019A61AA61BA61CA61DA61EA61FA618AA80
:1030400019AA1AAA1BAA1CAA1DAA80E090E0A0EC4B
:10305000BFE388839983AA83BB83188619861A865F
:103060001B868FE692E1A3E8BAE38C839D83AE834F
:10307000BF830E94990568AB79AB8AAB9BABEBE849
:10308000F3E0128215828FE391E0918380831086B2
:103090008EE1818781E082878387DF91CF91FF90E6
:1030A000EF90DF90CF90BF90AF909F908F907F90E8
:1030B0006F905F904F9008958F929F92AF92BF92C2
:1030C000CF92DF92EF92FF92CF93DF93EC01688172
:1030D00079818A819B81611571058105910521F4B2
:1030E00064E279ED8BE597E02DE133EF41E050E0CC
:1030F0000E94FE1849015A019B01AC01A7EAB1E404
:103100000E941D196B017C01ACEEB4EFA501940186
:103110000E942B19DC01CB018C0D9D1DAE1DBF1D26
:10312000B7FF03C00197A109B04888839983AA8398
:10313000BB83BC01CD019F77DF91CF91FF90EF90D2
:10314000DF90CF90BF90AF909F908F9008958F9217
:103150009F92AF92BF92CF92DF92EF92FF926091D7
:103160000C0170910D0180910E0190910F0161157C
:1031700071058105910521F464E279ED8BE597E015
:103180002DE133EF41E050E00E94FE1849015A0161
:103190009B01AC01A7EAB1E40E941D196B017C01FF
:1031A000ACEEB4EFA50194010E942B19DC01CB0118
:1031B0008C0D9D1DAE1DBF1DB7FF03C00197A1095A
:1031C000B04880930C0190930D01A0930E01B09331
:1031D0000F01BC01CD019F77FF90EF90DF90CF9062
:1031E000BF90AF909F908F90089560930C01709363
:1031F0000D0180930E0190930F010895052E97FB0A
:103200001EF400940E94151957FD07D00E94301932
:1032100007FC03D04EF40C94151950954095309549
:1032200021953F4F4F4F5F4F089590958095709532
:1032300061957F4F8F4F9F4F08950E945219A59F10
:10324000900DB49F900DA49F800D911D11240895A1
:10325000B7FF0C941D190E941D19821B930B089532
:10326000A1E21A2EAA1BBB1BFD010DC0AA1FBB1F8A
:10327000EE1FFF1FA217B307E407F50720F0A21BFC
:10328000B30BE40BF50B661F771F881F991F1A9469
:1032900069F760957095809590959B01AC01BD0193
:1032A000CF010895A29FB001B39FC001A39F700DED
:1032B000811D1124911DB29F700D811D1124911D3E
:1032C00008955058BB27AA270E9479190C94231BF4
:1032D0000E94EA1A38F00E94F11A20F039F49F3F58
:1032E00019F426F40C94E71A0EF4E095E7FB0C941D
:1032F000E11AE92F0E94481B58F3BA1762077307B7
:103300008407950720F079F4A6F50C946A1B0EF457
:10331000E0950B2EBA2FA02D0B01B90190010C01E5
:10332000CA01A0011124FF27591B99F0593F50F4FD
:10333000503E68F11A16F040A22F232F342F442755
:10334000585FF3CF469537952795A795F04053954D
:10335000C9F77EF41F16BA0B620B730B840BBAF01D
:103360009150A1F0FF0FBB1F661F771F881FC2F788
:103370000EC0BA0F621F731F841F48F4879577959C
:103380006795B795F7959E3F08F0B0CF9395880F56
:1033900008F09927EE0F9795879508950E94BD1A1A
:1033A00008F481E008950E94FA1AE3950C94341B06
:1033B0000E94EC190C94231B0E94F11A58F00E94F1
:1033C000EA1A40F029F45F3F29F00C94E11A5111F8
:1033D0000C946B1B0C94E71A0E94481B68F399230A
:1033E000B1F3552391F3951B550BBB27AA27621701
:1033F0007307840738F09F5F5F4F220F331F441F0E
:10340000AA1FA9F335D00E2E3AF0E0E832D0915041
:103410005040E695001CCAF72BD0FE2F29D0660F2E
:10342000771F881FBB1F261737074807AB07B0E871
:1034300009F0BB0B802DBF01FF2793585F4F3AF077
:103440009E3F510578F00C94E11A0C946B1B5F3F82
:10345000E4F3983ED4F3869577956795B795F795FD
:103460009F5FC9F7880F911D9695879597F90895E5
:10347000E1E0660F771F881FBB1F62177307840781
:10348000BA0720F0621B730B840BBA0BEE1F88F790
:10349000E09508950E94511A6894B1110C946B1B29
:1034A00008950E94501B88F09F5798F0B92F9927D4
:1034B000B751B0F0E1F0660F771F881F991F1AF01F
:1034C000BA95C9F714C0B13091F00E946A1BB1E0FF
:1034D00008950C946A1B672F782F8827B85F39F0FE
:1034E000B93FCCF3869577956795B395D9F73EF4B8
:1034F00090958095709561957F4F8F4F9F4F089560
:10350000E89409C097FB3EF490958095709561957D
:103510007F4F8F4F9F4F9923A9F0F92F96E9BB2733
:103520009395F695879577956795B795F111F8CFAF
:10353000FAF4BB0F11F460FF1BC06F5F7F4F8F4F1A
:103540009F4F16C0882311F096E911C0772321F010
:103550009EE8872F762F05C0662371F096E8862FA8
:1035600070E060E02AF09A95660F771F881FDAF7FF
:10357000880F9695879597F90895990F0008550F2C
:10358000AA0BE0E8FEEF16161706E807F907C0F0E9
:1035900012161306E407F50798F0621B730B840BF1
:1035A000950B39F40A2661F0232B242B252B21F4CB
:1035B00008950A2609F4A140A6958FEF811D811D6B
:1035C000089597F99F6780E870E060E008959FEFA5
:1035D00080EC089500240A941616170618060906AA
:1035E000089500240A941216130614060506089579
:1035F0000C94E71A0E94501BD8F3E894E0E0BB2734
:103600009F57F0F02AED3FE049EC06C0EE0FBB0FEC
:10361000661F771F881F28F0B23A62077307840776
:1036200028F0B25A620B730B840BE3959A9572F7EC
:10363000803830F49A95BB0F661F771F881FD2F72A
:1036400090480C94121D092E0394000C11F4882349
:1036500052F0BB0F40F4BF2B11F460FF04C06F5F4A
:103660007F4F8F4F9F4F0895EF93E0FF07C0A2EA6F
:103670002AED3FE049EC5FEB0E9479190E94231B81
:103680000F90039401FC9058E0E2F1E00C944C1D83
:1036900057FD9058440F551F59F05F3F71F0479503
:1036A000880F97FB991F61F09F3F79F087950895E8
:1036B000121613061406551FF2CF4695F1DF08C007
:1036C000161617061806991FF1CF86957105610524
:1036D00008940895E894BB2766277727CB0197F9CC
:1036E00008950E94BD1A08F48FEF089516F00C9407
:1036F000101D0C94E71A68940C94E11A0E94501B58
:10370000A8F39923C1F3AEF3DF93CF931F930F93E5
:10371000FF92C92FDD2788232AF02197660F771F94
:10372000881FDAF720E030E040E85FEB9FE388395C
:1037300020F0803E38F021968F770E946219EEE3E8
:10374000F1E004C00E946219EBE6F1E00E94251D41
:103750008B01BE01EC01FB2E6F5771097595771F28
:10376000880B990B0E94821A28E132E741E35FE35C
:103770000E94D91BAF2D9801AE01FF900F911F91B0
:10378000CF91DF910E9479190C94231B0E94D91BC1
:103790000C94231B0E94EA1A38F00E94F11A20F0C0
:1037A000952311F00C94E11A0C94E71A11240C944F
:1037B0006B1B0E94481B70F3959FC1F3950F50E05F
:1037C000551F629FF001729FBB27F00DB11D639FD3
:1037D000AA27F00DB11DAA1F649F6627B00DA11D79
:1037E000661F829F2227B00DA11D621F739FB00D1F
:1037F000A11D621F839FA00D611D221F749F33278F
:10380000A00D611D231F849F600D211D822F762F27
:103810006A2F11249F5750409AF0F1F088234AF004
:10382000EE0FFF1FBB1F661F771F881F9150504070
:10383000A9F79E3F510580F00C94E11A0C946B1B84
:103840005F3FE4F3983ED4F3869577956795B795F7
:10385000F795E7959F5FC1F7FE2B880F911D969511
:10386000879597F90895FA01EE0FFF1F309621050D
:103870003105A1F16115710561F48038BFE39B0743
:1038800049F168949038810561F08038BFEF9B075B
:1038900041F099234AF5FF3FE1053105210519F172
:1038A000E8940894E795D901AA2329F4AB2FBE2FF9
:1038B000F85FD0F310C0FF5F70F4A695E0F7F7391A
:1038C00050F019F0FF3A38F49F779F930DD00F9086
:1038D00007FC9058089546F00C94E71A60E070E0F9
:1038E00080E89FE308954FE79F775F934F933F935F
:1038F0002F930E947E1B2F913F914F915F910E94C9
:10390000C61B0C94DE1C9F930E94FA1A0F9007FCB2
:10391000EE5F0C94341B19F416F40C94E71A0C9413
:10392000101D0E94501BB8F39923C9F3B6F39F579B
:10393000550B87FF0E941E1D0024A0E640EA90015F
:1039400080585695979528F4805C660F771F881FDE
:1039500020F026173707480730F4621B730B840BDF
:10396000202931294A2BA695179407942025312523
:103970004A2758F7660F771F881F20F0261737074A
:10398000480730F4620B730B840B200D311D411D71
:10399000A09581F7B901842F9158880F9695879546
:1039A00008950E94BD1A880B990B089529F416F00A
:1039B0000C94E11A0C946A1B0C94E71A0E94501B99
:1039C000A8F39638A0F707F80F92E8942BE33AEAA9
:1039D00048EB5FE70E94DC1B0F920F920F924DB7EE
:1039E0005EB70F920E94A21DE8E9F1E00E94251D3A
:1039F0004F915F91EF91FF91E595EE1FFF1F49F009
:103A0000FE57E0684427EE0F441FFA95E1F7419511
:103A1000550B0E946C1D0F9007FE0C94601D0895BD
:103A20009F3F31F0915020F4879577956795B79532
:103A3000880F911D9695879597F90895915050405C
:103A4000660F771F881FD2F70895DF93CF931F93D8
:103A50000F93FF92EF92DF927B018C01689406C076
:103A6000DA2EEF010E94D91BFE01E894A591259161
:103A7000359145915591A6F3EF010E947919FE0108
:103A80009701A801DA9469F7DF90EF90FF900F910A
:103A90001F91CF91DF9108959F938F937F936F93A1
:103AA000FF93EF939B01AC010E94C61BEF91FF9126
:103AB0000E94251D2F913F914F915F910C94C61B41
:103AC0009B01AC0160E070E080E89FE30C94D819A2
:103AD0000C94E11A0C94101D0E94501BD8F39923EA
:103AE000C9F3940F511DA3F39150504094F059F035
:103AF000882332F0660F771F881F91505040C1F71E
:103B00009E3F51052CF7880F911D9695879597F943
:103B100008955F3FACF0983E9CF0BB278695779563
:103B20006795B79508F4B1609395C1F7BB0F58F747
:103B300011F460FFE8CF6F5F7F4F8F4F9F4FE3CF50
:103B40000C946B1BFA01DC01AA0FBB1F9B01AC019B
:103B5000BF5728F4222733274427507820C0B75175
:103B600090F4AB2F0024469537952795011CA3951B
:103B7000D2F3002071F0220F331F441FB395DAF304
:103B80000ED00C94611961307105A0E88A07B9461E
:103B900030F49B01AC016627772788279078309610
:103BA00021F020833183428353830895EE0FFF1F5A
:103BB0000590F491E02D099481E090E0F8940C9444
:063BC000E11DF894FFCFA7
:103BC600FFFFFFFF00E10000000000000100000011
:103BD60000C1808100000000000000220E820ED885
:103BE60002380ED3010003DC0200000000C302B855
:103BF60002D502AA02B102AE02AB02000000001119
:103C060004205B002C20005D000D0A00426F6172EB
:103C160064205265736574006E616E00696E66009D
:043C26006F7666004F
:00000001FF
